:1002000019C028C027C026C025C024C023C022C0D2
:1002100021C020C01FC01EC01DC01CC01BC01AC0F2
:1002200019C018C017C016C015C014C013C012C022
:1002300011C010C011241FBECFEFCDBFDFE3DEBF62
:100240002FE3A0E0BEE301C01D92A733B207E1F7A0
:1002500009D354C3D5CF8093283E9093293E609311
:10026000263E7093273E08956F927F928F929F92C1
:10027000AF92BF92CF92DF92EF92FF920F931F93B4
:10028000CF93DF93E091283EF091293E908097FC38
:1002900099C081E0891508F0BEC0BF016F5F7F4F34
:1002A0008180092D10E0C82DD0E0AA24A394C017A6
:1002B000D1070CF053C0BB24B39482E1C82E8EE367
:1002C000D82E92E0E92E9EE3F92E1CC0872D8F7365
:1002D000782E09F058C0E0E86E1609F465C0B9142C
:1002E000E8F52B2D30E06091283E7091293E620F99
:1002F000731FFB018080C82DD0E02C0F3D1F02171B
:10030000130764F1C092243ED092253EE092223E33
:10031000F092233EAE0182E19EE3E7D2B80C109248
:10032000013E1092003E1092123E882D60D2782E2F
:10033000F82FF07C6F2E87FDC9CF8091263E9091DB
:10034000273E6091243E7091253EAE018A0D911D9D
:10035000CCD2A80C6110BACFB91418F2E091263EA5
:10036000F091273EA0828A2DDF91CF911F910F91AE
:10037000FF90EF90DF90CF90BF90AF909F908F90C5
:100380007F906F9008958091263E9091273E472D53
:1003900050E06091223E7091233E8A0D911DA5D2BE
:1003A000A70CE0E86E129BCF8091263E9091273EED
:1003B0006091243E7091253EAE018A0D911D95D22B
:1003C000A80C8DCF692D6F77633010F480E0CCCF0F
:1003D000CF0103968093243E9093253E8091263E44
:1003E0009091273E8093223E9093233E818192817B
:1003F0001092013E6350982789279827FAD1982FA9
:10040000907C39F4E091263EF091273E81E0808394
:10041000ABCF8F73A9CFAA24A394A0CFE091243EA1
:10042000F091253E8091013E91E0980F9093013E1E
:10043000E80FF11D80810895E091223EF091233E66
:10044000808381E08093003E0895CF93DF93FC0189
:10045000A091223EB091233E9091003E81E0890F11
:100460002081ED01C90FD11D28832081222309F4A9
:10047000CEC0803108F0CBC022E0290F3181ED01E0
:10048000C80FD11D38838181882309F4C5C020316C
:1004900009F4BCC083E0890F3281ED01C20FD11D88
:1004A00038832281222309F4B2C0803109F4AFC01D
:1004B00024E0290F3381ED01C80FD11D38838381DA
:1004C000882309F4A9C0203109F4A0C085E0890F70
:1004D0003481ED01C20FD11D38832481222309F418
:1004E00096C0803109F493C026E0290F3581ED01D3
:1004F000C80FD11D38838581882309F48DC0203130
:1005000009F484C087E0890F3681ED01C20FD11D47
:1005100038832681222309F47AC0803109F477C018
:1005200028E0290F3781ED01C80FD11D388387815D
:10053000882309F471C0203109F468C089E0890F6B
:100540003085ED01C20FD11D38832085222309F4A7
:100550005EC0803109F45BC02AE0290F3185ED01CE
:10056000C80FD11D38838185882309F455C02031F7
:1005700009F44CC08BE0890F3285ED01C20FD11D0B
:1005800038832285222309F442C0803109F43FC018
:100590002CE0290F3385ED01C80FD11D38838385E9
:1005A0008823D1F1203191F18DE0890F3485ED015F
:1005B000C20FD11D38832485222349F1803139F1BE
:1005C0002EE0290F3585ED01C80FD11D38838585B3
:1005D000882311F12031D1F08FE0890F3685ED01AC
:1005E000C20FD11D38832685222389F0803179F00E
:1005F000905F2785ED01C80FD11D2883878588234B
:1006000089F0903119F080891F968C9380E1809356
:10061000003EDF91CF910895822F8093003EDF91BD
:10062000CF910895892FF3CF9091003E292F30E08C
:100630002F3031055CF44091223E5091233E9F5F64
:100640009093003EFA01E20FF31F808308954091DA
:10065000223E5091233E2091003EFA01E20FF11D0F
:10066000908391E0920FFA01E90FF11D808382E0FF
:10067000820FFA01E80FF11D708384E0820F8093EE
:10068000003E2D5FFA01E20FF11D60830895209175
:10069000003E222351F0E091223EF091233E9081D2
:1006A000911102C02083922F892B0895E0E0F8E099
:1006B00020EC2683408751878093353E9093363EC9
:1006C0006093333E7093343E2AE020932A3E809319
:1006D000313E9093323E089510922D3E10922B3E63
:1006E00010922C3E8091353E9091363E8093313E63
:1006F0009093323E089580932E3E8091333E9091A8
:10070000343E80932F3E9093303E089590912C3E3E
:10071000983C98F59F5F90932C3E983C41F1A091B6
:10072000313EB091323E80912D3E30912B3E03C040
:1007300090E08317A0F42091040827FF26C0909131
:100740000008FD01E80FF11D90838F5F813081F774
:100750003111EECF3C913F7790E0831760F38093A7
:100760002D3E10922C3E30932B3E82E008958091D6
:100770002D3E882391F083E0089510922D3E109233
:100780002B3E10922C3E80E0089580932D3E909356
:100790002C3E30932B3E81E0911180E008958091B2
:1007A0002E3E8823A9F09091040895FF11C0E09196
:1007B0002F3EF091303E919190930208815051F478
:1007C00010922E3EE0932F3EF093303E82E008954B
:1007D00080E008959091040895FDEDCF80932E3E22
:1007E000E0932F3EF093303E81E00895089580E03D
:1007F0000895893423E59207F1F0863523E59207C1
:1008000091F08434994411F080E0089580E014DE82
:1008100068E473E48DE49AE51ADF60E070E0CB01F0
:1008200016DF80EC34CF613079F780E005DE80E0C0
:10083000FBDE80EC2CCF662379F0613029F7EEDD0A
:100840008111F3CFF9DD8AE0EFDE88E0EDDE80E0B4
:1008500099E8FBDD80EC1BCF80E0EEDD81E0E4DE9B
:1008600080EC15CF40E068ED81E690E03AD0239827
:1008700080913304877F80933304229A2A9A459883
:100880008091550488608093550480915504887F39
:10089000836080935504409A489840E550E067E3B0
:1008A0007EE387EB9EE302DF67E37EE387EB9EE375
:1008B000D2DC9CDF05C073DF8091490485FD0BC04D
:1008C00025DF8230C1F7D0DC16DF06DF68DF8091DC
:1008D000490485FFF5CF41E068ED81E490E001D067
:1008E000EFCFFC0164BF40830895FB01DC0102C02F
:1008F00001900D9241505040D8F70895F894FFCFE1
:10090000546573742053657276696365204E616D1A
:030910006500007F
:0400000300000200F7
:00000001FF
===========================================