:100400000C943E020C945B020C945B020C945B0215
:100410000C945B020C945B020C945B020C945B02E8
:100420000C945B020C945B020C945B020C945B02D8
:100430000C945B020C945B020C945B020C945B02C8
:100440000C945B020C945B020C945B020C945B02B8
:100450000C945B020C945B020C945B020C945B02A8
:100460000C945B020C945B020C945B020C945B0298
:100470000C945B020C945B020C945B0211241FBE73
:10048000CFEFCDBFDFE3DEBF18E3A0E0B8E3EAE6DD
:10049000FAE102C005900D92A832B107D9F729E31D
:1004A000A8E2B8E301C01D92AA3BB207E1F70E949F
:1004B0003B070C94B5090C9400028F929F92AF9267
:1004C000CF92DF92EF92FF920F93CF93DF93CDB74E
:1004D000DEB76093963870939738809398389093EE
:1004E00099382093923830939338409394385093AE
:1004F000953800939138E0928F38F0929038C092FE
:100500008D38D0928E38A0928C3880928A38909212
:100510008B388D859E8580938838909389388F8518
:100520009889809386389093873889899A898093AF
:10053000843890938538DF91CF910F91FF90EF90A1
:10054000DF90CF90AF909F908F9008951F93CF939F
:10055000DF93C62F8F3429E4920709F4E9C090F0A5
:10056000893420E5920709F403C1833520E5920719
:1005700099F18734904509F498C080E0DF91CF91DC
:100580001F910895893428E4920709F4C4C089347E
:1005900029E4920709F44CC08934964471F780E04D
:1005A0000E94350B609196387091973880919838F9
:1005B000909199380E94A50B609192387091933870
:1005C00080919438909195380E94A50B80ECDF9132
:1005D000CF911F910C94C50B80E00E94350B0E94B7
:1005E000D10A882399F30E940A0BC82F40918C38B6
:1005F0004423A9F0A0918A38B0918B388C91C81708
:10060000B9F1CD01089620E007C0DC010896FC0195
:1006100038973081C31761F12F5F2413F6CF80E044
:100620000E94810B80ECDF91CF911F910C94C50B40
:1006300080E00E94350B60919138CC2391F06C17CB
:1006400010F4662371F00E940A0BE0918F38F0914C
:1006500090388083E0918838F091893809956091CD
:10066000913880918F38909190380E943E0BAECF98
:1006700013966C91139714968D919C9115970E94E7
:10068000DA0A811102C08FEFCBCFE0918438F0916C
:1006900085388C2F09958823B1F38C2F0E94810B0C
:1006A000C150CE3F08F49BCF91CF80E00E94350B24
:1006B0000E94D10A882309F489CF0E940A0B509125
:1006C0008C385523A9F3A0918A38B0918B384C917E
:1006D000841709F47EC09D01285F3F4F90E09F5F23
:1006E000951731F3E901CA1BDB0B285F3F4FF90176
:1006F000389740818413F3CF842F0E94810B80911F
:100700008A3890918B38C80FD91F6B818C819D815D
:100710000E943E0BCDCF80E00E94350BC0E0D3E1BC
:1007200089910E94810BC03183E1D807C9F74ECF70
:1007300080E00E94350B60919138CC2391F06C17CA
:1007400010F4662371F00E940A0BE0918D38F0914D
:100750008E388083E0918638F091873809956091D2
:10076000913880918D3890918E380E943E0B2ECF1B
:1007700080E00E94350BC1112FC080918C388823F6
:1007800009F424CF10E0C12FD0E0CC0FDD1FCC0F37
:10079000DD1FCC0FDD1FE0918A38F0918B38EC0F14
:1007A000FD1F80810E94810B80918A3890918B3847
:1007B000C80FD91F898120E1829FC00111249A812D
:1007C000892B0E94810B1F5F80918C381817D8F2FB
:1007D000FDCEC0E0D0E090CFC13009F0F7CE0E944E
:1007E0000A0B50918C385523B9F0E0918A38F0917A
:1007F0008B3890818917A1F09F01285F3F4F90E0CF
:1008000008C0F901285F3F4FD90118974C91841710
:1008100039F09F5F9513F5CF80E00E94810BADCE3C
:10082000868197810E945F0BD1CE089508958F92A3
:100830009F92AF92BF92CF92DF92EF92FF92609120
:10084000B4387091B5388091B6389091B7380E941D
:100850006A088090B4389090B538A090B638B090BF
:10086000B7386B01770FEE08FF08C701B6010E9489
:10087000A2089B01AC01C501B4010E948B0720E0D6
:1008800030E048E453E40E942E090E94710860930E
:10089000B038C092B138D092B2386701EE24FF244C
:1008A000C092B3388091B338811107C08091B138BC
:1008B0009091B23881389E4368F181E080939C38F2
:1008C0001092AB381092AC381092AD381092AE380E
:1008D0001092A3381092A4381092A5381092A6381E
:1008E0001092A7381092A8381092A9381092AA38FE
:1008F00010929F381092A0381092A1381092A2380E
:1009000081E0FF90EF90DF90CF90BF90AF909F90ED
:100910008F90089510929C382091B4383091B5385A
:100920004091B6385091B73860E070E08AEF96E4B5
:100930000E94F8070E9471086093AB387093AC383E
:100940008093AD389093AE388091B038811138C023
:1009500010929A38A091AF382091AB383091AC38D2
:100960004091AD385091AE38B0E00E949B09BB2752
:10097000A92F982F872F8093A3389093A438A09302
:10098000A538B093A6388091AB389091AC38A0913F
:10099000AD38B091AE384091A3385091A4386091F1
:1009A000A5387091A638841B950BA60BB70B8093C6
:1009B000A7389093A838A093A938B093AA3898CFB5
:1009C0008091B1389091B2388F3F910509F000F6CF
:1009D00081E080939A38BECF8F929F92AF92BF9260
:1009E000CF92DF92EF92FF920F93CF9387E194E043
:1009F0009F938F9385E194E09F938F9386E194E09A
:100A00009F938F9330E0832E38E3932E45E0A42EFE
:100A100058EBC52E58E3D52E69EBE62E68E3F62E8B
:100A200001E021E030E040E050E068E473E48DE470
:100A30009AE50E945D02C1E0C093B938C093B8380E
:100A400080E090E0A0E8BFE38093B4389093B5389D
:100A5000A093B638B093B73880E88093AF386091F0
:100A6000B4387091B5388091B6389091B7380E94FB
:100A70006A088090B4389090B538A090B638B0909D
:100A8000B7386B01770FEE08FF08C701B6010E9467
:100A9000A2089B01AC01C501B4010E948B0720E0B4
:100AA00030E048E453E40E942E090E9471086093EC
:100AB000B038C092B138D092B2386701EE24FF242A
:100AC000C092B3388091B3380F900F900F900F9071
:100AD0000F900F90811107C08091B1389091B2387A
:100AE00081389E4370F181E080939C381092AB383E
:100AF0001092AC381092AD381092AE381092A338E4
:100B00001092A4381092A5381092A6381092A738E7
:100B10001092A8381092A9381092AA3810929F38D3
:100B20001092A0381092A1381092A238CF910F9154
:100B3000FF90EF90DF90CF90BF90AF909F908F90FD
:100B4000089510929C382091B4383091B538409176
:100B5000B6385091B73860E070E08AEF96E40E94B2
:100B6000F8070E9471086093AB387093AC3880939B
:100B7000AD389093AE388091B038811138C0109262
:100B80009A38A091AF382091AB383091AC38409171
:100B9000AD385091AE38B0E00E949B09BB27A92F19
:100BA000982F872F8093A3389093A438A093A538CB
:100BB000B093A6388091AB389091AC38A091AD3805
:100BC000B091AE384091A3385091A4386091A538C7
:100BD0007091A638841B950BA60BB70B8093A73892
:100BE0009093A838A093A938B093AA3897CF809152
:100BF000B1389091B2388F3F910509F000F6C0935B
:100C00009A38BFCF0F931F93CF93DF93853031F086
:100C100080E0DF91CF911F910F910895FB018281B8
:100C20008E3FB1F7EB0180E00E94350B8091B83820
:100C30000E94810B8091AF38882309F4DBC080913A
:100C4000AF388F3F09F406C180919C388111B6C03E
:100C500020919D3830919E388B819C8198278927DF
:100C60009827820F931F80939D3890939E38809190
:100C70009D3890919E38803A9F4050F280919D38E7
:100C800090919E38803A9F4028F180919D389091B4
:100C90009E38805A9F4080939D3890939E388091D3
:100CA0009F389091A038A091A138B091A238805679
:100CB000904FAF4FBF4F80939F389093A038A09331
:100CC000A138B093A23880919D3890919E38803A97
:100CD0009F40D8F690919B3880919B38C0E0D0E03F
:100CE0008823A9F100919F381091A0382091A13854
:100CF0003091A2384091A3385091A4386091A53822
:100D00007091A638041715072607370708F474C032
:100D10000091A3381091A4382091A5383091A638BD
:100D200040919F385091A0386091A1387091A238BD
:100D3000401B510B620B730B40939F385093A038AC
:100D40006093A1387093A238219610929B3800913D
:100D50009F381091A0382091A1383091A23840914D
:100D6000A7385091A8386091A9387091AA38041713
:100D700015072607370708F43FC00091A7381091E0
:100D8000A8382091A9383091AA3840919F385091C5
:100D9000A0386091A1387091A238401B510B620BB2
:100DA000730B40939F385093A0386093A138709391
:100DB000A238219681E080939B3894CF87EB0E94E4
:100DC000810B8091B338882321F08091B3380E9441
:100DD000810B8091B1389091B2380E94940B809130
:100DE000AF380E94810B80E4DF91CF911F910F916A
:100DF0000C94C50B80EBF5CF992351F182E09091D3
:100E00009B38892B2091B1383091B2382F3F310572
:100E100009F030F52091B1383091B2382B303105DE
:100E2000D8F48C6B0E94810BCE01969587950E9419
:100E3000810B8091B1389091B2380E94810B8091E2
:100E40009A38882361F28091B0380E94810BC7CF15
:100E500080E0D5CF83EBC5CF886B0E94810BE4CFB8
:100E6000886B0E94810BCE01969587950E94940B0A
:100E7000B0CF0C94A60240E068ED81E690E00E94BD
:100E80008707239880913304877F80933304229AC5
:100E90002A9A07988091170488608093170480919C
:100EA0001704887F83608093170440E550E06AEB65
:100EB00078E38AE399E30E94DE0B22E036E049E31F
:100EC00057E06AEB78E38AE399E30E94B7090E944E
:100ED000EC0406C00E945A0C8091090487FD10C0E2
:100EE0000E94110C8230B1F70E94C8090E94060CC2
:100EF0000E94F70B0E945A0C8091090487FFF0CFE3
:100F000041E068ED81E490E00E948707E9CFFC01B1
:100F100064BF408308955058BB27AA270E94A307A7
:100F20000C94F4080E94E60838F00E94ED0820F0C6
:100F300039F49F3F19F426F40C94E3080EF4E0957D
:100F4000E7FB0C94DD08E92F0E94050958F3BA1756
:100F5000620773078407950720F079F4A6F50C94CF
:100F600027090EF4E0950B2EBA2FA02D0B01B90125
:100F700090010C01CA01A0011124FF27591B99F00F
:100F8000593F50F4503E68F11A16F040A22F232F1B
:100F9000342F4427585FF3CF469537952795A7956B
:100FA000F0405395C9F77EF41F16BA0B620B730B12
:100FB000840BBAF09150A1F0FF0FBB1F661F771F83
:100FC000881FC2F70EC0BA0F621F731F841F48F438
:100FD000879577956795B795F7959E3F08F0B0CFC1
:100FE0009395880F08F09927EE0F979587950895A8
:100FF0000E940C080C94F4080E94ED0858F00E941E
:10100000E60840F029F45F3F29F00C94DD08511107
:101010000C9428090C94E3080E94050968F39923AD
:10102000B1F3552391F3951B550BBB27AA276217E4
:101030007307840738F09F5F5F4F220F331F441FF1
:10104000AA1FA9F335D00E2E3AF0E0E832D0915025
:101050005040E695001CCAF72BD0FE2F29D0660F12
:10106000771F881FBB1F261737074807AB07B0E855
:1010700009F0BB0B802DBF01FF2793585F4F3AF05B
:101080009E3F510578F00C94DD080C9428095F3FD1
:10109000E4F3983ED4F3869577956795B795F795E1
:1010A0009F5FC9F7880F911D9695879597F90895C9
:1010B000E1E0660F771F881FBB1F62177307840765
:1010C000BA0720F0621B730B840BBA0BEE1F88F774
:1010D000E09508950E9471086894B1110C94280954
:1010E00008950E940D0988F09F5798F0B92F99270D
:1010F000B751B0F0E1F0660F771F881F991F1AF003
:10110000BA95C9F714C0B13091F00E942709B1E037
:1011100008950C942709672F782F8827B85F39F036
:10112000B93FCCF3869577956795B395D9F73EF49B
:1011300090958095709561957F4F8F4F9F4F089543
:10114000E89409C097FB3EF4909580957095619561
:101150007F4F8F4F9F4F9923A9F0F92F96E9BB2717
:101160009395F695879577956795B795F111F8CF93
:10117000FAF4BB0F11F460FF1BC06F5F7F4F8F4FFE
:101180009F4F16C0882311F096E911C0772321F0F4
:101190009EE8872F762F05C0662371F096E8862F8C
:1011A00070E060E02AF09A95660F771F881FDAF7E3
:1011B000880F9695879597F9089597F99F6780E826
:1011C00070E060E008959FEF80EC089500240A9499
:1011D0001616170618060906089500240A94121612
:1011E0001306140605060895092E0394000C11F445
:1011F000882352F0BB0F40F4BF2B11F460FF04C0F2
:101200006F5F7F4F8F4F9F4F089557FD9058440F4A
:10121000551F59F05F3F71F04795880F97FB991F55
:1012200061F09F3F79F08795089512161306140612
:10123000551FF2CF4695F1DF08C01616170618069F
:10124000991FF1CF86957105610508940895E8947A
:10125000BB2766277727CB0197F908950E9441099C
:101260000C94F4080E94E60838F00E94ED0820F083
:10127000952311F00C94DD080C94E30811240C94D0
:1012800028090E94050970F3959FC1F3950F50E05E
:10129000551F629FF001729FBB27F00DB11D639F28
:1012A000AA27F00DB11DAA1F649F6627B00DA11DCE
:1012B000661F829F2227B00DA11D621F739FB00D74
:1012C000A11D621F839FA00D611D221F749F3327E4
:1012D000A00D611D231F849F600D211D822F762F7D
:1012E0006A2F11249F5750409AF0F1F088234AF05A
:1012F000EE0FFF1FBB1F661F771F881F91505040C6
:10130000A9F79E3F510580F00C94DD080C94280944
:101310005F3FE4F3983ED4F3869577956795B7954C
:10132000F795E7959F5FC1F7FE2B880F911D969566
:10133000879597F908950E94A609A59F900DB49FDF
:10134000900DA49F800D911D11240895A29FB001BE
:10135000B39FC001A39F700D811D1124911DB29FE9
:0E136000700D811D1124911D0895F894FFCF8A
:10136E008093283890932938609377387093783823
:10137E0040932A3850932B382093283830932938AD
:10138E0008959F92AF92BF92CF92DF92EF92FF920B
:10139E000F931F93CF93DF93E0912838F091293864
:1013AE00908097FCC3C081E0891508F0EEC0DF0184
:1013BE001196818180932E38882309F4E6C0E92C9A
:1013CE00F12C282F30E02E153F050CF0DEC0C1E0C9
:1013DE00D0E0BB24B394AA24A39401E518E39FE2C2
:1013EE00C92E98E3D92E0093753810937638C09293
:1013FE007338D092743810922D3810922C3801E533
:10140E0018E3F8012F5A374C9D919193E217F30789
:10141E00D9F7E0912838F09129384FE258E361E589
:10142E0078E30995582F507C87FF4BC040912E389A
:10143E008F7309F067C05038C9F4842F90E0209163
:10144E00283830912938C20FD31FE0917738F091A8
:10145E007838EB0DF11D009741F09F01280F391FD1
:10146E00999191932E173F07D9F7B40EA40EA91494
:10147E00B0F4CA2DD0E0A0912838B0912938AC0F25
:10148E00BD1F8C9180932E38882349F0282F30E091
:10149E00A9014C0F5D1FE416F5060CF0A4CFE091E8
:1014AE007738F0917838B0828B2DDF91CF911F91E4
:1014BE000F91FF90EF90DF90CF90BF90AF909F90E5
:1014CE00089540912E38242F30E0A0912838B09105
:1014DE002938AC0FBD1FE0917738F0917838EB0DBD
:1014EE00F11D2115310539F02E0F3F1F9D9191935E
:1014FE002E173F07D9F7B40E552309F4B7CF8F73C4
:10150E0009F499CFE0917738F0917838A09173383B
:10151E00B0917438EB0DF11D9F01280F311D9D9177
:10152E009193E217F307D9F7B80E85CF892D8F77F0
:10153E00833010F480E0B9CF9F012D5F3F4F209391
:10154E0075383093763820917738309178382093EB
:10155E007338309374386DEF680F60932E38818135
:10156E00928110922D38E0912A38F0912B389827DD
:10157E00892798270995982F907C51F4E091773818
:10158E00F091783881E0808390CFBB24B39487CFDD
:10159E008F738BCF81E020912D3890912E382917A3
:1015AE0008F080E0089570912D38A72FB0E0262F17
:1015BE0030E0FD01E20FF31F40912E3850E04E1740
:1015CE005F07B4F04091753850917638A40FB51F6F
:1015DE002115310541F0FC01280F391F8D918193A2
:1015EE00E217F307D9F7670F60932D3881E008955E
:1015FE0080E00895E0917538F091763881E080931F
:10160E002D3880810895E0917538F091763880916B
:10161E002D3891E0980F90932D38E80FF11D8081B1
:10162E000895E0917538F091763820912D38E20FBB
:10163E00F11D6081862F90E0A0E0B0E0B82FAA27C0
:10164E00992788273381832B3181A32B3281BC01CB
:10165E00CD01732B2C5F20932D380895E0917338B4
:10166E00F0917438808381E080932C3808954091F6
:10167E002C38E42FF0E0262F30E0DF01A20FB31F4D
:10168E009397ACF4A0917338B0917438EA0FFB1FA6
:10169E002115310541F0DC012E0F3F1F8D918193F5
:1016AE00E217F307D9F7640F60932C380895089565
:1016BE00CF93DF93409173385091743820912C382A
:1016CE00FC0103C0292F923280F491E0920FDF01CA
:1016DE008191EA01C20FD11D88838C918111F2CFC5
:1016EE0090932C38DF91CF91089590932C38DF9101
:1016FE00CF91089590912C38292F30E02132310569
:10170E005CF440917338509174389F5F90932C38ED
:10171E00FA01E20FF31F8083089530912C3822E0F6
:10172E00230F223250F4E0917338F0917438E30FA6
:10173E00F11D9083818320932C3808954091733846
:10174E005091743820912C38FA01E20FF11D9083DC
:10175E0091E0920FFA01E90FF11D808382E0820F72
:10176E00FA01E80FF11D708384E0820F80932C380C
:10177E002D5FFA01E20FF11D6083089520912C3840
:10178E00222351F0E0917338F091743890819111C9
:10179E0002C02083922F892B0895809175389091E5
:1017AE007638089580917338909174380895E0E0FA
:1017BE00F8E020EC26834087518780932A38909357
:1017CE002B3860938238709383382AE020937938CF
:1017DE008093803890938138089580937938089556
:1017EE0010927C3810927A3810927B3880912A3879
:1017FE0090912B3880938038909381380895809300
:10180E007D38809182389091833880937E38909382
:10181E007F38089590917B38983C98F59F5F909310
:10182E007B38983C41F1A0918038B09181388091FD
:10183E007C3830917A3803C090E08317A0F4209161
:10184E00040827FF26C090910008FD01E80FF11D46
:10185E0090838F5F813081F73111EECF3C913F77CE
:10186E0090E0831760F380937C3810927B3830932E
:10187E007A3882E0089580917C38882391F083E055
:10188E00089510927C3810927A3810927B3880E04E
:10189E00089580937C3890937B3830937A3881E02A
:1018AE00911180E0089580917D388823A9F0909160
:1018BE00040895FF11C0E0917E38F0917F38919128
:1018CE0090930208815051F410927D38E0937E3847
:1018DE00F0937F3882E0089580E008959091040897
:1018EE0095FDEDCF80937D38E0937E38F0937F3871
:1018FE0081E00895EF92FF920F931F93CF93DF93A2
:10190E007B01890140937D3880937E3890937F3898
:10191E00C42F242F80917E3890917F3809C020915A
:10192E00040825FD0CC02C2F0115110509F04BC024
:10193E00CC23D1F33091040835FFF6CFFC01819111
:10194E0080930208C150CF0151F710927D38E09379
:10195E007E38F0937F3810927C3810927A3810923D
:10196E007B38E0928038F0928138809179388823E4
:10197E0079F0F12C90E040E0983C90F49F5F9093CA
:10198E007B38983C61F580917C38882379F0C82F9C
:10199E008C2FDF91CF911F910F91FF90EF900895B3
:1019AE0010927C3810927A3810927B3801151105FE
:1019BE00E1F1D1E0D40FF80109954D2F4F3FC1F160
:1019CE0090917B38D9CF20937D3880937E38909339
:1019DE007F38F8010995C0917D382C2F9BCFA091AF
:1019EE008038B091813880917C3830917A3803C03C
:1019FE008317A0F490E02091040827FF20C0909157
:101A0E000008FD01E80FF11D90838F5F813081F793
:101A1E003111EECF3C913F77831760F330937A38D4
:101A2E0080937C3810927B38B2CF4F5F4F3F41F698
:101A3E00F39480917938F81608F49CCFA9CF30939F
:101A4E007A3880937C3890937B389111AFCF011503
:0C1A5E00110511F0D1E0AFCF41E090CFB6
:101A6A000A010101B33800000B020102B13800007B
:101A7A000C010101B038000001040104B43800006F
:081A8A0002010101AF38000068
:041A92000000000050
:0400000300000400F5
:00000001FF
