:100400000C943E020C945B020C945B020C945B0215
:100410000C945B020C945B020C945B020C945B02E8
:100420000C945B020C945B020C945B020C945B02D8
:100430000C945B020C945B020C945B020C945B02C8
:100440000C945B020C945B020C945B020C945B02B8
:100450000C945B020C945B020C945B020C945B02A8
:100460000C945B020C945B020C945B020C945B0298
:100470000C945B020C945B020C945B0211241FBE73
:10048000CFEFCDBFDFE3DEBF18E3A0E0B8E3EEE4DB
:10049000FDE002C005900D92A430B107D9F729E321
:1004A000A4E0B8E301C01D92A930B207E1F70E94B1
:1004B0002B060C949D060C94000281E0089508958B
:1004C00008958F92AF92BF92CF92DF92EF920F93E7
:1004D0008DE592E09F938F938FE592E09F938F93AA
:1004E00080E692E09F938F9387E098E39F938F93AA
:1004F000812C87E0A82E88E3B82E98E0C92E98E3D7
:10050000D92EEE24E39401E021E031E040E050E018
:1005100068E473E48DE49AE50E94B51381E080936A
:100520000838809307388DB79EB708968DBF9EBF59
:100530000F91EF90DF90CF90BF90AF908F900C9481
:100540001603843030F0FB0121819091083829177F
:1005500011F080E008959281907F903CD1F79091C6
:1005600004389F5F90930438843049F02FEF30E0D7
:10057000913039F0923069F720930038EACF238127
:10058000F7CF20930138E5CF81152FEF920711F0B7
:100590000C9400141092043880E008950F93CF93C8
:1005A000DF9300D0CDB7DEB7809101389091063847
:1005B000891769F08F3F71F102E022E041E060E0CD
:1005C00090E00E9411068091013880930638809156
:1005D000003890910538891769F08F3F89F000E065
:1005E00022E040E060E490E00E9411068091003833
:1005F000809305380F900F90DF91CF910F91089560
:1006000080E489838A8340E062E0CE0101960E9403
:100610001B03ECCF80E489838A8342E062E0CE0151
:1006200001960E941B03CFCF0C94020505980698F3
:100630000D980E980895069A21E22A95F1F7000088
:1006400038E020E40DC0069A51E25A95F1F7000017
:10065000059851E25A95F1F700002695315049F07E
:10066000059A51E25A95F1F7000020FFECCF069869
:10067000EBCF059A069821E22A95F1F7000005983C
:1006800031E23A95F1F70000069A51E25A95F1F7F6
:100690000000059A21E22A95F1F70000069A31E25E
:1006A0003A95F1F70000059851E25A95F1F70000EC
:1006B000069821E22A95F1F70000069A31E23A9570
:1006C000F1F700004370405428E00DC0069A31E273
:1006D0003A95F1F70000059851E25A95F1F70000BC
:1006E0004695215049F0059A51E25A95F1F70000DC
:1006F00040FFECCF0698EBCF059A069821E22A95A9
:10070000F1F70000059831E23A95F1F70000069AFA
:1007100041E24A95F1F70000059A51E25A95F1F746
:1007200000006623C9F1FC016150262F30E02F5FE5
:100730003F4F280F391F919188E00DC0069A41E282
:100740004A95F1F70000059851E25A95F1F700003B
:100750009695815049F0059A51E25A95F1F70000BB
:1007600090FFECCF0698EBCF059A069881E28A9528
:10077000F1F70000059841E24A95F1F70000069A6A
:1007800051E25A95F1F70000059A81E28A95F1F756
:100790000000E217F30779F6069A81E28A95F1F7ED
:1007A0000000059821E22A95F1F70000069831E251
:1007B0003A95F1F70000069A41E24A95F1F70000F8
:1007C000809102388F70805898E00DC0069A31E20F
:1007D0003A95F1F70000059841E24A95F1F70000DB
:1007E0008695915049F0059A21E22A95F1F700008B
:1007F00080FFECCF0698EBCF059A069851E25A9508
:10080000F1F70000059881E28A95F1F70000069A59
:1008100021E22A95F1F70000059A31E23A95F1F7C5
:100820000000069A41E24A95F1F70000059851E26E
:100830005A95F1F70000069881E28A95F1F70000D9
:1008400008957F928F929F92AF92BF92CF92DF9244
:10085000EF92FF920F931F93CF93DF9300D000D0BE
:10086000CDB7DEB7FB0187FDC2C010E03097A1F520
:10087000222309F468C0002309F4BCC0C82E880FE5
:10088000DD08CE0101965C019E01200F311D4E0155
:100890008FE3F82E90E4792E10C0D901FC923097A6
:1008A00009F49EC0CF01B6010E948906FB012150C8
:1008B00031092815390509F463C0CF01B6010E943A
:1008C0008906882351F38F70A82FB0E0A25CB2474D
:1008D0008C91D9018C93E6CF002309F48BC0C82EEC
:1008E000880FDD082111CDCFCE0101965C019E015C
:1008F000200F311D4E0150E4752E6FE3F62E12C00D
:100900008F70A82FB0E0A25CB2478C91D9018C9374
:10091000CF01B6010E948906FB012150310928153B
:10092000390571F1CF01B6010E9489068111E8CF26
:10093000D901309709F052C01C92112349F3D90113
:100940007C9210E0E5CF602F70E0615071091616BF
:1009500017060CF053C080E090E020E0DE01119615
:100960005D01F501E80FF91F10822F5F822F90E0E3
:1009700086179707B4F3F501E60FF71F8FE380831F
:100980004423B1F0842F80789981892B8983440F87
:10099000842F80789A81892B8A83440F842F8078D2
:1009A0009B81892B8B83440F40788C81482B4C830F
:1009B0004E2D602FC5010E941B032496CDBFDEBFC4
:1009C000DF91CF911F910F91FF90EF90DF90CF902B
:1009D000BF90AF909F908F907F900895FC9298CF9A
:1009E000112309F45FCFD9017C9210E05BCF819590
:1009F00011E03CCFFE0131965F01C2CFCE010196DE
:100A00005C01B9CFCF93DF9300D000D0CDB7DEB774
:100A100019821A821B821C82069A21E22A95F1F71A
:100A2000000098E080E40DC0069A21E22A95F1F7D3
:100A30000000059841E24A95F1F700008695915033
:100A400049F0059A41E24A95F1F7000080FFECCFAA
:100A50000698EBCF059A069881E28A95F1F7000097
:100A6000059821E22A95F1F70000069A41E24A959D
:100A7000F1F70000059A81E28A95F1F70000069AE5
:100A800021E22A95F1F70000059841E24A95F1F735
:100A90000000069881E28A95F1F70000069A21E2AB
:100AA0002A95F1F7000098E080EC0DC0069A21E24B
:100AB0002A95F1F70000059841E24A95F1F7000008
:100AC0008695915049F0059A41E24A95F1F7000068
:100AD00080FFECCF0698EBCF059A069881E28A95C5
:100AE000F1F70000059821E22A95F1F70000069A37
:100AF00041E24A95F1F70000059A81E28A95F1F703
:100B00000000FE0131969E012B5F3F4F919188E0DE
:100B10000DC0069A41E24A95F1F70000059841E2BE
:100B20004A95F1F700009695815049F0059A41E207
:100B30004A95F1F7000090FFECCF0698EBCF059AAD
:100B4000069881E28A95F1F70000059841E24A95FE
:100B5000F1F70000069A81E28A95F1F70000059A04
:100B600041E24A95F1F700002E173F0779F6069A01
:100B700081E28A95F1F70000059821E22A95F1F7C4
:100B80000000069841E24A95F1F70000069A81E2DA
:100B90008A95F1F70000809102388F70805898E0B4
:100BA0000DC0069A41E24A95F1F70000059821E24E
:100BB0002A95F1F700008695915049F0059A21E2B7
:100BC0002A95F1F7000080FFECCF0698EBCF059A4D
:100BD000069841E24A95F1F70000059881E28A956E
:100BE000F1F70000069A21E22A95F1F70000059A34
:100BF00041E24A95F1F70000069A81E28A95F1F701
:100C00000000059821E22A95F1F70000069841E2DC
:100C10004A95F1F700002496CDBFDEBFDF91CF915A
:100C20000895EF920F93362FBC0197FD0CC097FDEE
:100C300010C08AE0E02E022F242F432F0E942104AF
:100C40000F91EF90089566277727681B790B97FF20
:100C5000F0CF86EFEFCF40E068ED81E690E00E94B4
:100C60008506239880913304877F80933304229AEA
:100C70002A9A0798809117048860809317048091BE
:100C80001704887F83608093170440E550E069E093
:100C900078E389E898E30E945E1221EA32E044ECAE
:100CA00052E069E078E389E898E30E9400100E942E
:100CB000610204C08091090487FD11C00E94911255
:100CC000C82F0E94DA12C230C9F0C111F3CF8111CE
:100CD000F1CF0E94CE028091090487FFEFCF0E94DE
:100CE000140341E068ED81E490E00E9485060E94D3
:100CF0009112C82F0E94DA12C23039F70E941110E7
:100D00000E9486120E947712D5CFFC0164BF4083F7
:100D10000895AA1BBB1B51E107C0AA1FBB1FA61742
:100D2000B70710F0A61BB70B881F991F5A95A9F794
:0E0D300080959095BC01CD010895F894FFCFF9
:100D3E003F065B4F666D7D077F6F777C395E7971FD
:040D4E00FFFF09009A
:102000008093523E9093533E6093503E7093513E66
:102010004093023E5093033E2093003E3093013E96
:1020200008959F92AF92BF92CF92DF92EF92FF926C
:102030000F931F93CF93DF93E091023EF091033E05
:1020400060E080E09FEF0995E091523EF091533EB1
:10205000908097FCCBC081E0891508F0F6C0DF01C5
:10206000119681818093073E882309F4EEC0E92C04
:10207000F12C282F30E02E153F050CF0E6C0C1E012
:10208000D0E0BB24B394AA24A3940AE21EE398E010
:10209000C92E9EE3D92E00934E3E10934F3EC09220
:1020A0004C3ED0924D3E1092063E1092053E0AE202
:1020B0001EE3F801265D314C9D919193E217F307E1
:1020C000D9F7E091003EF091013E48E05EE36AE21C
:1020D0007EE30995582F507C87FF53C04091073EFF
:1020E0008F7309F06FC05038C9F4842F90E02091AD
:1020F000523E3091533EC20FD31FE091503EF091BB
:10210000513EEB0DF11D009741F09F01280F391F43
:10211000999191932E173F07D9F7B40EA40EA914E5
:10212000B0F4CA2DD0E0A091523EB091533EAC0F16
:10213000BD1F8C918093073E882349F0282F30E003
:10214000A9014C0F5D1FE416F5060CF0A4CFE09139
:10215000503EF091513EB082E091023EF091033E3C
:1021600060E08FEF9FEF09958B2DDF91CF911F914D
:102170000F91FF90EF90DF90CF90BF90AF909F9026
:1021800008954091073E242F30E0A091523EB09137
:10219000533EAC0FBD1FE091503EF091513EEB0D10
:1021A000F11D2115310539F02E0F3F1F9D9191939F
:1021B0002E173F07D9F7B40E552309F4AFCF8F730D
:1021C00009F491CFE091503EF091513EA0914C3EE8
:1021D000B0914D3EEB0DF11D9F01280F311D9D91DA
:1021E0009193E217F307D9F7B80E7DCF892D8F773A
:1021F000833010F480E0B9CF9F012D5F3F4F2093D3
:102200004E3E30934F3E2091503E3091513E2093B0
:102210004C3E30934D3E6DEF680F6093073E8181D9
:1022200092811092063EE091023EF091033E982783
:10223000892798270995982F907C51F4E091503E7A
:10224000F091513E81E0808390CFBB24B3947FCF47
:102250008F738BCF81E02091063E9091073E291726
:1022600008F080E008957091063EA72FB0E0262F79
:1022700030E0FD01E20FF31F4091073E50E04E17A2
:102280005F07B4F040914E3E50914F3EA40FB51FF2
:102290002115310541F0FC01280F391F8D918193E3
:1022A000E217F307D9F7670F6093063E81E00895C0
:1022B00080E00895E0914E3EF0914F3E81E08093A2
:1022C000063E80810895E0914E3EF0914F3E809110
:1022D000063E91E0980F9093063EE80FF11D808135
:1022E0000895E0914E3EF0914F3E2091063EE20F60
:1022F000F11D6081862F90E0A0E0B0E0B82FAA2702
:10230000992788273381832B3181A32B3281BC010C
:10231000CD01732B2C5F2093063E08954091053E1E
:10232000E42FF0E0262F30E0DF01A20FB31F9397D8
:10233000ACF4A0914C3EB0914D3EEA0FFB1F21152D
:10234000310541F0DC012E0F3F1F8D918193E21783
:10235000F307D9F7640F6093053E08950895CF936E
:10236000DF9340914C3E50914D3E2091053EFC0143
:1023700003C0292F923280F491E0920FDF01819106
:10238000EA01C20FD11D88838C918111F2CF909305
:10239000053EDF91CF9108959093053EDF91CF9157
:1023A00008959091053E292F30E0213231055CF4EB
:1023B00040914C3E50914D3E9F5F9093053EFA01F7
:1023C000E20FF31F808308953091053E22E0230F32
:1023D000223250F4E0914C3EF0914D3EE30FF11D5E
:1023E000908381832093053E089540914C3E509107
:1023F0004D3E2091053EFA01E20FF11D908391E0E0
:10240000920FFA01E90FF11D808382E0820FFA0139
:10241000E80FF11D708384E0820F8093053E2D5FED
:10242000FA01E20FF11D60830895E0914C3EF091B6
:102430004D3E81E08093053E10821092043E089547
:102440008091043E882381F08091053E8093043E74
:10245000E0914C3EF0914D3E91E0980F9093053EF7
:10246000E80FF11D108208958091053E813071F7CB
:1024700008959091043EE0914C3EF0914D3EE90F5D
:10248000F11D8091053E891B808308959091053E42
:10249000992349F0E0914C3EF0914D3E208121116D
:1024A00001C09083892B089580914E3E90914F3EBC
:1024B000089580914C3E90914D3E0895E0E0F8E003
:1024C00020EC26834087518780935F3E9093603E47
:1024D00060935D3E70935E3E2AE02093543E80936D
:1024E0005B3E90935C3E08958093543E0895109215
:1024F000573E1092553E1092563E80915F3E90910D
:10250000603E80935B3E90935C3E08958093583E7E
:1025100080915D3E90915E3E8093593E90935A3EED
:1025200008959091563E983C98F59F5F9093563E43
:10253000983C41F1A0915B3EB0915C3E8091573E4A
:102540003091553E03C090E08317A0F42091040819
:1025500027FF26C090910008FD01E80FF11D908330
:102560008F5F813081F73111EECF3C913F7790E062
:10257000831760F38093573E1092563E3093553E3A
:1025800082E008958091573E882391F083E008957A
:102590001092573E1092553E1092563E80E008959C
:1025A0008093573E9093563E3093553E81E0911173
:1025B00080E008958091583E8823A9F09091040806
:1025C00095FF11C0E091593EF0915A3E9191909340
:1025D0000208815051F41092583EE093593EF09316
:1025E0005A3E82E0089580E008959091040895FD98
:1025F000EDCF8093583EE093593EF0935A3E81E0F0
:102600000895EF92FF920F931F93CF93DF937B0177
:1026100089014093583E8093593E90935A3EC42F6F
:10262000242F8091593E90915A3E09C02091040870
:1026300025FD0CC02C2F0115110509F04BC0CC2332
:10264000D1F33091040835FFF6CFFC0181918093DE
:102650000208C150CF0151F71092583EE093593E05
:10266000F0935A3E1092573E1092553E1092563EAD
:10267000E0925B3EF0925C3E8091543E882379F07C
:10268000F12C90E040E0983C90F49F5F9093563E90
:10269000983C61F58091573E882379F0C82F8C2FA4
:1026A000DF91CF911F910F91FF90EF9008951092BD
:1026B000573E1092553E1092563E01151105E1F11C
:1026C000D1E0D40FF80109954D2F4F3FC1F1909102
:1026D000563ED9CF2093583E8093593E90935A3E10
:1026E000F8010995C091583E2C2F9BCFA0915B3EDD
:1026F000B0915C3E8091573E3091553E03C08317A8
:10270000A0F490E02091040827FF20C090910008D9
:10271000FD01E80FF11D90838F5F813081F731114A
:10272000EECF3C913F77831760F33093553E809313
:10273000573E1092563EB2CF4F5F4F3F41F6F39453
:102740008091543EF81608F49CCFA9CF3093553EA3
:102750008093573E9093563E9111AFCF01151105CE
:1027600011F0D1E0AFCF41E090CF8F92AF92BF9206
:10277000CF92DF92EF920F93CF93DF93CDB7DEB777
:102780006093743E7093753E8093763E9093773E4F
:102790002093703E3093713E4093723E5093733E4F
:1027A00000936F3EE0926E3EC0926C3ED0926D3EC2
:1027B000A0926A3EB0926B3E8092693E8C859D8568
:1027C0008093673E9093683E8E859F858093653E9B
:1027D0009093663E888999898093633E9093643E86
:1027E0008A899B898093613E9093623EDF91CF916D
:1027F0000F91EF90DF90CF90BF90AF908F900895A2
:102800001F93CF93DF93C62F8F3429E4920709F4E7
:10281000E4C090F0893420E5920709F4FDC08335C7
:1028200020E5920791F18734904509F495C080E046
:10283000DF91CF911F910895893428E4920709F41C
:10284000C0C0893429E4920709F44AC08934964407
:1028500071F70E9415126091743E7091753E8091DF
:10286000763E9091773E0E94F5116091703E709196
:10287000713E8091723E9091733E0E94F51180EC02
:10288000DF91CF911F910C9446120E9415120E9465
:102890002A118823A1F30E946311C82F4091693E39
:1028A0004423A9F0A091673EB091683E8C91C8176F
:1028B000B1F1CD01089620E007C0DC010896FC01CB
:1028C00038973081C31759F12F5F2413F6CF80E07A
:1028D0000E94D11180ECDF91CF911F910C94461290
:1028E0000E94151260916F3ECC2391F06C1710F48A
:1028F000662371F00E946311E0916C3EF0916D3E91
:102900008083E091653EF091663E099560916F3E4F
:1029100080916C3E90916D3E0E948E11B0CF1396C7
:102920006C91139714968D919C9115970E94331179
:10293000811102C08FEFCCCFE091613EF091623EF9
:102940008C2F09958823B1F38C2F0E94D111C1508F
:10295000CE3F08F49CCF93CF0E9415120E942A11FB
:10296000882309F48CCF0E9463115091693E55234E
:10297000A9F3A091673EB091683E4C91841709F489
:102980007BC09D01285F3F4F90E09F5F951731F31B
:10299000E901CA1BDB0B285F3F4FF90138974081E3
:1029A0008413F3CF842F0E94D1118091673E9091C0
:1029B000683EC80FD91F6B818C819D810E948E114A
:1029C000CDCF0E941512C0E0D3E189910E94D111B0
:1029D000C03183E1D807C9F752CF0E941512609128
:1029E0006E3ECC2391F06C1710F4662371F00E94B8
:1029F0006311E0916A3EF0916B3E8083E091633E0B
:102A0000F091643E099560916E3E80916A3E90918E
:102A10006B3E0E948E1133CF0E941512C1112FC040
:102A20008091693E882309F42ACF10E0C12FD0E0BD
:102A3000CC0FDD1FCC0FDD1FCC0FDD1FE091673EFB
:102A4000F091683EEC0FFD1F80810E94D1118091B2
:102A5000673E9091683EC80FD91F898120E1829F0F
:102A6000C00111249A81892B0E94D1111F5F80918E
:102A7000693E1817D8F203CFC0E0D0E093CFC13041
:102A800009F0FDCE0E9463115091693E5523B9F0C3
:102A9000E091673EF091683E90818917A1F09F0117
:102AA000285F3F4F90E008C0F901285F3F4FD901F0
:102AB00018974C91841739F09F5F9513F5CF80E0FC
:102AC0000E94D111B4CE868197810E94AF11D7CEDA
:020000040100F9
:103E000000000000000000000000000000000000B2
:103E100000000000000000000000000000000000A2
:103E20000000000000000000000000000000000092
:103E30000000000000000000000000000000000082
:103E40000000000000000000000000000000000072
:103E50000000000000000000000000000000000062
:103E60000000000000000000000000000000000052
:083E700000000000000000004A
:0400000300000400F5
:00000001FF
