:100400000C943E020C945B020C945B020C945B0215
:100410000C945B020C945B020C945B020C945B02E8
:100420000C945B020C945B020C945B020C945B02D8
:100430000C945B020C945B020C945B020C945B02C8
:100440000C945B020C945B020C945B020C945B02B8
:100450000C945B020C945B020C945B020C945B02A8
:100460000C945B020C945B020C945B020C945B0298
:100470000C945B020C945B020C945B0211241FBE73
:10048000CFEFCDBFDFE3DEBF18E3A0E0B8E3E0E8E5
:10049000FAE102C005900D92A832B107D9F729E31D
:1004A000A8E2B8E301C01D92A834B207E1F70E94A8
:1004B00080050C94FA070C940002089508958F9219
:1004C0009F92AF92BF92CF92DF92EF92FF92609194
:1004D00042387091433880914438909145380E9459
:1004E000AF068090423890904338A0904438B09046
:1004F00045386B01770FEE08FF08C701B6010E946F
:10050000E7069B01AC01C501B4010E94D00520E0C3
:1005100030E048E453E40E9473070E94B6066093FB
:100520003E38C0923F38D09240386701EE24FF2415
:10053000C092413880914138811107C080913F3885
:100540009091403881389E4368F181E080932A3849
:100550001092393810923A3810923B3810923C3849
:100560001092313810923238109233381092343859
:100570001092353810923638109237381092383839
:1005800010922D3810922E3810922F381092303849
:1005900081E0FF90EF90DF90CF90BF90AF909F9061
:1005A0008F90089510922A38209142383091433824
:1005B000409144385091453860E070E08AEF96E40D
:1005C0000E943D060E94B6066093393870933A380F
:1005D00080933B3890933C3880913E38811138C0ED
:1005E00010922838A0913D382091393830913A380E
:1005F00040913B3850913C38B0E00E94E007BB2767
:10060000A92F982F872F8093313890933238A09359
:100610003338B09334388091393890913A38A0917A
:100620003B38B0913C38409131385091323860912C
:10063000333870913438841B950BA60BB70B80931D
:10064000353890933638A0933738B093383898CFF0
:1006500080913F38909140388F3F910509F000F626
:1006600081E080932838BECF8F929F92AF92BF9245
:10067000CF92DF92EF92FF920F93CF938FE592E0AC
:100680009F938F9380E098E39F938F9385E08F9360
:100690003DE5832E32E0932E46E4A42E48E3B42EAB
:1006A0005EE5C52E52E0D52E67E4E62E68E3F62E11
:1006B00001E021E030E040E050E068E473E48DE4E4
:1006C0009AE50E94870BC1E0C0934738C093463833
:1006D00080E090E0A0E8BFE38093423890934338F5
:1006E000A0934438B093453880E880933D386091BA
:1006F00042387091433880914438909145380E9437
:10070000AF068090423890904338A0904438B09023
:1007100045386B01770FEE08FF08C701B6010E944C
:10072000E7069B01AC01C501B4010E94D00520E0A1
:1007300030E048E453E40E9473070E94B6066093D9
:100740003E38C0923F38D09240386701EE24FF24F3
:10075000C0924138809141380F900F900F900F90C8
:100760000F90811107C080913F38909140388138B7
:100770009E4370F181E080932A38109239381092AC
:100780003A3810923B3810923C381092313810921F
:100790003238109233381092343810923538109223
:1007A0003638109237381092383810922D3810920F
:1007B0002E3810922F3810923038CF910F91FF9031
:1007C000EF90DF90CF90BF90AF909F908F90089563
:1007D00010922A3820914238309143384091443861
:1007E0005091453860E070E08AEF96E40E943D0643
:1007F0000E94B6066093393870933A3880933B383C
:1008000090933C3880913E38811138C0109228383E
:10081000A0913D382091393830913A3840913B3899
:1008200050913C38B0E00E94E007BB27A92F982FD9
:10083000872F8093313890933238A0933338B09318
:1008400034388091393890913A38A0913B38B09142
:100850003C38409131385091323860913338709142
:100860003438841B950BA60BB70B809335389093C7
:100870003638A0933738B093383897CF80913F38C7
:10088000909140388F3F910509F000F6C0932838C9
:10089000BFCF0F931F93CF93DF93853031F080E06C
:1008A000DF91CF911F910F910895FB0182818E3FBF
:1008B000B1F7EB0180E00E948509809146380E94E3
:1008C000D30980913D38882309F4DBC080913D38FD
:1008D0008F3F09F406C180912A388111B6C020915A
:1008E0002B3830912C388B819C8198278927982729
:1008F000820F931F80932B3890932C3880912B3844
:1009000090912C38803A9F4050F280912B389091F2
:100910002C38803A9F4028F180912B3890912C38C8
:10092000805A9F4080932B3890932C3880912D389B
:1009300090912E38A0912F38B09130388056904F3A
:10094000AF4FBF4F80932D3890932E38A0932F3800
:10095000B093303880912B3890912C38803A9F405A
:10096000D8F69091293880912938C0E0D0E08823CA
:10097000A9F100912D3810912E3820912F38309107
:10098000303840913138509132386091333870911D
:100990003438041715072607370708F474C0009188
:1009A00031381091323820913338309134384091B9
:1009B0002D3850912E3860912F3870913038401B6F
:1009C000510B620B730B40932D3850932E3860936C
:1009D0002F387093303821961092293800912D3895
:1009E00010912E3820912F38309130384091353881
:1009F00050913638609137387091383804171507A0
:100A00002607370708F43FC0009135381091363873
:100A1000209137383091383840912D3850912E3808
:100A200060912F3870913038401B510B620B730B63
:100A300040932D3850932E3860932F387093303870
:100A4000219681E08093293894CF87EB0E94D309C7
:100A500080914138882321F0809141380E94D30948
:100A600080913F38909140380E94E60980913D384E
:100A70000E94D30980E4DF91CF911F910F910C94D4
:100A8000170A80EBF5CF992351F182E09091293834
:100A9000892B20913F38309140382F3F310509F0A4
:100AA00030F520913F38309140382B303105D8F463
:100AB0008C6B0E94D309CE01969587950E94D3092D
:100AC00080913F38909140380E94D3098091283816
:100AD000882361F280913E380E94D309C7CF80E01D
:100AE000D5CF83EBC5CF886B0E94D309E4CF886B49
:100AF0000E94D309CE01969587950E94E609B0CF52
:100B000040E068ED81E690E00E94CC05239880915A
:100B10003304877F80933304229A2A9A079880911E
:100B2000170488608093170480911704887F83607E
:100B30008093170440E550E068E478E388EC98E39C
:100B40000E94300A29E434E041ED5BE068E478E398
:100B500088EC98E30E940D080E94340306C00E94AE
:100B6000AC0A8091090487FD10C00E94630A82309C
:100B7000B1F70E941E080E94580A0E94490A0E946A
:100B8000AC0A8091090487FFF0CF41E068ED81E471
:100B900090E00E94CC05E9CFFC0164BF408308953A
:100BA0005058BB27AA270E94E8050C9439070E94D9
:100BB0002B0738F00E94320720F039F49F3F19F4D8
:100BC00026F40C9428070EF4E095E7FB0C9422071A
:100BD000E92F0E944A0758F3BA1762077307840780
:100BE000950720F079F4A6F50C946C070EF4E095C7
:100BF0000B2EBA2FA02D0B01B90190010C01CA01D7
:100C0000A0011124FF27591B99F0593F50F4503E81
:100C100068F11A16F040A22F232F342F4427585F73
:100C2000F3CF469537952795A795F0405395C9F78B
:100C30007EF41F16BA0B620B730B840BBAF0915043
:100C4000A1F0FF0FBB1F661F771F881FC2F70EC0E2
:100C5000BA0F621F731F841F48F4879577956795B5
:100C6000B795F7959E3F08F0B0CF9395880F08F0A1
:100C70009927EE0F9795879508950E9451060C9439
:100C800039070E94320758F00E942B0740F029F4E0
:100C90005F3F29F00C94220751110C946D070C94BE
:100CA00028070E944A0768F39923B1F3552391F36B
:100CB000951B550BBB27AA2762177307840738F0CB
:100CC0009F5F5F4F220F331F441FAA1FA9F335D028
:100CD0000E2E3AF0E0E832D091505040E695001CDC
:100CE000CAF72BD0FE2F29D0660F771F881FBB1F96
:100CF000261737074807AB07B0E809F0BB0B802D74
:100D0000BF01FF2793585F4F3AF09E3F510578F09F
:100D10000C9422070C946D075F3FE4F3983ED4F3E4
:100D2000869577956795B795F7959F5FC9F7880F73
:100D3000911D9695879597F90895E1E0660F771FC5
:100D4000881FBB1F621773078407BA0720F0621B56
:100D5000730B840BBA0BEE1F88F7E09508950E9481
:100D6000B6066894B1110C946D0708950E9452075D
:100D700088F09F5798F0B92F9927B751B0F0E1F05C
:100D8000660F771F881F991F1AF0BA95C9F714C00C
:100D9000B13091F00E946C07B1E008950C946C079B
:100DA000672F782F8827B85F39F0B93FCCF3869545
:100DB00077956795B395D9F73EF4909580957095A2
:100DC00061957F4F8F4F9F4F0895E89409C097FB1F
:100DD0003EF490958095709561957F4F8F4F9F4F12
:100DE0009923A9F0F92F96E9BB279395F695879556
:100DF00077956795B795F111F8CFFAF4BB0F11F419
:100E000060FF1BC06F5F7F4F8F4F9F4F16C08823BF
:100E100011F096E911C0772321F09EE8872F762FF5
:100E200005C0662371F096E8862F70E060E02AF036
:100E30009A95660F771F881FDAF7880F9695879522
:100E400097F9089597F99F6780E870E060E008954A
:100E50009FEF80EC089500240A94161617061806D2
:100E60000906089500240A941216130614060506AE
:100E70000895092E0394000C11F4882352F0BB0F3F
:100E800040F4BF2B11F460FF04C06F5F7F4F8F4FA2
:100E90009F4F089557FD9058440F551F59F05F3FDD
:100EA00071F04795880F97FB991F61F09F3F79F08C
:100EB00087950895121613061406551FF2CF46950E
:100EC000F1DF08C0161617061806991FF1CF869590
:100ED0007105610508940895E894BB276627772774
:100EE000CB0197F908950E9486070C9439070E9458
:100EF0002B0738F00E94320720F0952311F00C9454
:100F000022070C94280711240C946D070E944A07AD
:100F100070F3959FC1F3950F50E0551F629FF0014C
:100F2000729FBB27F00DB11D639FAA27F00DB11D65
:100F3000AA1F649F6627B00DA11D661F829F2227EE
:100F4000B00DA11D621F739FB00DA11D621F839F75
:100F5000A00D611D221F749F3327A00D611D231F4B
:100F6000849F600D211D822F762F6A2F11249F5799
:100F700050409AF0F1F088234AF0EE0FFF1FBB1F9C
:100F8000661F771F881F91505040A9F79E3F51055B
:100F900080F00C9422070C946D075F3FE4F3983EB9
:100FA000D4F3869577956795B795F795E7959F5F05
:100FB000C1F7FE2B880F911D9695879597F9089597
:100FC0000E94EB07A59F900DB49F900DA49F800DEC
:100FD000911D11240895A29FB001B39FC001A39F4A
:100FE000700D811D1124911DB29F700D811D112462
:080FF000911D0895F894FFCF54
:100FF800442371F0FB01DC014150242F30E02F5FC6
:101008003F4F260F371F81918D93E217F307D9F7CA
:1010180008958093793890937A38609377387093ED
:10102800783840932A3850932B38209328383093B7
:10103800293808959F92AF92BF92CF92DF92EF9294
:10104800FF920F931F93CF93DF93E0917938F0913C
:101058007A38908097FCBBC081E0891508F0E6C01B
:10106800218120932E38222309F4E0C0E92CF12CA9
:10107800822F90E08E159F050CF0D8C0C1E0D0E01B
:10108800AA24A394BB24B394319601E518E38FE214
:10109800C82E88E3D82E0093753810937638C092FE
:1010A8007338D092743810922D3810922C3801E58C
:1010B80018E3D80180E091919D938F5F8213FBCF55
:1010C800E0912838F09129384FE258E361E578E358
:1010D8000995682F607C87FF5DC020912E388F733B
:1010E800B9F0E0917338F0917438A0917738B091E5
:1010F8007838AA0DB11D4FEF480F50E04F5F5F4F92
:101108004E0F5F1F91919D93E417F507D9F7A80E2D
:101118006038B9F44091793850917A38E09177384D
:10112800F09178388A2D90E0222351F0C40FD51F12
:10113800E80FF91F80E0999191938F5F8213FBCF9D
:10114800A20EB20EB914A0F4E0917938F0917A3871
:10115800CB2DD0E0EC0FFD1F208120932E382223C9
:1011680039F0CE01820F911DE816F9060CF093CFE5
:10117800E0917738F0917838A0828A2DDF91CF916D
:101188001F910F91FF90EF90DF90CF90BF90AF909D
:101198009F90089520912E38A0917938B0917A388F
:1011A800E0917738F09178384A2D50E0222351F0B9
:1011B800AC0FBD1FE40FF51F90E03D9131939F5F89
:1011C8002913FBCFA20E662309F4BBCF88CF892D44
:1011D8008F77833010F480E0D1CF9F012D5F3F4F90
:1011E8002093753830937638209177383091783855
:1011F80020937338309374386DEF680F60932E38EE
:101208008181928110922D38E0912A38F0912B3803
:101218009827892798270995982F907C51F4E09171
:101228007738F091783881E08083A8CFAA24A394F6
:101238009FCF8F73A3CF81E020912D3890912E38C6
:10124800291708F080E0089570912D38272F30E095
:10125800F901E60FF11D40912E3850E04E175F0757
:10126800D4F0A0917538B0917638662379F0A20F42
:10127800B31FFC012FEF260F30E02F5F3F4F280FE1
:10128800391F8D918193E217F307D9F7670F6093A0
:101298002D3881E0089580E00895E0917538F09147
:1012A800763881E080932D3880810895E0917538F3
:1012B800F091763880912D3891E0980F90932D38E1
:1012C800E80FF11D80810895E0917538F091763826
:1012D80020912D38E20FF11D6081862F90E0A0E06B
:1012E800B0E0B82FAA27992788273381832B31812B
:1012F800A32B3281BC01CD01732B2C5F20932D3899
:101308000895E0917338F0917438808381E0809378
:101318002C38089540912C38242F30E0F901E60F3D
:10132800F11DB397CCF4A0917338B091743866234B
:1013380079F0FC01A20FB31F2FEF260F30E02F5FCB
:101348003F4F280F391F81918D93E217F307D9F783
:10135800640F60932C3808950895CF93DF934091DC
:1013680073385091743820912C38FC0103C0292F10
:10137800923280F491E0920FDF018191EA01C20F6D
:10138800D11D88838C918111F2CF90932C38DF91F5
:10139800CF91089590932C38DF91CF910895909133
:1013A8002C38292F30E0213231055CF44091733814
:1013B800509174389F5F90932C38FA01E20FF31F15
:1013C8008083089530912C3822E0230F223250F484
:1013D800E0917338F0917438E30FF11D90838183A5
:1013E80020932C3808954091733850917438209187
:1013F8002C38FA01E20FF11D908391E0920FFA0167
:10140800E90FF11D808382E0820FFA01E80FF11DD8
:10141800708384E0820F80932C382D5FFA01E20FED
:10142800F11D6083089520912C38222351F0E0911A
:101438007338F09174389081911102C02083922FF3
:10144800892B089580917538909176380895809108
:101458007338909174380895E0E0F8E020EC268322
:101468004087518780938638909387386093843873
:10147800709385382AE020937B3880938238909344
:101488008338089580937B38089510927E3810929F
:101498007C3810927D388091863890918738809377
:1014A800823890938338089580937F388091843868
:1014B80090918538809380389093813808959091E1
:1014C8007D38983C98F59F5F90937D38983C41F122
:1014D800A0918238B091833880917E3830917C38E1
:1014E80003C090E08317A0F42091040827FF26C0CA
:1014F80090910008FD01E80FF11D90838F5F813006
:1015080081F73111EECF3C913F7790E0831760F37C
:1015180080937E3810927D3830937C3882E008952D
:1015280080917E38882391F083E0089510927E3868
:1015380010927C3810927D3880E0089580937E3830
:1015480090937D3830937C3881E0911180E0089544
:1015580080917F388823A9F09091040895FF11C0E5
:10156800E0918038F09181389191909302088150F0
:1015780051F410927F38E0938038F093813882E0FC
:10158800089580E008959091040895FDEDCF80932B
:101598007F38E0938038F093813881E00895EF92A6
:1015A800FF920F931F93CF93DF937B0189014093A1
:1015B8007F388093803890938138C42F242F80916E
:1015C80080389091813809C02091040825FD0CC00D
:1015D8002C2F0115110509F04BC0CC23D1F3309104
:1015E800040835FFF6CFFC01819180930208C150B1
:1015F800CF0151F710927F38E0938038F09381380B
:1016080010927E3810927C3810927D38E0928238A1
:10161800F092833880917B38882379F0F12C90E020
:1016280040E0983C90F49F5F90937D38983C61F53A
:1016380080917E38882379F0C82F8C2FDF91CF9145
:101648001F910F91FF90EF90089510927E3810929D
:101658007C3810927D3801151105E1F1D1E0D40FE5
:10166800F80109954D2F4F3FC1F190917D38D9CFA1
:1016780020937F388093803890938138F8010995BA
:10168800C0917F382C2F9BCFA0918238B09183389E
:1016980080917E3830917C3803C08317A0F490E0A5
:1016A8002091040827FF20C090910008FD01E80F51
:1016B800F11D90838F5F813081F73111EECF3C911E
:1016C8003F77831760F330937C3880937E3810928D
:1016D8007D38B2CF4F5F4F3F41F6F39480917B380E
:1016E800F81608F49CCFA9CF30937C3880937E38C5
:1016F80090937D389111AFCF0115110511F0D1E00C
:10170800AFCF41E090CF8F929F92AF92BF92CF928E
:10171800DF92EF92FF920F93CF93DF93CDB7DEB7AF
:1017280060939A3870939B3880939C3890939D3837
:101738002093963830939738409398385093993837
:1017480000939538E0929338F0929438A0929138AB
:10175800B0929238C0928F38D092903880928D385B
:1017680090928E388E8580938C388F859889809357
:101778008A3890938B3889899A898093883890938E
:101788008938DF91CF910F91FF90EF90DF90CF9044
:10179800BF90AF909F908F9008951F93CF93DF9342
:1017A800C62F8F3429E4920709F4E9C090F08934F0
:1017B80020E5920709F403C1833520E5920799F1E2
:1017C8008734904509F498C080E0DF91CF911F914C
:1017D8000895893428E4920709F4C4C0893429E4B7
:1017E800920709F44CC08934964471F780E00E944E
:1017F800850960919A3870919B3880919C389091B6
:101808009D380E94F70960919638709197388091B9
:101818009838909199380E94F70980ECDF91CF9120
:101828001F910C94170A80E00E9485090E941F09E5
:10183800882399F30E945A09C82F40918C38442371
:10184800A9F0A0918A38B0918B388C91C817B9F15A
:10185800CD01089620E007C0DC010896FC01389706
:101868003081C31761F12F5F2413F6CF80E00E9407
:10187800D30980ECDF91CF911F910C94170A80E077
:101888000E94850960919538CC2391F06C1710F46B
:10189800662371F00E945A09E0919338F0919438C8
:1018A8008083E0918F38F091903809956091953850
:1018B80080919338909194380E948E09AECF1396F8
:1018C8006C91139714968D919C9115970E942809F5
:1018D800811102C08FEFCBCFE0918838F091893821
:1018E8008C2F09958823B1F38C2F0E94D309C150FE
:1018F800CE3F08F49BCF91CF80E00E9485090E94DB
:101908001F09882309F489CF0E945A0950918C38FD
:101918005523A9F3A0918A38B0918B384C9184173C
:1019280009F47EC09D01285F3F4F90E09F5F9517A7
:1019380031F3E901CA1BDB0B285F3F4FF9013897E8
:1019480040818413F3CF842F0E94D30980918A3871
:1019580090918B38C80FD91F6B818C819D810E9413
:101968008E09CDCF80E00E948509C0E0D3E189913E
:101978000E94D309C03183E1D807C9F74ECF80E070
:101988000E94850960919538CC2391F06C1710F46A
:10199800662371F00E945A09E0919138F0919238CB
:1019A8008083E0918D38F0918E3809956091953853
:1019B80080919138909192380E948E092ECF80E0C4
:1019C8000E948509C1112FC080918C38882309F4A1
:1019D80024CF10E0C12FD0E0CC0FDD1FCC0FDD1FCE
:1019E800CC0FDD1FE0918A38F0918B38EC0FFD1F8A
:1019F80080810E94D30980918A3890918B38C80FD2
:101A0800D91F898120E1829FC00111249A81892BE5
:101A18000E94D3091F5F80918C381817D8F2FDCE29
:101A2800C0E0D0E090CFC13009F0F7CE0E945A094B
:101A380050918C385523B9F0E0918A38F0918B3861
:101A480090818917A1F09F01285F3F4F90E008C05F
:101A5800F901285F3F4FD90118974C91841739F045
:101A68009F5F9513F5CF80E00E94D309ADCE8681A4
:081A780097810E94B109D1CE53
:101A80000A010101413800000B0201023F38000049
:101A90000C0101013E38000001040104423800003D
:081AA000020101013D380000C4
:101AA800000000000000000000000000000000002E
:101AB800000000000000000000000000000000001E
:101AC800000000000000000000000000000000000E
:101AD80000000000000000000000000000000000FE
:101AE80000000000000000000000000000000000EE
:101AF80000000000000000000000000000000000DE
:101B080000000000000000000000000000000000CD
:061B1800000000000000C7
:0400000300000400F5
:00000001FF
