:100400000C943E020C9450020C9450020C94500236
:100410000C9450020C9450020C9450020C94500214
:100420000C9450020C9450020C9450020C94500204
:100430000C9450020C9450020C9450020C945002F4
:100440000C9450020C9450020C9450020C945002E4
:100450000C9450020C9450020C9450020C945002D4
:100460000C9450020C9450020C9450020C945002C4
:100470000C9450020C9450020C94500211241FBE94
:10048000CFEFCDBFDFE3DEBF29E3A0E0B8E301C0DB
:100490001D92A736B207E1F70E941B060C94700666
:1004A0000C94000280934D3890934E3860934B38F3
:1004B00070934C3808956F927F928F929F92AF9273
:1004C000BF92CF92DF92EF92FF920F931F93CF9341
:1004D000DF93A0914D38B0914E388C9087FCB3C01B
:1004E00081E0881508F0DBC0FD0131961196CC91B2
:1004F000C0930238082D10E04C2F50E040175107F0
:100500000CF0CDC0AA24A394B12C99249394D1E0EB
:1005100095E2C92E98E3D92E23E0E22E28E3F22EAD
:100520001EC0CF7309F06BC080E8681609F479C06B
:10053000D70DD81508F048C0AD2EB12CE0914D383C
:10054000F0914E38EA0DFB1DC081C09302384C2F4C
:1005500050E0CA018A0D9B1D08171907ACF1C09223
:100560004938D0924A38E0924738F0924838109291
:10057000013810920038C1113CC01092253843E078
:1005800058E365E278E38C2F0E941306C82F807C25
:10059000682E70900238C7FDC4CF80914B3890917F
:1005A0004C38472D50E060914D3870914E386A0DAF
:1005B0007B1D890D911D0E946706970C6110B1CFBC
:1005C000D70DD81508F4B8CFE0914B38F0914C38DE
:1005D0009082892DDF91CF911F910F91FF90EF9025
:1005E000DF90CF90BF90AF909F908F907F906F9053
:1005F0000895BF0185E298E30E946706C0CF80910D
:100600004B3890914C384C2F50E0609147387091A6
:100610004838890D911D0E9467069C0E80E868127B
:1006200087CF80914B3890914C38472D50E06091A6
:100630004D3870914E386A0D7B1D890D911D0E94B9
:100640006706970C75CF682D6F77633010F480E0E4
:10065000C1CFCD0103968093493890934A38809159
:100660004B3890914C38809347389093483863507A
:100670006093023811968D919C91129710920138D7
:100680009827892798270E941506982F907C51F467
:10069000E0914B38F0914C3881E080839BCF9924D6
:1006A000939492CF8F7396CF81E0209101389091EF
:1006B0000238291708F080E00895CF93DF93D09196
:1006C0000138ED2FF0E0462F50E0DF01A40FB51FF9
:1006D0002091023830E02A173B0724F480E0DF91B4
:1006E000CF910895C62F6091493870914A386E0FA6
:1006F0007F1F0E9467066D2F6C0F6093013881E0A9
:10070000DF91CF910895E0914938F0914A38809176
:10071000013891E0980F90930138E80FF11D808126
:100720000895E0914738F0914838808381E08093C4
:1007300000380895CF93DF93D09100382D2F30E00B
:10074000462F50E0F901E40FF51FB39774F4C62F5C
:10075000BC018091473890914838820F931F0E94C6
:1007600067066D2F6C0F60930038DF91CF9108956D
:10077000CF93DF934091473850914838209100380B
:10078000FC0103C0292F923280F491E0920FDF0127
:100790008191EA01C20FD11D88838C918111F2CF22
:1007A00090930038DF91CF91089590930038DF91B6
:1007B000CF91089590910038292F30E021323105F2
:1007C0005CF440914738509148389F5F90930038CF
:1007D000FA01E20FF31F808308954091473850914A
:1007E000483820910038FA01E20FF11D908391E022
:1007F000920FFA01E90FF11D808382E0820FFA0166
:10080000E80FF11D708384E0820F809300382D5F24
:10081000FA01E20FF11D6083089520910038222330
:1008200051F0E0914738F09148389081911102C021
:100830002083922F892B0895E0E0F8E020EC2683B6
:100840004087518780935A3890935B38609358382B
:10085000709359382AE020934F38809356389093FC
:1008600057380895109252381092503810925138DB
:1008700080915A3890915B388093563890935738CE
:1008800008958093533880915838909159388093C7
:10089000543890935538089590915138983C98F574
:1008A0009F5F90935138983C41F1A0915638B09198
:1008B0005738809152383091503803C090E08317F8
:1008C000A0F42091040827FF26C090910008FD01A4
:1008D000E80FF11D90838F5F813081F73111EECFEA
:1008E0003C913F7790E0831760F3809352381092E9
:1008F00051383093503882E00895809152388823DF
:1009000091F083E00895109252381092503810926E
:10091000513880E008958093523890935138309345
:10092000503881E0911180E00895809153388823F8
:10093000A9F09091040895FF11C0E0915438F0910E
:100940005538919190930208815051F41092533888
:10095000E0935438F093553882E0089580E008958C
:100960009091040895FDEDCF80935338E09354386F
:10097000F093553881E008950F931F93CF93DF9341
:10098000C62F8F3429E4920709F4EAC098F089341D
:1009900020E5920709F489C0833520E5920761F1CB
:1009A0008734904509F49FC080E0DF91CF911F917B
:1009B0000F910895893428E4920709F4C4C089345A
:1009C00029E4920709F441C08934964469F780E02C
:1009D0000E94910368E473E48DE49AE50E94ED03BC
:1009E00060E070E0CB010E94ED0380ECDF91CF91DD
:1009F0001F910F910C940D0480E00E949103D091FF
:100A0000088D0E945403882381F30E948303C82F1A
:100A1000DD2389F08091F08C8C1731F1E0EFFCE858
:100A200081E090E006C0AC01208501963896C2179F
:100A3000E9F08D17C0F380E00E94DA0380ECDF91CB
:100A4000CF911F910F910C940D0480E00E949103AF
:100A5000CC2309F4BBC0D091098DDC1708F0C5C0C8
:100A6000D111C3C060E0B4C040E050E0440F551F56
:100A7000440F551F440F551FFA01E051F34763819E
:100A8000848195810E945D03811102C08FEFD4CFD4
:100A90008C2F0E9417068823C9F38C2F0E94DA033B
:100AA000C150CE3F08F4ADCFA0CF80E00E949103AB
:100AB000C11166C00091088D002309F496CFC0EFE4
:100AC000DCE810E088810E94DA03898120E1829FBE
:100AD000C00111249A81892B0E94DA031F5F289696
:100AE0001013F0CF82CF80E00E9491031091088D07
:100AF0000E945403882309F478CF0E9483031123B2
:100B0000B9F39091F08C8917C1F1E0EFFCE821E096
:100B100030E0211768F7E90190852F5F3F4F389645
:100B20008913F7CF892F0E94DA03CC0FDD1FCC0F7A
:100B3000DD1FCC0FDD1FC051D3476B818C819D81A0
:100B40000E949A03D5CF80E00E949103C0E0D3E1D8
:100B500089910E94DA03C03183E1D807C9F745CFF4
:100B600080E00E949103CC2351F1D091098DDC17D4
:100B7000A0F5D11132C060E024C0C0E0D0E0D2CFF7
:100B8000C13009F032CF0E9483036091088D662343
:100B900091F09091F08C891781F1E0EFFCE821E071
:100BA00030E007C0A90190852F5F3F4F3896891725
:100BB00031F12617B8F380E00E94DA03F5CE609198
:100BC000098D8CE598E30E949A030FCF6091098DFF
:100BD0008DE598E30E949A0308CF0E9483038093D7
:100BE0005C380E941A066D2FECCF0E94830380931D
:100BF0005D380E9419066D2FEBCF40E050E0440FA6
:100C0000551F440F551F440F551FFA01E051F3477C
:100C1000868197810E94B803E8CE81E080935D3899
:100C200080935C38089580E008950C94BC0481E0C2
:100C300008950895089540E068ED81E690E00E94EF
:100C40006306239880913304877F80933304229A2C
:100C50002A9A0798809117048860809317048091DE
:100C60001704887F83608093170440E550E067E6AF
:100C700078E387EE98E30E941C0467E678E387EE4A
:100C800098E30E9452020E940D0606C00E9495043D
:100C90008091090487FD10C00E944C048230B1F796
:100CA0000E945B020E9441040E9432040E9495044B
:100CB0008091090487FFF0CF41E068ED81E490E086
:100CC0000E946306E9CFFC0164BF40830895FB01E5
:100CD000DC0102C001900D9241505040D8F70895B8
:040CE000F894FFCFB6
:100CE4004D79207365727669636500000A0101011C
:100CF4006638000014030104623800001E04010475
:060D04005E38E48C0301DF
:0400000300000400F5
:00000001FF
