:100400000C943E020C9450020C9450020C94500236
:100410000C9450020C9450020C9450020C94500214
:100420000C9450020C9450020C9450020C94500204
:100430000C9450020C9450020C9450020C945002F4
:100440000C9450020C9450020C9450020C945002E4
:100450000C9450020C9450020C9450020C945002D4
:100460000C9450020C9450020C9450020C945002C4
:100470000C9450020C9450020C94500211241FBE94
:10048000CFEFCDBFDFE3DEBF29E3A0E0B8E301C0DB
:100490001D92A438B207E1F70E94E6050C943B06D2
:1004A0000C94000280934C3890934D3860934A38F6
:1004B00070934B3808954F925F926F927F928F9214
:1004C0009F92AF92BF92CF92DF92EF92FF920F93E3
:1004D0001F93CF93DF93A0914C38B0914D385C902F
:1004E00057FCAFC081E0851508F0D5C0FD013196FD
:1004F0001196CC91E52CF12C0C2F10E00E151F0558
:100500000CF0C9C088248394912C662463947724CA
:10051000739494E2A92E98E3B92E22E0C22E28E328
:10052000D22E1CC0DF7309F069C080E8481609F4B8
:1005300077C07C0E751408F043C0872C912CE09195
:100540004C38F0914D38E80DF91DC0810C2F10E0AA
:10055000C801880D991DE816F90694F1A092483853
:10056000B0924938C0924638D0924738109201383C
:1005700010920038C1113BC01092243842E058E379
:1005800064E278E38C2F0E94E205D82F807C482E0D
:10059000D7FDC8CF80914A3890914B3860914C3844
:1005A00070914D38680D791DA801860D911D0E942E
:1005B00032066C0E4110B6CF7C0E751408F4BDCF18
:1005C000E0914A38F0914B386082862DDF91CF91CF
:1005D0001F910F91FF90EF90DF90CF90BF90AF9061
:1005E0009F908F907F906F905F904F900895A8019B
:1005F000BF0184E298E30E943206C0CF80914A385E
:1006000090914B384D2F50E06091463870914738AB
:10061000860D911D0E9432066D0E80E8481289CF2A
:1006200080914A3890914B3860914C3870914D3898
:10063000680D791DA801860D911D0E9432066C0E71
:1006400078CF652D6F77633010F480E0BFCFCD0198
:100650000396809348389093493880914A38909116
:100660004B38809346389093473811968D919C91E2
:1006700012971092013863509827892798270E9473
:10068000E405982F907C51F4E0914A38F0914B3872
:1006900081E080839BCF6624639492CF8F7396CF43
:1006A000E0914838F09149388091013891E0980FF5
:1006B00090930138E80FF11D80810895E09146384C
:1006C000F0914738808381E0809300380895CF937C
:1006D000DF93D09100382D2F30E0462F50E0F90104
:1006E000E40FF51FB29774F4C62FBC018091463811
:1006F00090914738820F931F0E9432066D2F6C0F26
:1007000060930038DF91CF910895CF93DF934091AC
:1007100046385091473820910038FC0103C0292FFA
:10072000923280F491E0920FDF018191EA01C20FD1
:10073000D11D88838C918111F2CF90930038DF9185
:10074000CF91089590930038DF91CF9108959091C3
:100750000038292F30E0213231055CF440914638D1
:10076000509147389F5F90930038FA01E20FF31FD2
:100770008083089540914638509147382091003841
:10078000FA01E20FF11D908391E0920FFA01E90F57
:10079000F11D808382E0820FFA01E80FF11D708362
:1007A00084E0820F809300382D5FFA01E20FF11D83
:1007B0006083089520910038222351F0E09146385B
:1007C000F09147389081911102C02083922F892B9C
:1007D0000895E0E0F8E020EC26834087518780937D
:1007E000593890935A3860935738709358382AE0A4
:1007F00020934E3880935538909356380895109230
:10080000513810924F381092503880915938909149
:100810005A388093553890935638089580935238BB
:10082000809157389091583880935338909354382A
:10083000089590915038983C98F59F5F9093503868
:10084000983C41F1A0915538B0915638809151387B
:1008500030914F3803C090E08317A0F42091040832
:1008600027FF26C090910008FD01E80FF11D90833D
:100870008F5F813081F73111EECF3C913F7790E06F
:10088000831760F3809351381092503830934F386B
:1008900082E0089580915138882391F083E0089593
:1008A0001092513810924F381092503880E00895CD
:1008B000809351389093503830934F3881E09111A4
:1008C00080E00895809152388823A9F0909104081F
:1008D00095FF11C0E0915338F09154389191909365
:1008E0000208815051F410925238E0935338F0933B
:1008F000543882E0089580E008959091040895FDB1
:10090000EDCF80935238E0935338F093543881E020
:100910000895CF92DF92EF92FF920F931F93CF93A0
:10092000DF93D62F8F3429E4920709F4F6C0B8F08C
:10093000893420E5920709F4CBC0833520E592077E
:10094000A1F18734904509F488C080E0DF91CF9110
:100950001F910F91FF90EF90DF90CF900895893411
:1009600028E4920709F4CCC0893429E4920709F4F9
:1009700064C08934964449F780E00E945E0368E4CD
:1009800073E48DE49AE50E94BA0360E070E0CB0165
:100990000E94BA0380ECDF91CF911F910F91FF90DD
:1009A000EF90DF90CF900C94DA0380E00E945E031A
:1009B000DD2381F3D0909B8CC12C0E945003DD205D
:1009C00049F39091868C891709F4E2C0E6E8FCE8C7
:1009D00021E030E02D15F0F6A90197812F5F3F4F00
:1009E00037968913F7CFFA01EE0FFF1FEE0FFF1FA7
:1009F000EE0FFF1FE41BF50BEA57F347E380F4808B
:100A00008091888C8823A9F0C0E000E010E00E946B
:100A10005003F701E00FF11F8083CF5F0C2F10E030
:100A200027E0C29FF0011124EA57F3478281C817DB
:100A300070F3C394DC11C1CFADCF80E00E945E03A0
:100A4000DD2309F4AFC080919C8C8D1708F4A2CFF0
:100A50000E94500380936B389DCF80E00E945E031C
:100A6000DD2309F497CFC0919B8CF12C0E94500399
:100A7000CC2391F09091868C891791F0E6E8FCE800
:100A800021E030E007C0890197812F5F3F4F379603
:100A9000891741F02C17B8F3F394DF11E7CF7ACF21
:100AA00000E010E00E94A703F801EE0FFF1FEE0F19
:100AB000FF1FEE0FFF1FE01BF10BEA57F3476281A8
:100AC000838194810E946703F394DF11CFCF62CFBB
:100AD00080E00E945E03D1112FC000919B8C002307
:100AE00009F458CFC6E8DCE810E088810E94A7032B
:100AF00089810E94A7031F5F27960113F6CF4ACF73
:100B000080E00E945E03C0E0D3E189910E94A703C8
:100B1000C03183E1D807C9F73DCF80E00E945E0372
:100B2000DD23C9F180919C8C8D1708F433CF0E948E
:100B3000500380935B382ECFD13009F02BCF0E9429
:100B4000500360919B8C662309F424CF9091868C8E
:100B5000981779F1E6E8FCE821E030E0261708F084
:100B600019CFA90197812F5F3F4F37968913F6CF91
:100B7000FA01EE0FFF1FEE0FFF1FEE0FFF1FE41B2A
:100B8000F50BEA57F347858196810E94850302CFD2
:100B900040E050E028CF60919C8C8BE598E30E9468
:100BA0006703F8CE60919C8C8BE698E30E94670304
:100BB000F1CE40E050E0DCCF81E080936B38809351
:100BC0005B38089580E008950C94890440E068ED56
:100BD00081E690E00E942E06239880913304877F5F
:100BE00080933304229A2A9A079880911704886088
:100BF0008093170480911704887F83608093170483
:100C000040E550E064E878E384E099E30E94E9037A
:100C100064E878E384E099E30E9452020E94DC05D4
:100C200006C00E9462048091090487FD10C00E94E2
:100C300019048230B1F70E945B020E940E040E94E8
:100C4000FF030E9462048091090487FFF0CF41E016
:100C500068ED81E490E00E942E06E9CFFC0164BFBC
:100C600040830895FB01DC0102C001900D924150C8
:0A0C70005040D8F70895F894FFCF24
:100C7A004D79207365727669636500000A03018302
:100C8A003800001403047F3800001E03047B387AFE
:030C9A008C0310B8
:0400000300000400F5
:00000001FF
