:100400000C943E020C9450020C9450020C94500236
:100410000C9450020C9450020C9450020C94500214
:100420000C9450020C9450020C9450020C94500204
:100430000C9450020C9450020C9450020C945002F4
:100440000C9450020C9450020C9450020C945002E4
:100450000C9450020C9450020C9450020C945002D4
:100460000C9450020C9450020C9450020C945002C4
:100470000C9450020C9450020C94500211241FBE94
:10048000CFEFCDBFDFE3DEBF29E3A0E0B8E301C0DB
:100490001D92A538B207E1F70E94F8050C944D06AD
:1004A0000C94000280934D3890934E3860934B38F3
:1004B00070934C3808956F927F928F929F92AF9273
:1004C000BF92CF92DF92EF92FF920F931F93CF9341
:1004D000DF93A0914D38B0914E388C9087FCB3C01B
:1004E00081E0881508F0DBC0FD0131961196CC91B2
:1004F000C0930238082D10E04C2F50E040175107F0
:100500000CF0CDC0AA24A394B12C99249394D1E0EB
:1005100095E2C92E98E3D92E23E0E22E28E3F22EAD
:100520001EC0CF7309F06BC080E8681609F479C06B
:10053000D70DD81508F048C0AD2EB12CE0914D383C
:10054000F0914E38EA0DFB1DC081C09302384C2F4C
:1005500050E0CA018A0D9B1D08171907ACF1C09223
:100560004938D0924A38E0924738F0924838109291
:10057000013810920038C1113CC01092253843E078
:1005800058E365E278E38C2F0E94F405C82F807C45
:10059000682E70900238C7FDC4CF80914B3890917F
:1005A0004C38472D50E060914D3870914E386A0DAF
:1005B0007B1D890D911D0E944406970C6110B1CFDF
:1005C000D70DD81508F4B8CFE0914B38F0914C38DE
:1005D0009082892DDF91CF911F910F91FF90EF9025
:1005E000DF90CF90BF90AF909F908F907F906F9053
:1005F0000895BF0185E298E30E944406C0CF809130
:100600004B3890914C384C2F50E0609147387091A6
:100610004838890D911D0E9444069C0E80E868129E
:1006200087CF80914B3890914C38472D50E06091A6
:100630004D3870914E386A0D7B1D890D911D0E94B9
:100640004406970C75CF682D6F77633010F480E007
:10065000C1CFCD0103968093493890934A38809159
:100660004B3890914C38809347389093483863507A
:100670006093023811968D919C91129710920138D7
:100680009827892798270E94F605982F907C51F487
:10069000E0914B38F0914C3881E080839BCF9924D6
:1006A000939492CF8F7396CF81E0209101389091EF
:1006B0000238291708F080E00895CF93DF93D09196
:1006C0000138ED2FF0E0462F50E0DF01A40FB51FF9
:1006D0002091023830E02A173B0724F480E0DF91B4
:1006E000CF910895C62F6091493870914A386E0FA6
:1006F0007F1F0E9444066D2F6C0F6093013881E0CC
:10070000DF91CF910895E0914938F0914A38809176
:10071000013891E0980F90930138E80FF11D808126
:100720000895E0914738F0914838808381E08093C4
:1007300000380895CF93DF93D09100382D2F30E00B
:10074000462F50E0F901E40FF51FB39774F4C62F5C
:10075000BC018091473890914838820F931F0E94C6
:1007600044066D2F6C0F60930038DF91CF91089590
:10077000CF93DF934091473850914838209100380B
:10078000FC0103C0292F923280F491E0920FDF0127
:100790008191EA01C20FD11D88838C918111F2CF22
:1007A00090930038DF91CF91089590930038DF91B6
:1007B000CF91089590910038292F30E021323105F2
:1007C0005CF440914738509148389F5F90930038CF
:1007D000FA01E20FF31F808308954091473850914A
:1007E000483820910038FA01E20FF11D908391E022
:1007F000920FFA01E90FF11D808382E0820FFA0166
:10080000E80FF11D708384E0820F809300382D5F24
:10081000FA01E20FF11D6083089520910038222330
:1008200051F0E0914738F09148389081911102C021
:100830002083922F892B0895E0E0F8E020EC2683B6
:100840004087518780935A3890935B38609358382B
:10085000709359382AE020934F38809356389093FC
:1008600057380895109252381092503810925138DB
:1008700080915A3890915B388093563890935738CE
:1008800008958093533880915838909159388093C7
:10089000543890935538089590915138983C98F574
:1008A0009F5F90935138983C41F1A0915638B09198
:1008B0005738809152383091503803C090E08317F8
:1008C000A0F42091040827FF26C090910008FD01A4
:1008D000E80FF11D90838F5F813081F73111EECFEA
:1008E0003C913F7790E0831760F3809352381092E9
:1008F00051383093503882E00895809152388823DF
:1009000091F083E00895109252381092503810926E
:10091000513880E008958093523890935138309345
:10092000503881E0911180E00895809153388823F8
:10093000A9F09091040895FF11C0E0915438F0910E
:100940005538919190930208815051F41092533888
:10095000E0935438F093553882E0089580E008958C
:100960009091040895FDEDCF80935338E09354386F
:10097000F093553881E008950F931F93CF93DF9341
:10098000C62F8F3429E4920709F4E9C098F089341E
:1009900020E5920709F488C0833520E5920761F1CC
:1009A0008734904509F49EC080E0DF91CF911F917C
:1009B0000F910895893428E4920709F4C3C089345B
:1009C00029E4920709F441C08934964469F780E02C
:1009D0000E94910368E473E48DE49AE50E94ED03BC
:1009E00060E070E0CB010E94ED0380ECDF91CF91DD
:1009F0001F910F910C940D0480E00E949103D091FF
:100A0000C28C0E945403882381F30E948303C82F61
:100A1000DD2389F08091AA8C8C1751F1EAEAFCE879
:100A200081E090E006C0AC01208501963896C2179F
:100A300009F18D17C0F380E00E94DA0380ECDF91AA
:100A4000CF911F910F910C940D0480E00E949103AF
:100A5000D091C38CDC1748F2CC2321F00E94830391
:100A600080936C386D2F8CE698E30E949A03BDCF7B
:100A700040E050E0440F551F440F551F440F551FD1
:100A8000FA01E655F3476381848195810E945D03F5
:100A9000811102C08FEFD0CF8C2F0E94DA03C1509A
:100AA000CE3F08F4AECFA1CF80E00E949103C111E8
:100AB00066C00091C28C002309F497CFCAEADCE833
:100AC00010E088810E94DA03898120E1829FC001C1
:100AD00011249A81892B0E94DA031F5F2896101334
:100AE000F0CF83CF80E00E9491031091C28C0E94CE
:100AF0005403882309F479CF0E9483031123B9F3A7
:100B00009091AA8C9817C1F1EAEAFCE821E030E064
:100B1000211768F7E90190852F5F3F4F38968913B9
:100B2000F7CF892F0E94DA03CC0FDD1FCC0FDD1F1A
:100B3000CC0FDD1FC655D3476B818C819D810E94F0
:100B40009A03D5CF80E00E949103C0E0D3E1899160
:100B50000E94DA03C03183E1D807C9F746CF80E0AD
:100B60000E9491036091C38C6C1708F43ECF8CE512
:100B700098E30E949A0339CFC0E0D0E0D2CFC130D1
:100B800009F033CF0E9483036091C28C662391F0F9
:100B90009091AA8C981791F0EAEAFCE821E030E005
:100BA00007C0A90190852F5F3F4F3896891741F004
:100BB0002617B8F380E00E94DA03F6CE40E050E05A
:100BC000440F551F440F551F440F551FFA01E6559A
:100BD000F347868197810E94B80307CF81E0809315
:100BE0006C3880935C38089580E008950C94BC04C0
:100BF00040E068ED81E690E00E94400623988091F5
:100C00003304877F80933304229A2A9A079880912D
:100C1000170488608093170480911704887F83608D
:100C20008093170440E550E065E878E385E099E3B8
:100C30000E941C0465E878E385E099E30E94520273
:100C40000E94EE0506C00E9495048091090487FD6C
:100C500010C00E944C048230B1F70E945B020E94D7
:100C600041040E9432040E9495048091090487FF88
:100C7000F0CF41E068ED81E490E00E944006E9CFCA
:100C8000FC0164BF40830895FB01DC0102C00190B8
:0E0C90000D9241505040D8F70895F894FFCFD0
:100C9E004D79207365727669636500000A01010162
:100CAE008438000014030104803800001E0401047F
:060CBE007C389E8C03103F
:0400000300000400F5
:00000001FF
