:100400000C943E020C9450020C9450020C94500236
:100410000C9450020C9450020C9450020C94500214
:100420000C9450020C9450020C9450020C94500204
:100430000C9450020C9450020C9450020C945002F4
:100440000C9450020C9450020C9450020C945002E4
:100450000C9450020C9450020C9450020C945002D4
:100460000C9450020C9450020C9450020C945002C4
:100470000C9450020C9450020C94500211241FBE94
:10048000CFEFCDBFDFE3DEBF29E3A0E0B8E301C0DB
:100490001D92AC37B207E1F70E9418090C94970B34
:1004A0000C94000280934D3890934E3860934B38F3
:1004B00070934C3808956F927F928F929F92AF9273
:1004C000BF92CF92DF92EF92FF920F931F93CF9341
:1004D000DF93E0914D38F0914E38808087FCB5C0B5
:1004E00081E0881508F0DBC0BF016F5F7F4FC181DD
:1004F000C0930238CC2309F4D2C0082D10E04C2F51
:1005000050E0401751070CF0CAC0AA24A394B12CA4
:1005100099249394D1E095E2C92E98E3D92E23E053
:10052000E22E28E3F22E22C0CF7309F06AC080E8E1
:10053000681609F478C0D70DD81508F04DC0AD2E57
:10054000B12C60914D3870914E386A0D7B1DFB01C6
:10055000C081C0930238CC2309F43EC04C2F50E038
:10056000CA018A0D9B1D08171907B4F1C0924938BA
:10057000D0924A38E0924738F092483810920138C9
:100580001092003885E298E30E948E0B43E058E316
:1005900065E278E38C2F0E940807C82FF82FF07CC3
:1005A0006F2E7090023887FDBFCF80914B389091AD
:1005B0004C38472D50E060914D3870914E386A0D9F
:1005C0007B1D890D911D0E948E0B970C6110ACCF85
:1005D000D70DD81508F4B3CFE0914B38F0914C38D3
:1005E0009082892DDF91CF911F910F91FF90EF9015
:1005F000DF90CF90BF90AF909F908F907F906F9043
:10060000089580914B3890914C384C2F50E0609178
:10061000473870914838890D911D0E948E0B9C0EB1
:1006200080E8681288CF80914B3890914C38472DE4
:1006300050E060914D3870914E386A0D7B1D890DE8
:10064000911D0E948E0B970C76CF682D6F776330CB
:1006500010F480E0C7CFCF01039680934938909380
:100660004A3880914B3890914C388093473890931A
:10067000483863506093023881819281109201382A
:100680009827892798270E943F08982F907C51F43B
:10069000E0914B38F0914C3881E08083A3CF9924CE
:1006A00093949ACF8F739ECF81E0209101389091DF
:1006B0000238291708F080E00895CF93DF93D09196
:1006C0000138ED2FF0E0462F50E0DF01A40FB51FF9
:1006D0002091023830E02A173B0724F480E0DF91B4
:1006E000CF910895C62F6091493870914A386E0FA6
:1006F0007F1F0E948E0B6D2F6C0F6093013881E07D
:10070000DF91CF910895E0914938F0914A38809176
:10071000013891E0980F90930138E80FF11D808126
:100720000895E0914738F0914838808381E08093C4
:1007300000380895CF93DF93D09100382D2F30E00B
:10074000462F50E0F901E40FF51FB39774F4C62F5C
:10075000BC018091473890914838820F931F0E94C6
:100760008E0B6D2F6C0F60930038DF91CF91089541
:10077000CF93DF934091473850914838209100380B
:10078000FC0103C0292F923280F491E0920FDF0127
:100790008191EA01C20FD11D88838C918111F2CF22
:1007A00090930038DF91CF91089590930038DF91B6
:1007B000CF91089590910038292F30E021323105F2
:1007C0005CF440914738509148389F5F90930038CF
:1007D000FA01E20FF31F808308953091003822E080
:1007E000230F223250F4E0914738F0914838E30F5C
:1007F000F11D9083818320930038089540914738FC
:100800005091483820910038FA01E20FF11D908391
:1008100091E0920FFA01E90FF11D808382E0820FCF
:10082000FA01E80FF11D708384E0820F8093003895
:100830002D5FFA01E20FF11D6083089520910038C9
:10084000222351F0E0914738F0914838908191117E
:1008500002C02083922F892B0895E0E0F8E020EC7D
:1008600026834087518780935A3890935B386093F2
:100870005838709359382AE020934F38809356386F
:100880009093573808951092523810925038109221
:10089000513880915A3890915B38809356389093B4
:1008A000573808958093533880915838909159382B
:1008B0008093543890935538089590915138983CCE
:1008C00098F59F5F90935138983C41F1A09156382C
:1008D000B0915738809152383091503803C090E031
:1008E0008317A0F42091040827FF26C090910008E8
:1008F000FD01E80FF11D90838F5F813081F7311189
:10090000EECF3C913F7790E0831760F380935238AD
:10091000109251383093503882E0089580915238C7
:10092000882391F083E00895109252381092503845
:100930001092513880E00895809352389093513846
:100940003093503881E0911180E0089580915338C0
:100950008823A9F09091040895FF11C0E0915438C4
:10096000F0915538919190930208815051F4109272
:100970005338E0935438F093553882E0089580E07E
:1009800008959091040895FDEDCF80935338E0933E
:100990005438F093553881E008950F931F93CF9307
:1009A000DF93C62F8F3429E4920709F4EBC098F047
:1009B000893420E5920709F48AC0833520E592073F
:1009C00069F18734904509F4A0C080E0DF91CF91B0
:1009D0001F910F910895893428E4920709F4C5C046
:1009E000893429E4920709F442C08934964469F7AE
:1009F00080E00E94910368E473E48DE49AE50E942C
:100A0000FE0361E070E080E090E00E94FE0380EC75
:100A1000DF91CF911F910F910C941E0480E00E94F2
:100A20009103D0915A970E945403882381F30E9426
:100A30008303C82FDD2389F0809132978C1731F121
:100A4000E2E3F7E981E090E006C0AC012085019681
:100A50003896C217E9F08D17C0F380E00E94DA03E0
:100A600080ECDF91CF911F910F910C941E0480E0D8
:100A70000E949103CC2309F4BBC0D0915B97DC1793
:100A800008F0C5C0D111C3C060E0B4C040E050E080
:100A9000440F551F440F551F440F551FFA01EE5CBC
:100AA000F8466381848195810E945D03811102C0B3
:100AB0008FEFD4CF8C2F0E9441088823C9F38C2F4D
:100AC0000E94DA03C150CE3F08F4ADCFA0CF80E042
:100AD0000E949103C11166C000915A97002309F446
:100AE00096CFC2E3D7E910E088810E94DA038981BA
:100AF00020E1829FC00111249A81892B0E94DA0390
:100B00001F5F28961013F0CF82CF80E00E949103E0
:100B100010915A970E945403882309F478CF0E94B9
:100B200083031123B9F3909132978917C1F1E2E35E
:100B3000F7E921E030E0211768F7E90190852F5FA0
:100B40003F4F38968913F7CF892F0E94DA03CC0FD5
:100B5000DD1FCC0FDD1FCC0FDD1FCE5CD8466B81B7
:100B60008C819D810E949A03D5CF80E00E949103E1
:100B7000C0E0D3E189910E94DA03C03183E1D80754
:100B8000C9F745CF80E00E949103CC2351F1D09169
:100B90005B97DC17A0F5D11132C060E024C0C0E043
:100BA000D0E0D2CFC13009F032CF0E9483036091F0
:100BB0005A97662391F090913297891781F1E2E379
:100BC000F7E921E030E007C0A90190852F5F3F4F92
:100BD0003896891731F12617B8F380E00E94DA03BE
:100BE000F4CE60915B978AE798E30E949A030FCF57
:100BF00060915B978BE798E30E949A0308CF0E946D
:100C0000830380937A380E9417096D2FECCF0E94DE
:100C1000830380937B380E9416096D2FEBCF40E051
:100C200050E0440F551F440F551F440F551FFA0144
:100C3000EE5CF846868197810E94B803E8CE8F92D9
:100C40009F92AF92BF92CF92DF92EF92FF92CF939B
:100C5000C1E0C0937B38C0937A3880E090E0A0E890
:100C6000BFE38093763890937738A0937838B09329
:100C7000793880E880937138609176387091773850
:100C800080917838909179380E94430A8090763824
:100C900090907738A0907838B09079386B01770FC2
:100CA000EE08FF08C701B6010E947B0A9B01AC0158
:100CB000C501B4010E94640920E030E048E453E437
:100CC0000E94070B0E944A0A60937238C0927338E0
:100CD000D09274386701EE24FF24C0927538809159
:100CE0007538811107C080917338909174388138BC
:100CF0009E4368F181E080935E3810926D381092C7
:100D00006E3810926F3810927038109265381092C9
:100D100066381092673810926838109269381092CD
:100D20006A3810926B3810926C38109261381092B9
:100D300062381092633810926438CF91FF90EF9030
:100D4000DF90CF90BF90AF909F908F9008951092BA
:100D50005E382091763830917738409178385091CC
:100D6000793860E070E08AEF96E40E94D1090E9431
:100D70004A0A60936D3870936E3880936F38909301
:100D8000703880917238811138C010925C38A0910F
:100D9000713820916D3830916E3840916F38509194
:100DA0007038B0E00E94740BBB27A92F982F872FB3
:100DB0008093653890936638A0936738B09368380D
:100DC00080916D3890916E38A0916F38B0917038E5
:100DD00040916538509166386091673870916838F5
:100DE000841B950BA60BB70B8093693890936A38D8
:100DF000A0936B38B0936C3898CF809173389091F2
:100E000074388F3F910509F000F6C0935C38BFCF6E
:100E10000F931F93CF93DF93853031F080E0DF9104
:100E2000CF911F910F910895FB0182818E3FB1F701
:100E3000EB0180E00E94910380917A380E94DA03EE
:100E400080917138882309F4DBC0809171388F3F1D
:100E500009F406C180915E388111B6C020915F38D7
:100E6000309160388B819C81982789279827820F41
:100E7000931F80935F389093603880915F38909192
:100E80006038803A9F4050F280915F38909160388E
:100E9000803A9F4028F180915F3890916038805A65
:100EA0009F4080935F389093603880916138909133
:100EB0006238A0916338B09164388056904FAF4F3C
:100EC000BF4F8093613890936238A0936338B0939A
:100ED000643880915F3890916038803A9F40D8F6AE
:100EE00090915D3880915D38C0E0D0E08823A9F111
:100EF00000916138109162382091633830916438E4
:100F000040916538509166386091673870916838C3
:100F1000041715072607370708F474C000916538D1
:100F20001091663820916738309168384091613867
:100F3000509162386091633870916438401B510B56
:100F4000620B730B4093613850936238609363383F
:100F500070936438219610925D3800916138109139
:100F600062382091633830916438409169385091EB
:100F70006A3860916B3870916C3804171507260732
:100F8000370708F43FC00091693810916A38209102
:100F90006B3830916C384091613850916238609173
:100FA000633870916438401B510B620B730B409394
:100FB0006138509362386093633870936438219637
:100FC00081E080935D3894CF87EB0E94DA038091B3
:100FD0007538882321F0809175380E94DA0380915A
:100FE0007338909174380E94ED03809171380E949B
:100FF000DA0380E4DF91CF911F910F910C941E04CE
:1010000080EBF5CF992351F182E090915D38892BE7
:1010100020917338309174382F3F310509F030F545
:1010200020917338309174382B303105D8F48C6BA3
:101030000E94DA03CE01969587950E94DA0380918B
:101040007338909174380E94DA0380915C38882359
:1010500061F2809172380E94DA03C7CF80E0D5CF69
:1010600083EBC5CF886B0E94DA03E4CF886B0E94C4
:10107000DA03CE01969587950E94ED03B0CF0C94CC
:10108000CD048F929F92AF92BF92CF92DF92EF9258
:10109000FF9260917638709177388091783890918E
:1010A00079380E94430A8090763890907738A090E3
:1010B0007838B09079386B01770FEE08FF08C701D8
:1010C000B6010E947B0A9B01AC01C501B4010E94DC
:1010D000640920E030E048E453E40E94070B0E94DA
:1010E0004A0A60937238C0927338D092743867019C
:1010F000EE24FF24C092753880917538811107C0A5
:10110000809173389091743881389E4368F181E002
:1011100080935E3810926D3810926E3810926F384E
:1011200010927038109265381092663810926738B5
:10113000109268381092693810926A3810926B38A1
:1011400010926C38109261381092623810926338A5
:101150001092643881E0FF90EF90DF90CF90BF90C5
:10116000AF909F908F90089510925E3820917638BE
:1011700030917738409178385091793860E070E05C
:101180008AEF96E40E94D1090E944A0A60936D3862
:1011900070936E3880936F38909370388091723866
:1011A000811138C010925C38A091713820916D384F
:1011B00030916E3840916F3850917038B0E00E9495
:1011C000740BBB27A92F982F872F80936538909396
:1011D0006638A0936738B093683880916D389091E5
:1011E0006E38A0916F38B091703840916538509149
:1011F00066386091673870916838841B950BA60B30
:10120000B70B8093693890936A38A0936B38B0938A
:101210006C3898CF80917338909174388F3F9105D6
:1012200009F000F681E080935C38BECF0895089500
:1012300040E068ED81E690E00E946009239880918B
:101240003304877F80933304229A2A9A07988091E7
:10125000170488608093170480911704887F836047
:101260008093170440E550E06CE778E38CEF98E357
:101270000E942D046CE778E38CEF98E30E94520201
:101280000E941F0606C00E94A6048091090487FDE3
:1012900010C00E945D048230B1F70E945B020E9480
:1012A00052040E9443040E94A6048091090487FF0F
:1012B000F0CF41E068ED81E490E00E946009E9CF61
:1012C000FC0164BF408308955058BB27AA270E94A1
:1012D0007C090C94CD0A0E94BF0A38F00E94C60A0D
:1012E00020F039F49F3F19F426F40C94BC0A0EF454
:1012F000E095E7FB0C94B60AE92F0E94DE0A58F34A
:10130000BA17620773078407950720F079F4A6F5EA
:101310000C94000B0EF4E0950B2EBA2FA02D0B01B0
:10132000B90190010C01CA01A0011124FF27591B2A
:1013300099F0593F50F4503E68F11A16F040A22F30
:10134000232F342F4427585FF3CF469537952795A1
:10135000A795F0405395C9F77EF41F16BA0B620BA0
:10136000730B840BBAF09150A1F0FF0FBB1F661FE7
:10137000771F881FC2F70EC0BA0F621F731F841F2A
:1013800048F4879577956795B795F7959E3F08F050
:10139000B0CF9395880F08F09927EE0F9795879512
:1013A00008950E94E5090C94CD0A0E94C60A58F0DF
:1013B0000E94BF0A40F029F45F3F29F00C94B60A5E
:1013C00051110C94010B0C94BC0A0E94DE0A68F3C4
:1013D0009923B1F3552391F3951B550BBB27AA27EE
:1013E00062177307840738F09F5F5F4F220F331F28
:1013F000441FAA1FA9F335D00E2E3AF0E0E832D0F0
:1014000091505040E695001CCAF72BD0FE2F29D0F2
:10141000660F771F881FBB1F261737074807AB07C4
:10142000B0E809F0BB0B802DBF01FF2793585F4F39
:101430003AF09E3F510578F00C94B60A0C94010BDB
:101440005F3FE4F3983ED4F3869577956795B7951B
:10145000F7959F5FC9F7880F911D9695879597F926
:101460000895E1E0660F771F881FBB1F621773079F
:101470008407BA0720F0621B730B840BBA0BEE1FB4
:1014800088F7E09508950E944A0A6894B1110C9477
:10149000010B08950E94E60A88F09F5798F0B92F33
:1014A0009927B751B0F0E1F0660F771F881F991F99
:1014B0001AF0BA95C9F714C0B13091F00E94000B30
:1014C000B1E008950C94000B672F782F8827B85F40
:1014D00039F0B93FCCF3869577956795B395D9F7F1
:1014E0003EF490958095709561957F4F8F4F9F4FFB
:1014F0000895E89409C097FB3EF490958095709507
:1015000061957F4F8F4F9F4F9923A9F0F92F96E94F
:10151000BB279395F695879577956795B795F111C4
:10152000F8CFFAF4BB0F11F460FF1BC06F5F7F4F61
:101530008F4F9F4F16C0882311F096E911C0772373
:1015400021F09EE8872F762F05C0662371F096E87C
:10155000862F70E060E02AF09A95660F771F881F4B
:10156000DAF7880F9695879597F9089597F99F6709
:1015700080E870E060E008959FEF80EC089500241B
:101580000A941616170618060906089500240A94E8
:1015900012161306140605060895092E0394000C6E
:1015A00011F4882352F0BB0F40F4BF2B11F460FFFD
:1015B00004C06F5F7F4F8F4F9F4F089557FD905826
:1015C000440F551F59F05F3F71F04795880F97FB07
:1015D000991F61F09F3F79F08795089512161306C1
:1015E0001406551FF2CF4695F1DF08C016161706F0
:1015F0001806991FF1CF8695710561050894089525
:10160000E894BB2766277727CB0197F908950E94B6
:101610001A0B0C94CD0A0E94BF0A38F00E94C60A29
:1016200020F0952311F00C94B60A0C94BC0A1124F6
:101630000C94010B0E94DE0A70F3959FC1F3950F85
:1016400050E0551F629FF001729FBB27F00DB11D46
:10165000639FAA27F00DB11DAA1F649F6627B00DD6
:10166000A11D661F829F2227B00DA11D621F739FBF
:10167000B00DA11D621F839FA00D611D221F749FCD
:101680003327A00D611D231F849F600D211D822F14
:10169000762F6A2F11249F5750409AF0F1F088233B
:1016A0004AF0EE0FFF1FBB1F661F771F881F915068
:1016B0005040A9F79E3F510580F00C94B60A0C9457
:1016C000010B5F3FE4F3983ED4F3869577956795D9
:1016D000B795F795E7959F5FC1F7FE2B880F911D92
:1016E0009695879597F908950E947F0BA59F900D79
:1016F000B49F900DA49F800D911D11240895A29F69
:10170000B001B39FC001A39F700D811D1124911DD5
:10171000B29F700D811D1124911D0895FB01DC0104
:1017200002C001900D9241505040D8F70895F894AE
:02173000FFCFE9
:101732000A010101753800000B0201027338000032
:101742000C01010172380000010401047638000026
:0A17520002010101713800000501D9
:0400000300000400F5
:00000001FF
