:100400000C943E020C945B020C945B020C945B0215
:100410000C945B020C945B020C945B020C945B02E8
:100420000C945B020C945B020C945B020C945B02D8
:100430000C945B020C945B020C945B020C945B02C8
:100440000C945B020C945B020C945B020C945B02B8
:100450000C945B020C945B020C945B020C945B02A8
:100460000C945B020C945B020C945B020C945B0298
:100470000C945B020C945B020C945B0211241FBE73
:10048000CFEFCDBFDFE3DEBF18E3A0E0B8E3EAE5DE
:10049000F6E002C005900D92A835B107D9F729E31F
:1004A000A8E5B8E301C01D92A336B207E1F70E94A8
:1004B000A9020C9407030C94000281E008950895AA
:1004C00008958F92AF92BF92CF92DF92EF920F93E7
:1004D0008DE592E09F938F938FE592E09F938F93AA
:1004E00080E692E09F938F9380E098E39F938F93B1
:1004F00088E0882E98E5A92E98E3B92E29E5C22E2A
:1005000028E3D22EEE24E39401E020E030E040E046
:1005100050E968E473E48DE49AE50E94A01581E057
:1005200080935938809358388DB79EB708968DBF01
:100530009EBF0F91EF90DF90CF90BF90AF908F90C4
:10054000089580E090E008950E94EB1508950895C5
:10055000089540E068ED81E690E00E94030323984F
:1005600080913304877F80933304229A2A9A0798D4
:100570008091170488608093170480911704887F06
:1005800083608093170440E550E063E678E383EEF0
:1005900098E30E944B1421EA32E044EA52E063E619
:1005A00078E383EE98E30E9400100E94610204C089
:1005B0008091090487FD11C00E947E14C82F0E94FB
:1005C000C614C230C9F0C111F3CF8111F1CF0E941E
:1005D000A7028091090487FFEFCF0E94A80241E0A3
:1005E00068ED81E490E00E9403030E947E14C82F0E
:1005F0000E94C614C23039F70E9411100E94731471
:100600000E946414D5CFFC0164BF40830895F89420
:02061000FFCF1A
:100612005F7733685F76616C005F7733685F75720E
:100622006C005F7733685F6D7464005F7733685F77
:10063200637464005F7733685F646174005F77336B
:10064200685F646374005F7733685F657270005F30
:080652007733685F72766F00D8
:10065A00010301045F3812860208000850381B861D
:10066A00030800044C3824860403010448382D8604
:10067A0005080003453836860608000540383F86D7
:10068A00070800015E384886080300015A38518677
:10069A006A736F6E007B7D000200000047455400BC
:0806AA00687474703A2F2F00F0
:102000008093533E9093543E6093513E7093523E62
:102010004093023E5093033E2093003E3093013E96
:1020200008958F929F92AF92BF92CF92DF92EF92DC
:10203000FF920F931F93CF93DF93A091533EB091E4
:10204000543E9C9081E0891508F0D1C011968C9186
:1020500011978C3309F4CEC09BE2E92E9EE3F92E52
:10206000E0924F3EF092503E09E01EE300934D3E59
:1020700010934E3E11968093083E92E29093063E56
:10208000882309F4B4C0C92CD12C282F30E02C159A
:102090003D050CF0ACC0C1E0D0E0BB24B394AA2451
:1020A000A39442E2842E1092073E1092053EEBE28A
:1020B000FEE3255D314C9D919193E217F307D9F72B
:1020C000E091003EF091013E49E05EE36BE27EE389
:1020D0000995282F2F7B09F455C04091083E911196
:1020E00072C08038C9F4242F30E08091533E909123
:1020F000543EC80FD91FE091513EF091523EEB0D76
:10210000F11D2115310539F02E0F3F1F8991819363
:102110002E173F07D9F7B40EA40EA91400F5E092CC
:102120004F3EF092503E00934D3E10934E3ECA2DCE
:10213000D0E0A091533EB091543EAC0FBD1F8C91A6
:102140008093083E8092063E882349F0282F30E095
:10215000A9014C0F5D1FC416D5060CF0A4CFE09169
:10216000513EF091523EB0828B2DDF91CF911F9165
:102170000F91FF90EF90DF90CF90BF90AF909F9026
:102180008F9008954091083E242F30E0A091533E57
:10219000B091543EAC0FBD1FE091513EF091523EC4
:1021A000EB0DF11D2115310539F02E0F3F1F5D910B
:1021B00051932E173F07D9F7B40E882309F4ACCFFB
:1021C000992309F48ECFE091513EF091523EA091B7
:1021D0004D3EB0914E3EEB0DF11D9F01290F311D7B
:1021E0005D915193E217F307D9F7B90E7ACFBB246B
:1021F000B394B5CF83E0891510F080E0B6CF129686
:102200008D919C9113971496A0934F3EB093503E9E
:102210002091513E3091523E20934D3E30934E3EA0
:102220006CEF690D6093083E2FEF2093063E1092ED
:10223000073EE091023EF091033E982789279827B8
:102240000995811107C0E091513EF091523E81E025
:1022500080838BCF892F89CF81E02091073E909199
:10226000083E291708F080E008957091073EA72FD7
:10227000B0E0262F30E0FD01E20FF31F4091083E51
:1022800050E04E175F07B4F040914F3E5091503EE2
:10229000A40FB51F2115310541F0FC01280F391F8E
:1022A0008D918193E217F307D9F7670F6093073E8B
:1022B00081E0089580E00895E0914F3EF091503E16
:1022C00081E08093073E80810895E0914F3EF09138
:1022D000503E8091073E91E0980F9093073EE80FA3
:1022E000F11D80810895E0914F3EF091503E209184
:1022F000073EE20FF11D6081862F90E0A0E0B0E084
:10230000B82FAA27992788273381832B3181A32BC4
:102310003281BC01CD01732B2C5F2093073E0895C1
:102320007091053EE72FF0E0262F30E0DF01A20F8D
:10233000B31F4091063E50E04A175B07ACF0409156
:102340004D3E50914E3EE40FF51F2115310541F0F1
:10235000DC012E0F3F1F8D918193E217F307D9F710
:10236000670F6093053E08950895CF93DF934091E2
:102370004D3E50914E3E2091053E3091063EFC016F
:102380006FEF620F05C0831770F4282F681781F074
:1023900081E0820FDF019191EA01C20FD11D988384
:1023A0009C919111F0CF8093053EDF91CF910895DC
:1023B0006093053EDF91CF9108959091053E492F9E
:1023C00050E0BA016F5F7F4F2091063E30E0621708
:1023D00073075CF420914D3E30914E3E9F5F909389
:1023E000053EF901E40FF51F808308953091053E05
:1023F00022E0230F4091063E241750F4E0914D3E19
:10240000F0914E3EE30FF11D908381832093053EB2
:1024100008953091053E24E0230F4091063E241795
:1024200060F4E0914D3EF0914E3EE30FF11D90833C
:102430008183728363832093053E0895E0914D3E2E
:10244000F0914E3E81E08093053E10821092043E52
:1024500008958091043E882381F08091053E809309
:10246000043EE0914D3EF0914E3E91E0980F9093E6
:10247000053EE80FF11D108208958091053E8130E0
:1024800071F708959091043EE0914D3EF0914E3EDB
:10249000E90FF11D8091053E891B8083089590917D
:1024A000053E992341F0E0914D3EF0914E3E208152
:1024B000211101C0908308952091053E213051F1F2
:1024C00091E0920F2093043E30E0E0914D3EF09178
:1024D0004E3EDF01A90FB11D8C9382E0890F8093DE
:1024E000053E51E0590FDF01A50FB11D4C9361115D
:1024F00005C0E20FF31F83E0808308959D5F9093F2
:10250000053EDF01A80FB11D6C93E20FF31F84E0BD
:10251000808308951092043E91E020E030E0D5CF12
:102520002091053E2130B1F191E0920F2093043EBD
:10253000E22FF0E020914D3E30914E3ED901A90F9F
:10254000B11D8C9382E0890F8093053E51E0590FB5
:10255000D901A50FB11D4C936F3F710599F090F013
:102560009D5FD901A80FB11D7C9385E041E0490F23
:102570004093053ED901A90FB11D6C93E20FF31FE3
:10258000808308956115710559F483E0E20FF31F0C
:10259000808308951092043E91E0E0E0F0E0CACF1D
:1025A000982F84E0E3CFEF92FF923091053E3130D7
:1025B00009F459C091E0930F3093043EA32FB0E08B
:1025C000E0904D3EF0904E3EF701E90FF11D808303
:1025D00082E0890F8093053E31E0390FF701E30F68
:1025E000F11D208341155105610521E0720710F1AD
:1025F0009D5FF701E80FF11D708327E031E0390F8F
:10260000F701E90FF11D608381E0830FF701E30F0C
:10261000F11D5083922F21E0280F2093053EF701F2
:10262000E80FF11D4083F701EA0FFB1F9083FF9035
:10263000EF9008954115510591E069077105D8F4AF
:102640004F3F51056105710509F0C0F44115510571
:102650006105710571F493E0F701EA0FFB1F9083A8
:10266000FF90EF9008951092043E91E0A0E0B0E05A
:10267000A7CF94E0D0CF982F26E0C0CF382F25E009
:10268000C3CF2091053E2130A9F191E0920F209314
:10269000043E20914D3E30914E3EF901E90FF11D6F
:1026A000808382E0890F8093053E41E0490FF90164
:1026B000E40FF11D67FD0CC048ED408361110BC0B4
:1026C00083E09091043EF901E90FF11D80830895A4
:1026D00049ED408361959D5F9093053EF901E80FB8
:1026E000F11D608384E09091043EF901E90FF11D32
:1026F000808308951092043E91E0CBCF2091053E57
:102700002130E1F191E0920F2093043E422F50E0FE
:1027100020914D3E30914E3EF901E90FF11D80832D
:1027200082E0890F8093053EE1E0E90FD901AE0F09
:10273000B11DFD0177FD28C0A8EDA0836F3F710595
:10274000A1F098F09D5FF901E80FF11D708385E01D
:1027500071E0790F7093053EF901E90FF11D608377
:10276000F901E40FF51F808308956115710591F457
:1027700083E0F901E40FF51F808308951092043E71
:1027800091E040E050E0C4CFA9EDA0837195619540
:102790007109D4CF982F84E0DBCFCF93DF93E09102
:1027A000053EE13009F45AC091E09E0FE093043EEB
:1027B000F0E020914D3E30914E3ED901A90FB11D60
:1027C0008C9382E0890F8093053EA1E0A90FE90177
:1027D000CA0FD11DDE0177FD47C0C8EDCC9341156E
:1027E00051056105D1E07D0708F19D5FD901A80F72
:1027F000B11D7C93A7E0B1E0B90FE901C90FD11D6C
:10280000688381E08B0FE901CB0FD11D58839A2F8C
:10281000A1E0A80FA093053ED901A80FB11D4C93CC
:10282000E20FF31F9083DF91CF9108954115510579
:1028300091E06907710548F54F3F51056105710544
:1028400009F030F54115510561057105B9F493E0C2
:10285000E20FF31F9083DF91CF9108951092043E11
:1028600091E0E0E0F0E0A5CFC9EDCC93DA0157FDAF
:1028700007C0AD01BB0F660B770BB1CF94E0C8CF9B
:10288000AA27BB27A41BB50BF4CF982FA6E0B3CF84
:10289000B82FA5E0B6CFE0E0F8E020EC2683408733
:1028A00051878093603E9093613E60935E3E70934B
:1028B0005F3E2AE02093553E80935C3E90935D3EC0
:1028C00008958093553E08951092583E1092563EBA
:1028D0001092573E8091603E9091613E80935C3EA5
:1028E00090935D3E08958093593E80915E3E909115
:1028F0005F3E80935A3E90935B3E08959091573E81
:10290000983C90F59F5F9093573E983C39F1A09189
:102910005C3EB0915D3E8091583E3091563E03C082
:1029200090E0831798F42091040827FF25C0909128
:102930000008FD01E80FF11D90838F5F813081F762
:102940003111EECF3C9190E0831768F38093583EAD
:102950001092573E3093563E82E008958091583E43
:10296000882391F083E008951092583E1092563ECD
:102970001092573E80E008958093583E9093573EC2
:102980003093563E81E0911180E008958091593E48
:102990008823A9F09091040895FF11C0E0915A3E58
:1029A000F0915B3E919190930208815051F4109206
:1029B000593EE0935A3EF0935B3E82E0089580E0FA
:1029C00008959091040895FDEDCF8093593EE093D2
:1029D0005A3EF0935B3E81E00895EF92FF920F9391
:1029E0001F93CF93DF937B0189014093593E8093DE
:1029F0005A3E90935B3EC42F242F80915A3E909173
:102A00005B3E09C02091040825FD0CC02C2F011548
:102A1000110509F04BC0CC23D1F33091040835FFE8
:102A2000F6CFFC01819180930208C150CF0151F78C
:102A30001092593EE0935A3EF0935B3E1092583EFE
:102A40001092563E1092573EE0925C3EF0925D3EF0
:102A50008091553E882379F0F12C90E040E0983C3D
:102A600090F49F5F9093573E983C61F58091583E5B
:102A7000882379F0C82F8C2FDF91CF911F910F9170
:102A8000FF90EF9008951092583E1092563E10928B
:102A9000573E01151105D9F1D1E0D40FF801099580
:102AA0004D2F4F3FB9F19091573ED9CF2093593ECA
:102AB00080935A3E90935B3EF8010995C091593E30
:102AC0002C2F9BCFA0915C3EB0915D3E8091583EF3
:102AD0003091563E03C0831798F490E0209104088B
:102AE00027FF1FC090910008FD01E80FF11D9083A2
:102AF0008F5F813081F73111EECF3C91831768F3FE
:102B00003093563E8093583E1092573EB3CF4F5F5E
:102B10004F3F49F6F3948091553EF81608F49DCF47
:102B2000AACF3093563E8093583E9093573E9111D2
:102B3000B0CF0115110511F0D1E0B0CF41E091CF38
:102B40008F92AF92BF92CF92DF92EF920F93CF937B
:102B5000DF93CDB7DEB76093753E7093763E80937A
:102B6000773E9093783E2093713E3093723E40932F
:102B7000733E5093743E0093703EE0926F3EC0925D
:102B80006D3ED0926E3EA0926B3EB0926C3E8092B3
:102B90006A3E8C859D858093683E9093693E8E85C4
:102BA0009F858093663E9093673E8889998980933C
:102BB000643E9093653E8A899B898093623E9093A0
:102BC000633EDF91CF910F91EF90DF90CF90BF9058
:102BD000AF908F9008950F931F93CF93DF93C62FDD
:102BE0008F3429E4920709F4FEC0A0F08934F0E59F
:102BF0009F0709F417C1833520E59207B1F18734A7
:102C0000904509F4A3C080E090E0DF91CF911F913F
:102C10000F9108958934F8E49F0709F4D8C08934E6
:102C200029E4920709F44FC08934964461F70E9461
:102C30001E126091753E7091763E8091773E909124
:102C4000783E0E9409126091713E7091723E8091AF
:102C5000733E9091743E0E94091280EC0E944F12C4
:102C6000DF91CF911F910F9108950E941E120E9433
:102C70002C11882301F10E946511C82F40916A3EF2
:102C80004423B1F0A091683EB091693E8C91C81781
:102C900009F43FC0CD01089620E007C0DC0108968A
:102CA000FC0138973081C317A1F12F5F4213F6CF93
:102CB00080E00E94DD1180EC0E944F12DF91CF91E5
:102CC0001F910F9108950E941E126091703ECC23B7
:102CD00091F06C1710F4662371F00E946511E09179
:102CE0006D3EF0916E3E8083E091663EF091673ECE
:102CF00009956091703E80916D3E90916E3E0E946C
:102D0000901180EC0E944F12DF91CF911F910F9193
:102D1000089513966C91139714968D919C91159725
:102D20000E943511811102C08FEFC3CFE091623E46
:102D3000F091633E8C2F09958823B1F38C2F0E946C
:102D4000DD11C150CE3F08F492CFB5CF0E941E12C4
:102D50000E942C11882309F4AECF0E946511509176
:102D60006A3E5523A9F3A091683EB091693E4C910B
:102D7000481709F47FC09D01285F3F4F90E09F5F97
:102D8000951731F3E901CA1BDB0BB901285F3F4FEF
:102D9000F901389740818413F2CFFB01048115813A
:102DA000842F0E94DD11E091683EF091693EEC0FA6
:102DB000FD1F83810E94DD118091683E9091693EE4
:102DC000C80FD91F6B81C8010E949011C1CF0E940A
:102DD0001E12C0E0D3E189910E94DD11C031F3E100
:102DE000DF07C9F768CF0E941E1260916F3ECC23A7
:102DF00091F06C1710F4662371F00E946511E09158
:102E00006B3EF0916C3E8083E091643EF091653EB4
:102E1000099560916F3E80916B3E90916C3E0E944F
:102E2000901149CF0E941E12C11128C080916A3EA4
:102E3000882309F440CFE091683EF091693E28E094
:102E4000C29FE00DF11D11248081D1811281268164
:102E50003781232B09F0D0680E94DD118D2F0E944D
:102E6000DD11812F0E94DD11CF5F80916A3EC8176E
:102E700010F321CFBD01C0E0D0E08FCFC13009F009
:102E80001ACF0E94651130916A3E3323A1F0E09180
:102E9000683EF091693E468157819081891779F0AB
:102EA00090E006C02085389646815781281739F072
:102EB0009F5F9313F7CF80E00E94DD11A4CECA017B
:062EC0000E94B511F8CEDE
:020000040100F9
:103E000000000000000000000000000000000000B2
:103E100000000000000000000000000000000000A2
:103E20000000000000000000000000000000000092
:103E30000000000000000000000000000000000082
:103E40000000000000000000000000000000000072
:103E50000000000000000000000000000000000062
:103E60000000000000000000000000000000000052
:093E700000000000000000000049
:0400000300000400F5
:00000001FF
