:100400000C943E020C9450020C9450020C94500236
:100410000C9450020C9450020C9450020C94500214
:100420000C9450020C9450020C9450020C94500204
:100430000C9450020C9450020C9450020C945002F4
:100440000C9450020C9450020C9450020C945002E4
:100450000C9450020C9450020C9450020C945002D4
:100460000C9450020C9450020C9450020C945002C4
:100470000C9450020C9450020C94500211241FBE94
:10048000CFEFCDBFDFE3DEBF29E3A0E0B8E301C0DB
:100490001D92A836B207E1F70E945D070C94C607CB
:1004A0000C94000280934D3890934E3860934B38F3
:1004B00070934C3808956F927F928F929F92AF9273
:1004C000BF92CF92DF92EF92FF920F931F93CF9341
:1004D000DF93E0914D38F0914E38808087FCB5C0B5
:1004E00081E0881508F0DBC0BF016F5F7F4FC181DD
:1004F000C0930238CC2309F4D2C0082D10E04C2F51
:1005000050E0401751070CF0CAC0AA24A394B12CA4
:1005100099249394D1E095E2C92E98E3D92E23E053
:10052000E22E28E3F22E22C0CF7309F06AC080E8E1
:10053000681609F478C0D70DD81508F04DC0AD2E57
:10054000B12C60914D3870914E386A0D7B1DFB01C6
:10055000C081C0930238CC2309F43EC04C2F50E038
:10056000CA018A0D9B1D08171907B4F1C0924938BA
:10057000D0924A38E0924738F092483810920138C9
:100580001092003885E298E30E94BD0743E058E3EB
:1005900065E278E38C2F0E947006C82FF82FF07C5C
:1005A0006F2E7090023887FDBFCF80914B389091AD
:1005B0004C38472D50E060914D3870914E386A0D9F
:1005C0007B1D890D911D0E94BD07970C6110ACCF5A
:1005D000D70DD81508F4B3CFE0914B38F0914C38D3
:1005E0009082892DDF91CF911F910F91FF90EF9015
:1005F000DF90CF90BF90AF909F908F907F906F9043
:10060000089580914B3890914C384C2F50E0609178
:10061000473870914838890D911D0E94BD079C0E86
:1006200080E8681288CF80914B3890914C38472DE4
:1006300050E060914D3870914E386A0D7B1D890DE8
:10064000911D0E94BD07970C76CF682D6F776330A0
:1006500010F480E0C7CFCF01039680934938909380
:100660004A3880914B3890914C388093473890931A
:10067000483863506093023881819281109201382A
:100680009827892798270E941A07982F907C51F461
:10069000E0914B38F0914C3881E08083A3CF9924CE
:1006A00093949ACF8F739ECF81E0209101389091DF
:1006B0000238291708F080E00895CF93DF93D09196
:1006C0000138ED2FF0E0462F50E0DF01A40FB51FF9
:1006D0002091023830E02A173B0724F480E0DF91B4
:1006E000CF910895C62F6091493870914A386E0FA6
:1006F0007F1F0E94BD076D2F6C0F6093013881E052
:10070000DF91CF910895E0914938F0914A38809176
:10071000013891E0980F90930138E80FF11D808126
:100720000895E0914738F0914838808381E08093C4
:1007300000380895CF93DF93D09100382D2F30E00B
:10074000462F50E0F901E40FF51FB39774F4C62F5C
:10075000BC018091473890914838820F931F0E94C6
:10076000BD076D2F6C0F60930038DF91CF91089516
:10077000CF93DF934091473850914838209100380B
:10078000FC0103C0292F923280F491E0920FDF0127
:100790008191EA01C20FD11D88838C918111F2CF22
:1007A00090930038DF91CF91089590930038DF91B6
:1007B000CF91089590910038292F30E021323105F2
:1007C0005CF440914738509148389F5F90930038CF
:1007D000FA01E20FF31F808308953091003822E080
:1007E000230F223250F4E0914738F0914838E30F5C
:1007F000F11D9083818320930038089540914738FC
:100800005091483820910038FA01E20FF11D908391
:1008100091E0920FFA01E90FF11D808382E0820FCF
:10082000FA01E80FF11D708384E0820F8093003895
:100830002D5FFA01E20FF11D6083089520910038C9
:10084000222351F0E0914738F0914838908191117E
:1008500002C02083922F892B0895E0E0F8E020EC7D
:1008600026834087518780935A3890935B386093F2
:100870005838709359382AE020934F38809356386F
:100880009093573808951092523810925038109221
:10089000513880915A3890915B38809356389093B4
:1008A000573808958093533880915838909159382B
:1008B0008093543890935538089590915138983CCE
:1008C00098F59F5F90935138983C41F1A09156382C
:1008D000B0915738809152383091503803C090E031
:1008E0008317A0F42091040827FF26C090910008E8
:1008F000FD01E80FF11D90838F5F813081F7311189
:10090000EECF3C913F7790E0831760F380935238AD
:10091000109251383093503882E0089580915238C7
:10092000882391F083E00895109252381092503845
:100930001092513880E00895809352389093513846
:100940003093503881E0911180E0089580915338C0
:100950008823A9F09091040895FF11C0E0915438C4
:10096000F0915538919190930208815051F4109272
:100970005338E0935438F093553882E0089580E07E
:1009800008959091040895FDEDCF80935338E0933E
:100990005438F093553881E008950F931F93CF9307
:1009A000DF93C62F8F3429E4920709F4EBC098F047
:1009B000893420E5920709F48AC0833520E592073F
:1009C00069F18734904509F4A0C080E0DF91CF91B0
:1009D0001F910F910895893428E4920709F4C5C046
:1009E000893429E4920709F442C08934964469F7AE
:1009F00080E00E94910368E473E48DE49AE50E942C
:100A0000FE0362E070E080E090E00E94FE0380EC74
:100A1000DF91CF911F910F910C941E0480E00E94F2
:100A20009103D091A88F0E945403882381F30E94E0
:100A30008303C82FDD2389F08091908F8C1731F1CB
:100A4000E0E9FFE881E090E006C0AC012085019676
:100A50003896C217E9F08D17C0F380E00E94DA03E0
:100A600080ECDF91CF911F910F910C941E0480E0D8
:100A70000E949103CC2309F4BBC0D091A98FDC174D
:100A800008F0C5C0D111C3C060E0B4C040E050E080
:100A9000440F551F440F551F440F551FFA01E057CF
:100AA000F0476381848195810E945D03811102C0BA
:100AB0008FEFD4CF8C2F0E941C078823C9F38C2F73
:100AC0000E94DA03C150CE3F08F4ADCFA0CF80E042
:100AD0000E949103C11166C00091A88F002309F400
:100AE00096CFC0E9DFE810E088810E94DA038981AF
:100AF00020E1829FC00111249A81892B0E94DA0390
:100B00001F5F28961013F0CF82CF80E00E949103E0
:100B10001091A88F0E945403882309F478CF0E9473
:100B200083031123B9F39091908F8917C1F1E0E904
:100B3000FFE821E030E0211768F7E90190852F5F99
:100B40003F4F38968913F7CF892F0E94DA03CC0FD5
:100B5000DD1FCC0FDD1FCC0FDD1FC057D0476B81D1
:100B60008C819D810E949A03D5CF80E00E949103E1
:100B7000C0E0D3E189910E94DA03C03183E1D80754
:100B8000C9F745CF80E00E949103CC2351F1D09169
:100B9000A98FDC17A0F5D11132C060E024C0C0E0FD
:100BA000D0E0D2CFC13009F032CF0E9483036091F0
:100BB000A88F662391F09091908F891781F1E0E9D9
:100BC000FFE821E030E007C0A90190852F5F3F4F8B
:100BD0003896891731F12617B8F380E00E94DA03BE
:100BE000F4CE6091A98F86E698E30E949A030FCF16
:100BF0006091A98F87E698E30E949A0308CF0E942C
:100C00008303809366380E945C076D2FECCF0E94AF
:100C10008303809367380E945B076D2FEBCF40E022
:100C200050E0440F551F440F551F440F551FFA0144
:100C3000E057F047868197810E94B803E8CE81E0B3
:100C400080936738809366381092643810926538C4
:100C500089E090E080936238909363381092603816
:100C600010926138209160383091613880916238FB
:100C7000909163388217930740F480916238909185
:100C80006338809360389093613820916038309158
:100C9000613880916438909165382817390740F49D
:100CA0008091643890916538809360389093613872
:100CB000809160389091613880935C3890935D3872
:100CC0008091623890916338209164383091653812
:100CD0000196821B930B80935E3890935F38089542
:100CE000833010F480E0089590916738FB012181F2
:100CF0002913F8CF9281292F207B203B99F7292FA8
:100D00002370903BB9F1392F387B383B59F1973B31
:100D100009F465C080E00E949103809166380E94CA
:100D2000DA0380EC0E94DA0380915C3890915D38A0
:100D30008F3F910509F048F480915C3890915D38BF
:100D40000E94DA0380E40C941E0480915C38909138
:100D50005D3880915C3890915D380E94ED0380E4AD
:100D60000C941E049AEF980F923008F45DC08830FE
:100D700009F44CC0213071F681E090E02091623896
:100D80003091633840915C3850915D38241B30E0DD
:100D900028173907C8F4821B930B019720915E38FE
:100DA00030915F382817390730F520915E3830913F
:100DB0005F3860915E3870915F380E94A907809318
:100DC0005C3890935D38A6CF20915C3830915D38C7
:100DD000820F931F80935C3890935D389BCF863051
:100DE00009F098CFFB01838190E0982F8827248118
:100DF000820F911D15C02091643830916538820FA3
:100E0000931F80935C3890935D3884CFFB0183817E
:100E100090E0982F88273481830F911D213041F075
:100E2000009709F0ABCF76CFFB01838190E0F6CF3E
:100E30000196F6CF0C94CD04209160383091613842
:100E400080916238909163388217930740F48091C3
:100E50006238909163388093603890936138209124
:100E600060383091613880916438909165382817E6
:100E7000390740F4809164389091653880936038E8
:100E800090936138809160389091613880935C389C
:100E900090935D38809162389091633820916438E6
:100EA000309165380196821B930B80935E38909346
:100EB0005F3881E008950895089540E068ED81E687
:100EC00090E00E94A507239880913304877F809348
:100ED0003304229A2A9A0798809117048860809395
:100EE000170480911704887F83608093170440E57E
:100EF00050E068E678E388EE98E30E942D0468E607
:100F000078E388EE98E30E9452020E941F0606C012
:100F10000E94A6048091090487FD10C00E945D0410
:100F20008230B1F70E945B020E9452040E94430487
:100F30000E94A6048091090487FFF0CF41E068ED8C
:100F400081E490E00E94A507E9CFFC0164BF4083E3
:100F50000895AA1BBB1B51E107C0AA1FBB1FA61700
:100F6000B70710F0A61BB70B881F991F5A95A9F752
:100F700080959095BC01CD010895FB01DC0102C074
:100F800001900D9241505040D8F70895F894FFCF4A
:100F9000010201026438000002020102623800000E
:0A0FA00003020102603800000301A3
:0400000300000400F5
:00000001FF
