:100400000C943E020C945B020C945B020C945B0215
:100410000C945B020C945B020C945B020C945B02E8
:100420000C945B020C945B020C945B020C945B02D8
:100430000C945B020C945B020C945B020C945B02C8
:100440000C945B020C945B020C945B020C945B02B8
:100450000C945B020C945B020C945B020C945B02A8
:100460000C945B020C945B020C945B020C945B0298
:100470000C945B020C945B020C945B0211241FBE73
:10048000CFEFCDBFDFE3DEBF18E3A0E0B8E3EAEFD4
:10049000F5E002C005900D92A831B107D9F729E324
:1004A000A8E1B8E301C01D92A332B207E1F70E94B0
:1004B000A5020C94F5020C94000281E008950895C1
:1004C00008958F929F92AF92CF92DF92EF92FF9218
:1004D0000F938DE592E09F938F938FE592E09F932A
:1004E0008F9380E692E09F938F9380E0882E88E33D
:1004F000982E93E0A92E28E1C22E28E3D22E39E1CE
:10050000E32E38E3F32E01E020E030E0A90168E4B7
:1005100073E48DE49AE50E947E1381E0809319389C
:10052000809318380F900F900F900F900F900F90AE
:100530000F91FF90EF90DF90CF90AF909F908F90B2
:10054000089580E008950C94C71340E068ED81E6BB
:1005500090E00E94F102239880913304877F80937A
:100560003304229A2A9A079880911704886080930E
:10057000170480911704887F83608093170440E5F7
:1005800050E063E278E383EA98E30E94271221EACD
:1005900032E043EA52E063E278E383EA98E30E94C0
:1005A00000100E94610206C00E94A31280910904FB
:1005B00087FD10C00E945A128230B1F70E941110BC
:1005C0000E944F120E9440120E94A31280910904BF
:1005D00087FFF0CF41E068ED81E490E00E94F102F6
:0E05E000E9CFFC0164BF40830895F894FFCF7B
:0C05EE004D79207365727669636500002A
:1005FA000A01010122380000140301041E38000018
:08060A001E0401041A38EE85FC
:102000008093513E9093523E60934F3E7093503E6A
:102010004093023E5093033E2093003E3093013E96
:1020200008959F92AF92BF92CF92DF92EF92FF926C
:102030000F931F93CF93DF93E091513EF091523E67
:10204000908097FCC3C081E0891508F0EEC0DF01E5
:10205000119681818093063E882309F4E6C0E92C1D
:10206000F12C282F30E02E153F050CF0DEC0C1E02A
:10207000D0E0BB24B394AA24A39409E21EE397E022
:10208000C92E9EE3D92E00934D3E10934E3EC09232
:102090004B3ED0924C3E1092053E1092043E09E217
:1020A0001EE3F801275D314C9D919193E217F307F0
:1020B000D9F7E091003EF091013E47E05EE369E22E
:1020C0007EE30995582F507C87FF4BC04091063E18
:1020D0008F7309F067C05038C9F4842F90E02091C5
:1020E000513E3091523EC20FD31FE0914F3EF091CE
:1020F000503EEB0DF11D009741F09F01280F391F55
:10210000999191932E173F07D9F7B40EA40EA914F5
:10211000B0F4CA2DD0E0A091513EB091523EAC0F28
:10212000BD1F8C918093063E882349F0282F30E014
:10213000A9014C0F5D1FE416F5060CF0A4CFE09149
:102140004F3EF091503EB0828B2DDF91CF911F9189
:102150000F91FF90EF90DF90CF90BF90AF909F9046
:1021600008954091063E242F30E0A091513EB09159
:10217000523EAC0FBD1FE0914F3EF091503EEB0D33
:10218000F11D2115310539F02E0F3F1F9D919193BF
:102190002E173F07D9F7B40E552309F4B7CF8F7325
:1021A00009F499CFE0914F3EF091503EA0914B3E03
:1021B000B0914C3EEB0DF11D9F01280F311D9D91FB
:1021C0009193E217F307D9F7B80E85CF892D8F7752
:1021D000833010F480E0B9CF9F012D5F3F4F2093F3
:1021E0004D3E30934E3E20914F3E3091503E2093D5
:1021F0004B3E30934C3E6DEF680F6093063E8181FD
:1022000092811092053EE091023EF091033E9827A4
:10221000892798270995982F907C51F4E0914F3E9B
:10222000F091503E81E0808390CFBB24B39487CF60
:102230008F738BCF81E02091053E9091063E291748
:1022400008F080E008957091053EA72FB0E0262F9A
:1022500030E0FD01E20FF31F4091063E50E04E17C3
:102260005F07B4F040914D3E50914E3EA40FB51F14
:102270002115310541F0FC01280F391F8D91819303
:10228000E217F307D9F7670F6093053E81E00895E1
:1022900080E00895E0914D3EF0914E3E81E08093C4
:1022A000053E80810895E0914D3EF0914E3E809133
:1022B000053E91E0980F9093053EE80FF11D808157
:1022C0000895E0914D3EF0914E3E2091053EE20F83
:1022D000F11D6081862F90E0A0E0B0E0B82FAA2722
:1022E000992788273381832B3181A32B3281BC012D
:1022F000CD01732B2C5F2093053E0895E0914B3E5A
:10230000F0914C3E808381E08093043E089540919B
:10231000043EE42FF0E0262F30E0DF01A20FB31FD0
:102320009397ACF4A0914B3EB0914C3EEA0FFB1F4B
:102330002115310541F0DC012E0F3F1F8D91819356
:10234000E217F307D9F7640F6093043E08950895E8
:10235000CF93DF9340914B3E50914C3E2091043EF1
:10236000FC0103C0292F923280F491E0920FDF012B
:102370008191EA01C20FD11D88838C918111F2CF26
:102380009093043EDF91CF9108959093043EDF91A6
:10239000CF9108959091043E292F30E021323105EC
:1023A0005CF440914B3E50914C3E9F5F9093043EB5
:1023B000FA01E20FF31F808308953091043E22E07A
:1023C000230F223250F4E0914B3EF0914C3EE30F4C
:1023D000F11D908381832093043E089540914B3EEC
:1023E00050914C3E2091043EFA01E20FF11D908382
:1023F00091E0920FFA01E90FF11D808382E0820FD4
:10240000FA01E80FF11D708384E0820F8093043E8F
:102410002D5FFA01E20FF11D608308952091043EC3
:10242000222351F0E0914B3EF0914C3E908191116E
:1024300002C02083922F892B089580914D3E909168
:102440004E3E089580914B3E90914C3E0895E0E0C1
:10245000F8E020EC26834087518780935E3E90937E
:102460005F3E60935C3E70935D3E2AE02093533E56
:1024700080935A3E90935B3E08958093533E089517
:102480001092563E1092543E1092553E80915E3E00
:1024900090915F3E80935A3E90935B3E0895809367
:1024A000573E80915C3E90915D3E8093583E909364
:1024B000593E08959091553E983C98F59F5F9093B2
:1024C000553E983C41F1A0915A3EB0915B3E8091BF
:1024D000563E3091543E03C090E08317A0F4209103
:1024E000040827FF26C090910008FD01E80FF11DA8
:1024F00090838F5F813081F73111EECF3C913F7730
:1025000090E0831760F38093563E1092553E3093CF
:10251000543E82E008958091563E882391F083E0F6
:1025200008951092563E1092543E1092553E80E00F
:1025300008958093563E9093553E3093543E81E0EB
:10254000911180E008958091573E8823A9F09091E1
:10255000040895FF11C0E091583EF091593E9191C9
:1025600090930208815051F41092573EE093583EE8
:10257000F093593E82E0089580E008959091040818
:1025800095FDEDCF8093573EE093583EF093593E32
:1025900081E00895EF92FF920F931F93CF93DF9303
:1025A0007B0189014093573E8093583E9093593E5A
:1025B000C42F242F8091583E9091593E09C02091FC
:1025C000040825FD0CC02C2F0115110509F04BC086
:1025D000CC23D1F33091040835FFF6CFFC01819173
:1025E00080930208C150CF0151F71092573EE093FB
:1025F000583EF093593E1092563E1092543E10921F
:10260000553EE0925A3EF0925B3E8091533E8823C5
:1026100079F0F12C90E040E0983C90F49F5F90932B
:10262000553E983C61F58091563E882379F0C82F3D
:102630008C2FDF91CF911F910F91FF90EF90089514
:102640001092563E1092543E1092553E01151105BF
:10265000E1F1D1E0D40FF80109954D2F4F3FC1F1C1
:102660009091553ED9CF2093573E8093583E9093FA
:10267000593EF8010995C091573E2C2F9BCFA09150
:102680005A3EB0915B3E8091563E3091543E03C01D
:102690008317A0F490E02091040827FF20C09091B8
:1026A0000008FD01E80FF11D90838F5F813081F7F5
:1026B0003111EECF3C913F77831760F33093543E56
:1026C0008093563E1092553EB2CF4F5F4F3F41F63A
:1026D000F3948091533EF81608F49CCFA9CF309321
:1026E000543E8093563E9093553E9111AFCF0115C5
:1026F000110511F0D1E0AFCF41E090CF8F929F92C2
:10270000AF92CF92DF92EF92FF920F93CF93DF932E
:10271000CDB7DEB76093723E7093733E8093743E84
:102720009093753E20936E3E30936F3E4093703E83
:102730005093713E00936D3EE0926B3EF0926C3E82
:10274000C092693ED0926A3EA092683E8092663EF8
:102750009092673E8D859E858093643E9093653E02
:102760008F8598898093623E9093633E89899A8988
:102770008093603E9093613EDF91CF910F91FF90E7
:10278000EF90DF90CF90AF909F908F9008951F9320
:10279000CF93DF93C62F8F3429E4920709F4E9C061
:1027A00090F0893420E5920709F403C1833520E5D0
:1027B000920799F18734904509F498C080E0DF9141
:1027C000CF911F910895893428E4920709F4C4C079
:1027D000893429E4920709F44CC08934964471F78E
:1027E00080E00E947E116091723E7091733E8091F4
:1027F000743E9091753E0E94EE1160916E3E709114
:102800006F3E8091703E9091713E0E94EE1180EC7F
:10281000DF91CF911F910C940E1280E00E947E11E7
:102820000E941A11882399F30E945311C82F4091D6
:10283000683E4423A9F0A091663EB091673E8C911A
:10284000C817B9F1CD01089620E007C0DC01089651
:10285000FC0138973081C31761F12F5F2413F6CF45
:1028600080E00E94CA1180ECDF91CF911F910C94FF
:102870000E1280E00E947E1160916D3ECC2391F09B
:102880006C1710F4662371F00E945311E0916B3EB7
:10289000F0916C3E8083E091643EF091653E099535
:1028A00060916D3E80916B3E90916C3E0E948711CD
:1028B000AECF13966C91139714968D919C911597AA
:1028C0000E942311811102C08FEFCBCFE091603EB7
:1028D000F091613E8C2F09958823B1F38C2F0E94D3
:1028E000CA11C150CE3F08F49BCF91CF80E00E9427
:1028F0007E110E941A11882309F489CF0E94531176
:102900005091683E5523A9F3A091663EB091673E71
:102910004C91841709F47EC09D01285F3F4F90E0E1
:102920009F5F951731F3E901CA1BDB0B285F3F4F0F
:10293000F901389740818413F3CF842F0E94CA1184
:102940008091663E9091673EC80FD91F6B818C8144
:102950009D810E948711CDCF80E00E947E11C0E052
:10296000D3E189910E94CA11C03183E1D807C9F728
:102970004ECF80E00E947E1160916D3ECC2391F09D
:102980006C1710F4662371F00E945311E091693EB8
:10299000F0916A3E8083E091623EF091633E09953A
:1029A00060916D3E8091693E90916A3E0E948711D0
:1029B0002ECF80E00E947E11C1112FC08091683E11
:1029C000882309F424CF10E0C12FD0E0CC0FDD1F05
:1029D000CC0FDD1FCC0FDD1FE091663EF091673E0E
:1029E000EC0FFD1F80810E94CA118091663E90917C
:1029F000673EC80FD91F898120E1829FC001112441
:102A00009A81892B0E94CA111F5F8091683E181716
:102A1000D8F2FDCEC0E0D0E090CFC13009F0F7CEC3
:102A20000E9453115091683E5523B9F0E091663EE3
:102A3000F091673E90818917A1F09F01285F3F4F79
:102A400090E008C0F901285F3F4FD90118974C91D9
:102A5000841739F09F5F9513F5CF80E00E94CA116B
:0C2A6000ADCE868197810E94A811D1CED6
:020000040100F9
:103E000000000000000000000000000000000000B2
:103E100000000000000000000000000000000000A2
:103E20000000000000000000000000000000000092
:103E30000000000000000000000000000000000082
:103E40000000000000000000000000000000000072
:103E50000000000000000000000000000000000062
:103E60000000000000000000000000000000000052
:063E70000000000000004C
:0400000300000400F5
:00000001FF
