:100400000C943E020C945B020C945B020C945B0215
:100410000C945B020C945B020C945B020C945B02E8
:100420000C945B020C945B020C945B020C945B02D8
:100430000C945B020C945B020C945B020C945B02C8
:100440000C945B020C945B020C945B020C945B02B8
:100450000C945B020C945B020C945B020C945B02A8
:100460000C945B020C945B020C945B020C945B0298
:100470000C945B020C945B020C945B0211241FBE73
:10048000CFEFCDBFDFE3DEBF18E3A0E0B8E3E4E8E1
:10049000F9E002C005900D92A831B107D9F729E320
:1004A000A8E1B8E301C01D92A632B207E1F70E94AD
:1004B00021040C94C0040C94000208950895409106
:1004C0001E3850911F388091203890912138841720
:1004D00095072CF480931E3890931F38AC0120911F
:1004E000223830912338421753072CF420931E38BA
:1004F00030931F38A901052E000C660B770B409333
:1005000018385093193860931A3870931B38821B2F
:10051000930B97FD07C0019680931C3890931D386C
:1005200081E00895919581959109019680931C38F9
:1005300090931D3881E008958F92AF92BF92CF9231
:10054000DF92EF920F938FE592E09F938F938DE56B
:1005500092E09F938F938EE592E09F938F9380E03C
:1005600098E39F938F9383E0882E94E2A92E98E3DB
:10057000B92E25E2C22E28E3D22EEE24E39401E028
:1005800022E030E040E050E068E473E48DE49AE576
:100590000E948D1581E08093253880932438109235
:1005A00022381092233889E090E08093203890938D
:1005B000213810921E3810921F381092183810925D
:1005C000193810921A3810921B388AE090E0809304
:1005D0001C3890931D388DB79EB708968DBF9EBF6F
:1005E0000F91EF90DF90CF90BF90AF908F900895D4
:1005F000CF92DF92EF92FF920F931F93CF93DF93EF
:10060000833030F0FB01218190912538291751F07A
:1006100080E0DF91CF911F910F91FF90EF90DF90DD
:10062000CF9008959281292F207F203B89F79370E6
:100630008430A9F12AEF280F223088F1853009F49F
:10064000EAC0883009F4E7C0913009F4F1C000E055
:1006500010E00E94081240EBB801809124380E94FB
:100660007B12409118385091193860911A38709166
:100670001B38809124380E94B813909124388091BF
:100680002538981709F463C080E4DF91CF911F915A
:100690000F91FF90EF90DF90CF900C943912FB01F7
:1006A000438150E060E070E0913009F4ACC0411546
:1006B00051056105710559F28091203890912138DA
:1006C000C0912238D09123380091183810911938F0
:1006D00020911A3830911B388C179D07D4F1801B5C
:1006E000910B6C01E12CF12CC416D506E606F70639
:1006F0000CF068C001968A019B01081B190B2109A7
:100700003109C901B80120911C3830911D3840E0F1
:1007100050E062177307840795070CF479C00E94B4
:100720007F0489010F5F1F4F6E01DD0FEE08FF0888
:10073000DC01CB018C0D9D1DAE1DBF1D80931838B3
:1007400090931938A0931A38B0931B3882CF80EC5D
:100750009CCFF801E81BF90BCF016F01E12CF12CC4
:10076000C416D506E606F706E4F501968A019B0154
:10077000081B190B21093109C901B80100911C3866
:1007800010911D38980140E050E06217730784070C
:100790009507B4F10E947F0489010F5F1F4F6E011E
:1007A000DD0FEE08FF08A7019601261B370B480B4B
:1007B000590B209318383093193840931A385093B6
:1007C0001B3847CF400F511F621F731F40931838CB
:1007D0005093193860931A3870931B3800E010E07A
:1007E00038CF041B150B260B370B009318381093CA
:1007F000193820931A3830931B3800E010E029CFC5
:1008000001E010E0CCCF4F5F5F4F6F4F7F4F4FCF76
:1008100001E010E089CFFB01438150E0542F4427D1
:100820008481480F511D052E000C660B770B3CCFC1
:1008300041E050E060E070E03FCF0C94D81508959F
:10084000089540E068ED81E690E00E947B042398E3
:1008500080913304877F80933304229A2A9A0798E1
:100860008091170488608093170480911704887F13
:1008700083608093170440E550E066E278E386EAFF
:1008800098E30E94361428EF32E04DE154E066E22E
:1008900078E386EA98E30E9400100E949C0204C05C
:1008A0008091090487FD11C00E946914C82F0E941D
:1008B000B214C230C9F0C111F3CF8111F1CF0E943F
:1008C0001F048091090487FFEFCF0E94200441E0BC
:1008D00068ED81E490E00E947B040E946914C82FB7
:1008E0000E94B214C23039F70E9411100E945E14A7
:1008F0000E944F14D5CFFC0164BF40830895052E9C
:1009000097FB1EF400940E94960457FD07D00E94A6
:100910009E0407FC03D04EF40C9496045095409529
:10092000309521953F4F4F4F5F4F0895909580959B
:10093000709561957F4F8F4F9F4F0895A1E21A2EBA
:10094000AA1BBB1BFD010DC0AA1FBB1FEE1FFF1F73
:10095000A217B307E407F50720F0A21BB30BE40BC3
:10096000F50B661F771F881F991F1A9469F760950A
:100970007095809590959B01AC01BD01CF010895C4
:04098000F894FFCF19
:10098400010601022238000002060102203800009C
:08099400030601021E380000F9
:102000008093523E9093533E6093503E7093513E66
:102010004093023E5093033E2093003E3093013E96
:1020200008959F92AF92BF92CF92DF92EF92FF926C
:102030000F931F93CF93DF93E091023EF091033E05
:1020400060E080E09FEF0995E091523EF091533EB1
:10205000908097FCCBC081E0891508F0F6C0DF01C5
:10206000119681818093073E882309F4EEC0E92C04
:10207000F12C282F30E02E153F050CF0E6C0C1E012
:10208000D0E0BB24B394AA24A3940AE21EE398E010
:10209000C92E9EE3D92E00934E3E10934F3EC09220
:1020A0004C3ED0924D3E1092063E1092053E0AE202
:1020B0001EE3F801265D314C9D919193E217F307E1
:1020C000D9F7E091003EF091013E48E05EE36AE21C
:1020D0007EE30995582F507C87FF53C04091073EFF
:1020E0008F7309F06FC05038C9F4842F90E02091AD
:1020F000523E3091533EC20FD31FE091503EF091BB
:10210000513EEB0DF11D009741F09F01280F391F43
:10211000999191932E173F07D9F7B40EA40EA914E5
:10212000B0F4CA2DD0E0A091523EB091533EAC0F16
:10213000BD1F8C918093073E882349F0282F30E003
:10214000A9014C0F5D1FE416F5060CF0A4CFE09139
:10215000503EF091513EB082E091023EF091033E3C
:1021600060E08FEF9FEF09958B2DDF91CF911F914D
:102170000F91FF90EF90DF90CF90BF90AF909F9026
:1021800008954091073E242F30E0A091523EB09137
:10219000533EAC0FBD1FE091503EF091513EEB0D10
:1021A000F11D2115310539F02E0F3F1F9D9191939F
:1021B0002E173F07D9F7B40E552309F4AFCF8F730D
:1021C00009F491CFE091503EF091513EA0914C3EE8
:1021D000B0914D3EEB0DF11D9F01280F311D9D91DA
:1021E0009193E217F307D9F7B80E7DCF892D8F773A
:1021F000833010F480E0B9CF9F012D5F3F4F2093D3
:102200004E3E30934F3E2091503E3091513E2093B0
:102210004C3E30934D3E6DEF680F6093073E8181D9
:1022200092811092063EE091023EF091033E982783
:10223000892798270995982F907C51F4E091503E7A
:10224000F091513E81E0808390CFBB24B3947FCF47
:102250008F738BCF81E02091063E9091073E291726
:1022600008F080E008957091063EA72FB0E0262F79
:1022700030E0FD01E20FF31F4091073E50E04E17A2
:102280005F07B4F040914E3E50914F3EA40FB51FF2
:102290002115310541F0FC01280F391F8D918193E3
:1022A000E217F307D9F7670F6093063E81E00895C0
:1022B00080E00895E0914E3EF0914F3E81E08093A2
:1022C000063E80810895E0914E3EF0914F3E809110
:1022D000063E91E0980F9093063EE80FF11D808135
:1022E0000895E0914E3EF0914F3E2091063EE20F60
:1022F000F11D6081862F90E0A0E0B0E0B82FAA2702
:10230000992788273381832B3181A32B3281BC010C
:10231000CD01732B2C5F2093063E08954091053E1E
:10232000E42FF0E0262F30E0DF01A20FB31F9397D8
:10233000ACF4A0914C3EB0914D3EEA0FFB1F21152D
:10234000310541F0DC012E0F3F1F8D918193E21783
:10235000F307D9F7640F6093053E08950895CF936E
:10236000DF9340914C3E50914D3E2091053EFC0143
:1023700003C0292F923280F491E0920FDF01819106
:10238000EA01C20FD11D88838C918111F2CF909305
:10239000053EDF91CF9108959093053EDF91CF9157
:1023A00008959091053E292F30E0213231055CF4EB
:1023B00040914C3E50914D3E9F5F9093053EFA01F7
:1023C000E20FF31F808308953091053E22E0230F32
:1023D000223250F4E0914C3EF0914D3EE30FF11D5E
:1023E000908381832093053E08953091053E24E03B
:1023F000230F223260F4E0914C3EF0914D3EE30F0A
:10240000F11D90838183728363832093053E089539
:10241000E0914C3EF0914D3E81E08093053E10826C
:102420001092043E08958091043E882381F08091AB
:10243000053E8093043EE0914C3EF0914D3E91E08C
:10244000980F9093053EE80FF11D1082089580913A
:10245000053E813071F708959091043EE0914C3E25
:10246000F0914D3EE90FF11D8091053E891B80835F
:1024700008959091053E992349F0E0914C3EF091EA
:102480004D3E2081211101C09083892B0895209118
:10249000053E213051F191E0920F2093043E30E04F
:1024A000E0914C3EF0914D3EDF01A90FB11D8C93A0
:1024B00082E0890F8093053E51E0590FDF01A50F9F
:1024C000B11D4C93611105C0E20FF31F83E08083BF
:1024D00008959D5F9093053EDF01A80FB11D6C9399
:1024E000E20FF31F84E0808308951092043E91E090
:1024F00020E030E0D5CF2091053E2130B1F191E0D0
:10250000920F2093043EE22FF0E020914C3E309158
:102510004D3ED901A90FB11D8C9382E0890F8093A4
:10252000053E51E0590FD901A50FB11D4C936F3FE6
:10253000710599F090F09D5FD901A80FB11D7C93B2
:1025400085E041E0490F4093053ED901A90FB11D37
:102550006C93E20FF31F808308956115710559F4A0
:1025600083E0E20FF31F808308951092043E91E010
:10257000E0E0F0E0CACF982F84E0E3CFEF92FF9243
:102580003091053E313009F459C091E0930F3093FA
:10259000043EA32FB0E0E0904C3EF0904D3EF7019A
:1025A000E90FF11D808382E0890F8093053E31E0C1
:1025B000390FF701E30FF11D208341155105610526
:1025C00021E0720710F19D5FF701E80FF11D7083A4
:1025D00027E031E0390FF701E90FF11D608381E059
:1025E000830FF701E30FF11D5083922F21E0280F95
:1025F0002093053EF701E80FF11D4083F701EA0F34
:10260000FB1F9083FF90EF9008954115510591E0D5
:1026100069077105D8F44F3F51056105710509F04F
:10262000C0F4411551056105710571F493E0F7019E
:10263000EA0FFB1F9083FF90EF9008951092043EE5
:1026400091E0A0E0B0E0A7CF94E0D0CF982F26E0B3
:10265000C0CF382F25E0C3CF2091053E2130A9F10E
:1026600091E0920F2093043E20914C3E30914D3EDC
:10267000F901E90FF11D808382E0890F8093053E07
:1026800041E0490FF901E40FF11D67FD0CC048ED71
:10269000408361110BC083E09091043EF901E90F82
:1026A000F11D8083089549ED408361959D5F90936E
:1026B000053EF901E80FF11D608384E09091043E2E
:1026C000F901E90FF11D808308951092043E91E015
:1026D000CBCF2091053E2130E1F191E0920F209384
:1026E000043E422F50E020914C3E30914D3EF90186
:1026F000E90FF11D808382E0890F8093053EE1E0C0
:10270000E90FD901AE0FB11DFD0177FD28C0A8ED7D
:10271000A0836F3F7105A1F098F09D5FF901E80F6C
:10272000F11D708385E071E0790F7093053EF9012A
:10273000E90FF11D6083F901E40FF51F808308950F
:102740006115710591F483E0F901E40FF51F8083B1
:1027500008951092043E91E040E050E0C4CFA9ED0E
:10276000A083719561957109D4CF982F84E0DBCF58
:10277000CF93DF93E091053EE13009F45AC091E038
:102780009E0FE093043EF0E020914C3E30914D3E90
:10279000D901A90FB11D8C9382E0890F8093053E6A
:1027A000A1E0A90FE901CA0FD11DDE0177FD47C0E5
:1027B000C8EDCC93411551056105D1E07D0708F1C5
:1027C0009D5FD901A80FB11D7C93A7E0B1E0B90FBF
:1027D000E901C90FD11D688381E08B0FE901CB0F9F
:1027E000D11D58839A2FA1E0A80FA093053ED901CF
:1027F000A80FB11D4C93E20FF31F9083DF91CF918F
:1028000008954115510591E06907710548F54F3F5D
:1028100051056105710509F030F541155105610556
:102820007105B9F493E0E20FF31F9083DF91CF912C
:1028300008951092043E91E0E0E0F0E0A5CFC9EDEC
:10284000CC93DA0157FD07C0AD01BB0F660B770BC8
:10285000B1CF94E0C8CFAA27BB27A41BB50BF4CFF8
:10286000982FA6E0B3CFB82FA5E0B6CFE0E0F8E010
:1028700020EC26834087518780935F3E9093603E93
:1028800060935D3E70935E3E2AE02093543E8093B9
:102890005B3E90935C3E08958093543E0895109261
:1028A000573E1092553E1092563E80915F3E909159
:1028B000603E80935B3E90935C3E08958093583ECB
:1028C00080915D3E90915E3E8093593E90935A3E3A
:1028D00008959091563E983C98F59F5F9093563E90
:1028E000983C41F1A0915B3EB0915C3E8091573E97
:1028F0003091553E03C090E08317A0F42091040866
:1029000027FF26C090910008FD01E80FF11D90837C
:102910008F5F813081F73111EECF3C913F7790E0AE
:10292000831760F38093573E1092563E3093553E86
:1029300082E008958091573E882391F083E00895C6
:102940001092573E1092553E1092563E80E00895E8
:102950008093573E9093563E3093553E81E09111BF
:1029600080E008958091583E8823A9F09091040852
:1029700095FF11C0E091593EF0915A3E919190938C
:102980000208815051F41092583EE093593EF09362
:102990005A3E82E0089580E008959091040895FDE4
:1029A000EDCF8093583EE093593EF0935A3E81E03C
:1029B0000895EF92FF920F931F93CF93DF937B01C4
:1029C00089014093583E8093593E90935A3EC42FBC
:1029D000242F8091593E90915A3E09C020910408BD
:1029E00025FD0CC02C2F0115110509F04BC0CC237F
:1029F000D1F33091040835FFF6CFFC01819180932B
:102A00000208C150CF0151F71092583EE093593E51
:102A1000F0935A3E1092573E1092553E1092563EF9
:102A2000E0925B3EF0925C3E8091543E882379F0C8
:102A3000F12C90E040E0983C90F49F5F9093563EDC
:102A4000983C61F58091573E882379F0C82F8C2FF0
:102A5000DF91CF911F910F91FF90EF900895109209
:102A6000573E1092553E1092563E01151105E1F168
:102A7000D1E0D40FF80109954D2F4F3FC1F190914E
:102A8000563ED9CF2093583E8093593E90935A3E5C
:102A9000F8010995C091583E2C2F9BCFA0915B3E29
:102AA000B0915C3E8091573E3091553E03C08317F4
:102AB000A0F490E02091040827FF20C09091000826
:102AC000FD01E80FF11D90838F5F813081F7311197
:102AD000EECF3C913F77831760F33093553E809360
:102AE000573E1092563EB2CF4F5F4F3F41F6F394A0
:102AF0008091543EF81608F49CCFA9CF3093553EF0
:102B00008093573E9093563E9111AFCF011511051A
:102B100011F0D1E0AFCF41E090CF8F92AF92BF9252
:102B2000CF92DF92EF920F93CF93DF93CDB7DEB7C3
:102B30006093743E7093753E8093763E9093773E9B
:102B40002093703E3093713E4093723E5093733E9B
:102B500000936F3EE0926E3EC0926C3ED0926D3E0E
:102B6000A0926A3EB0926B3E8092693E8C859D85B4
:102B70008093673E9093683E8E859F858093653EE7
:102B80009093663E888999898093633E9093643ED2
:102B90008A899B898093613E9093623EDF91CF91B9
:102BA0000F91EF90DF90CF90BF90AF908F900895EE
:102BB0001F93CF93DF93C62F8F3429E4920709F434
:102BC000E4C090F0893420E5920709F4FDC0833514
:102BD00020E5920791F18734904509F495C080E093
:102BE000DF91CF911F910895893428E4920709F469
:102BF000C0C0893429E4920709F44AC08934964454
:102C000071F70E9408126091743E7091753E809138
:102C1000763E9091773E0E94F5116091703E7091E2
:102C2000713E8091723E9091733E0E94F51180EC4E
:102C3000DF91CF911F910C9439120E9408120E94CB
:102C40002A118823A1F30E946311C82F4091693E85
:102C50004423A9F0A091673EB091683E8C91C817BB
:102C6000B1F1CD01089620E007C0DC010896FC0117
:102C700038973081C31759F12F5F2413F6CF80E0C6
:102C80000E94D11180ECDF91CF911F910C943912E9
:102C90000E94081260916F3ECC2391F06C1710F4E3
:102CA000662371F00E946311E0916C3EF0916D3EDD
:102CB0008083E091653EF091663E099560916F3E9C
:102CC00080916C3E90916D3E0E948E11B0CF139614
:102CD0006C91139714968D919C9115970E943311C6
:102CE000811102C08FEFCCCFE091613EF091623E46
:102CF0008C2F09958823B1F38C2F0E94D111C150DC
:102D0000CE3F08F49CCF93CF0E9408120E942A1154
:102D1000882309F48CCF0E9463115091693E55239A
:102D2000A9F3A091673EB091683E4C91841709F4D5
:102D30007BC09D01285F3F4F90E09F5F951731F367
:102D4000E901CA1BDB0B285F3F4FF901389740812F
:102D50008413F3CF842F0E94D1118091673E90910C
:102D6000683EC80FD91F6B818C819D810E948E1196
:102D7000CDCF0E940812C0E0D3E189910E94D11109
:102D8000C03183E1D807C9F752CF0E940812609181
:102D90006E3ECC2391F06C1710F4662371F00E9404
:102DA0006311E0916A3EF0916B3E8083E091633E57
:102DB000F091643E099560916E3E80916A3E9091DB
:102DC0006B3E0E948E1133CF0E940812C1112FC09A
:102DD0008091693E882309F42ACF10E0C12FD0E00A
:102DE000CC0FDD1FCC0FDD1FCC0FDD1FE091673E48
:102DF000F091683EEC0FFD1F80810E94D1118091FF
:102E0000673E9091683EC80FD91F898120E1829F5B
:102E1000C00111249A81892B0E94D1111F5F8091DA
:102E2000693E1817D8F203CFC0E0D0E093CFC1308D
:102E300009F0FDCE0E9463115091693E5523B9F00F
:102E4000E091673EF091683E90818917A1F09F0163
:102E5000285F3F4F90E008C0F901285F3F4FD9013C
:102E600018974C91841739F09F5F9513F5CF80E048
:102E70000E94D111B4CE868197810E94AF11D7CE26
:020000040100F9
:103E000000000000000000000000000000000000B2
:103E100000000000000000000000000000000000A2
:103E20000000000000000000000000000000000092
:103E30000000000000000000000000000000000082
:103E40000000000000000000000000000000000072
:103E50000000000000000000000000000000000062
:103E60000000000000000000000000000000000052
:083E700000000000000000004A
:0400000300000400F5
:00000001FF
