:100400000C943E020C945B020C945B020C945B0215
:100410000C945B020C945B020C945B020C945B02E8
:100420000C945B020C945B020C945B020C945B02D8
:100430000C945B020C945B020C945B020C945B02C8
:100440000C945B020C945B020C945B020C945B02B8
:100450000C945B020C945B020C945B020C945B02A8
:100460000C945B020C945B020C945B020C945B0298
:100470000C945B020C945B020C945B0211241FBE73
:10048000CFEFCDBFDFE3DEBF18E3A0E0B8E3E0E1EC
:10049000F0E102C005900D92A832B107D9F729E327
:1004A000A8E2B8E301C01D92A434B207E1F70E94AC
:1004B0007E050C9406080C940002089508958F920E
:1004C0009F92AF92BF92CF92DF92EF92FF921F93D3
:1004D000CF93DF9380903E3890903F38A090403883
:1004E000B0904138C501B4010E94BB066B01770F83
:1004F000EE08FF08C701B6010E94F3069B01AC019C
:10050000C501B4010E94DC0520E030E048E453E47A
:100510000E947F070E94C206162F60933A38E601B8
:10052000C0923B38D0923C386701EE24FF24C09241
:100530003D38C11004C0C1388EE3D80740F181E0D6
:1005400080932A3810923138109232381092333812
:10055000109234381092353810923638109237385D
:100560001092383810922D3810922E3810922F3861
:100570001092303881E0DF91CF911F91FF90EF9082
:10058000DF90CF90BF90AF909F908F900895109282
:100590002A38A501940160E070E08AEF96E40E9499
:1005A00049060E94C2066B017C01112341F0CF3F36
:1005B000D10509F020F481E08093283802C0109220
:1005C0002838A0913938B0E0A70196010E94FB07B6
:1005D000BB27A92F982F872F8093313890933238DB
:1005E000A0933338B0933438C81AD90AEA0AFB0A00
:1005F000C0923538D0923638E0923738F092383899
:10060000B1CF8F92AF92BF92CF92DF92EF920F93C2
:100610008FE592E09F938F938DE592E09F938F9368
:100620008EE592E09F938F9380E098E39F938F9362
:1006300085E0882E92E4A92E98E3B92E23E4C22EF9
:1006400028E3D22EEE24E39401E021E030E040E004
:1006500050E068E473E48DE49AE50E948D1581E032
:10066000809343388093423880E090E0A0E8BFE375
:1006700080933E3890933F38A0934038B0934138F0
:1006800080E88093393810923A3881E090E0809386
:100690003B3890933C3810923D3810922A38109293
:1006A000283880E89EE3A0E0B0E080933138909352
:1006B0003238A0933338B0933438809335389093E0
:1006C0003638A0933738B093383810922D381092BE
:1006D0002E3810922F38109230388DB79EB708966A
:1006E0008DBF9EBF0F91EF90DF90CF90BF90AF90E6
:1006F0008F900895CF92DF92EF92FF92CF93DF9386
:10070000853041F080E0DF91CF91FF90EF90DF9056
:10071000CF900895FB0182818E3FA1F7EB010E94EB
:100720000812809142380E94D11180913938882373
:1007300009F478C18F3F09F4C3C180912A3881112F
:1007400062C12B813C8132272327322780912B38AD
:1007500090912C38280F391F20932B3830932C3848
:10076000203AFFE03F0770F2C0902D38D0902E382D
:10077000E0902F38F0903038C901805A9F40B7017F
:10078000A6014056504F6F4F7F4F803AEFE09E07D3
:1007900008F4B7C0805A9F40B701A601405C504E94
:1007A0006F4F7F4F803AFFE09F0708F4AAC0805A3E
:1007B0009F40B701A6014052514D6F4F7F4F803A85
:1007C000EFE09E0708F49DC0805A9F40B701A60144
:1007D0004058514C6F4F7F4F803AFFE09F0708F41D
:1007E00090C0805A9F40B701A601405E514B6F4FA9
:1007F0007F4F803AEFE09E0708F483C0805A9F4005
:10080000B701A6014054524A6F4F7F4F803AFFE034
:100810009F0708F476C0805A9F40B701A601405A4E
:1008200052496F4F7F4F803AEFE09E0708F469C04E
:10083000805A9F40B701A60153586F4F7F4F803AAF
:10084000FFE09F0708F45DC0805A9F40B701A601F2
:10085000405653476F4F7F4F803AEFE09E0708F4B2
:1008600050C0805A9F40B701A601405C53466F4F6D
:100870007F4F803AFFE09F0708F443C0805A9F40B3
:10088000B701A601405254456F4F7F4F803AEFE0C9
:100890009E07B8F1805A9F40B701A60140585444C2
:1008A0006F4F7F4F803AFFE09F0758F1805A9F407B
:1008B000B701A601405E54436F4F7F4F803AEFE08F
:1008C0009E07F8F0805A9F40B701A6014054554258
:1008D0006F4F7F4F803AFFE09F0798F0805A9F400C
:1008E000B701A601405A55416F4F7F4F803AEFE064
:1008F0009E0738F0805A9F40B701A60156506F4FAF
:100900007F4F80932B3890932C3840932D38509301
:100910002E3860932F3870933038E0912938EE23C9
:1009200009F482C08091313890913238A0913338E7
:10093000B0913438481759076A077B0708F4BCC0E0
:10094000C0903538D0903638E0903738F09038384D
:10095000481B590B6A0B7B0B40932D3850932E3854
:1009600060932F3870933038109229384C155D05FC
:100970006E057F0508F4B6C021E030E0E90121965C
:100980004C195D096E097F0940932D3850932E381C
:1009900060932F387093303821E02093293848171E
:1009A00059076A077B0708F06AC093E081E0E1110C
:1009B000892FD695C79520913B3830913C382F3FF1
:1009C000310511F008F082C02B30310508F07AC0F3
:1009D0008C6B0E94D1118C2F0E94D11180913B38D9
:1009E0000E94D11180912838811177C080913938C7
:1009F0000E94D11180E4DF91CF91FF90EF90DF90C2
:100A0000CF900C94391287EB0E94D11180913D3820
:100A100081110E94D11180913B3890913C380E9405
:100A2000E411E4CF80EBE4CFC0903538D090363875
:100A3000E0903738F09038384C155D056E057F052D
:100A4000B8F18091313890913238A0913338B0911B
:100A500034384C195D096E097F0940932D38509345
:100A60002E3860932F387093303821E02093293846
:100A7000481759076A077B07C8F1C1E0D0E0219603
:100A8000481B590B6A0B7B0B40932D3850932E3823
:100A900060932F3870933038109229389E014C158E
:100AA0005D056E057F0508F069CF92E080E07FCF9D
:100AB00080E0C0E0D0E07FCF83E0C0E0D0E07BCF3B
:100AC00083EB96CF886B0E94D11185CF886B0E94F3
:100AD000D111CE010E94E4119ECF80913A380E943C
:100AE000D11184CF82E0C1E0D0E063CF81E0C1E0EA
:100AF000D0E05FCF0C94D8150895089540E068EDDC
:100B000081E690E00E94D805239880913304877F86
:100B100080933304229A2A9A079880911704886058
:100B20008093170480911704887F83608093170453
:100B300040E550E064E478E384EC98E30E943614E6
:100B40002AE733E04AE755E064E478E384EC98E38D
:100B50000E9400100E94010304C08091090487FDD7
:100B600011C00E946914C82F0E94B214C230C9F08B
:100B7000C111F3CF8111F1CF0E947C05809109044E
:100B800087FFEFCF0E947D0541E068ED81E490E0B2
:100B90000E94D8050E946914C82F0E94B214C23066
:100BA00039F70E9411100E945E140E944F14D5CF95
:100BB000FC0164BF408308955058BB27AA270E94B8
:100BC000F4050C9445070E94370738F00E943E0751
:100BD00020F039F49F3F19F426F40C9434070EF4F6
:100BE000E095E7FB0C942E07E92F0E94560758F377
:100BF000BA17620773078407950720F079F4A6F502
:100C00000C9478070EF4E0950B2EBA2FA02D0B0153
:100C1000B90190010C01CA01A0011124FF27591B41
:100C200099F0593F50F4503E68F11A16F040A22F47
:100C3000232F342F4427585FF3CF469537952795B8
:100C4000A795F0405395C9F77EF41F16BA0B620BB7
:100C5000730B840BBAF09150A1F0FF0FBB1F661FFE
:100C6000771F881FC2F70EC0BA0F621F731F841F41
:100C700048F4879577956795B795F7959E3F08F067
:100C8000B0CF9395880F08F09927EE0F9795879529
:100C900008950E945D060C9445070E943E0758F097
:100CA0000E94370740F029F45F3F29F00C942E078B
:100CB00051110C9479070C9434070E94560768F37D
:100CC0009923B1F3552391F3951B550BBB27AA2705
:100CD00062177307840738F09F5F5F4F220F331F3F
:100CE000441FAA1FA9F335D00E2E3AF0E0E832D007
:100CF00091505040E695001CCAF72BD0FE2F29D00A
:100D0000660F771F881FBB1F261737074807AB07DB
:100D1000B0E809F0BB0B802DBF01FF2793585F4F50
:100D20003AF09E3F510578F00C942E070C94790709
:100D30005F3FE4F3983ED4F3869577956795B79532
:100D4000F7959F5FC9F7880F911D9695879597F93D
:100D50000895E1E0660F771F881FBB1F62177307B6
:100D60008407BA0720F0621B730B840BBA0BEE1FCB
:100D700088F7E09508950E94C2066894B1110C941A
:100D8000790708950E945E0788F09F5798F0B92F61
:100D90009927B751B0F0E1F0660F771F881F991FB0
:100DA0001AF0BA95C9F714C0B13091F00E947807D3
:100DB000B1E008950C947807672F782F8827B85FE3
:100DC00039F0B93FCCF3869577956795B395D9F708
:100DD0003EF490958095709561957F4F8F4F9F4F12
:100DE0000895E89409C097FB3EF49095809570951E
:100DF00061957F4F8F4F9F4F9923A9F0F92F96E967
:100E0000BB279395F695879577956795B795F111DB
:100E1000F8CFFAF4BB0F11F460FF1BC06F5F7F4F78
:100E20008F4F9F4F16C0882311F096E911C077238A
:100E300021F09EE8872F762F05C0662371F096E893
:100E4000862F70E060E02AF09A95660F771F881F62
:100E5000DAF7880F9695879597F9089597F99F6720
:100E600080E870E060E008959FEF80EC0895002432
:100E70000A941616170618060906089500240A94FF
:100E800012161306140605060895092E0394000C85
:100E900011F4882352F0BB0F40F4BF2B11F460FF14
:100EA00004C06F5F7F4F8F4F9F4F089557FD90583D
:100EB000440F551F59F05F3F71F04795880F97FB1E
:100EC000991F61F09F3F79F08795089512161306D8
:100ED0001406551FF2CF4695F1DF08C01616170607
:100EE0001806991FF1CF869571056105089408953C
:100EF000E894BB2766277727CB0197F908950E94CE
:100F000092070C9445070E94370738F00E943E076D
:100F100020F0952311F00C942E070C943407112423
:100F20000C9479070E94560770F3959FC1F3950FB3
:100F300050E0551F629FF001729FBB27F00DB11D5D
:100F4000639FAA27F00DB11DAA1F649F6627B00DED
:100F5000A11D661F829F2227B00DA11D621F739FD6
:100F6000B00DA11D621F839FA00D611D221F749FE4
:100F70003327A00D611D231F849F600D211D822F2B
:100F8000762F6A2F11249F5750409AF0F1F0882352
:100F90004AF0EE0FFF1FBB1F661F771F881F91507F
:100FA0005040A9F79E3F510580F00C942E070C94F9
:100FB00079075F3FE4F3983ED4F38695779567957C
:100FC000B795F795E7959F5FC1F7FE2B880F911DA9
:100FD0009695879597F90895A29FB001B39FC00198
:100FE000A39F700D811D1124911DB29F700D811D55
:100FF0001124911D08950E94EC07A59F900DB49FA8
:10100000900DA49F800D911D11240895F894FFCF99
:101010000A0101013D3800000B0201023B380000CB
:101020000C0101013A380000010401043E380000BF
:08103000020101013938000042
:102000008093523E9093533E6093503E7093513E66
:102010004093023E5093033E2093003E3093013E96
:1020200008959F92AF92BF92CF92DF92EF92FF926C
:102030000F931F93CF93DF93E091023EF091033E05
:1020400060E080E09FEF0995E091523EF091533EB1
:10205000908097FCCBC081E0891508F0F6C0DF01C5
:10206000119681818093073E882309F4EEC0E92C04
:10207000F12C282F30E02E153F050CF0E6C0C1E012
:10208000D0E0BB24B394AA24A3940AE21EE398E010
:10209000C92E9EE3D92E00934E3E10934F3EC09220
:1020A0004C3ED0924D3E1092063E1092053E0AE202
:1020B0001EE3F801265D314C9D919193E217F307E1
:1020C000D9F7E091003EF091013E48E05EE36AE21C
:1020D0007EE30995582F507C87FF53C04091073EFF
:1020E0008F7309F06FC05038C9F4842F90E02091AD
:1020F000523E3091533EC20FD31FE091503EF091BB
:10210000513EEB0DF11D009741F09F01280F391F43
:10211000999191932E173F07D9F7B40EA40EA914E5
:10212000B0F4CA2DD0E0A091523EB091533EAC0F16
:10213000BD1F8C918093073E882349F0282F30E003
:10214000A9014C0F5D1FE416F5060CF0A4CFE09139
:10215000503EF091513EB082E091023EF091033E3C
:1021600060E08FEF9FEF09958B2DDF91CF911F914D
:102170000F91FF90EF90DF90CF90BF90AF909F9026
:1021800008954091073E242F30E0A091523EB09137
:10219000533EAC0FBD1FE091503EF091513EEB0D10
:1021A000F11D2115310539F02E0F3F1F9D9191939F
:1021B0002E173F07D9F7B40E552309F4AFCF8F730D
:1021C00009F491CFE091503EF091513EA0914C3EE8
:1021D000B0914D3EEB0DF11D9F01280F311D9D91DA
:1021E0009193E217F307D9F7B80E7DCF892D8F773A
:1021F000833010F480E0B9CF9F012D5F3F4F2093D3
:102200004E3E30934F3E2091503E3091513E2093B0
:102210004C3E30934D3E6DEF680F6093073E8181D9
:1022200092811092063EE091023EF091033E982783
:10223000892798270995982F907C51F4E091503E7A
:10224000F091513E81E0808390CFBB24B3947FCF47
:102250008F738BCF81E02091063E9091073E291726
:1022600008F080E008957091063EA72FB0E0262F79
:1022700030E0FD01E20FF31F4091073E50E04E17A2
:102280005F07B4F040914E3E50914F3EA40FB51FF2
:102290002115310541F0FC01280F391F8D918193E3
:1022A000E217F307D9F7670F6093063E81E00895C0
:1022B00080E00895E0914E3EF0914F3E81E08093A2
:1022C000063E80810895E0914E3EF0914F3E809110
:1022D000063E91E0980F9093063EE80FF11D808135
:1022E0000895E0914E3EF0914F3E2091063EE20F60
:1022F000F11D6081862F90E0A0E0B0E0B82FAA2702
:10230000992788273381832B3181A32B3281BC010C
:10231000CD01732B2C5F2093063E08954091053E1E
:10232000E42FF0E0262F30E0DF01A20FB31F9397D8
:10233000ACF4A0914C3EB0914D3EEA0FFB1F21152D
:10234000310541F0DC012E0F3F1F8D918193E21783
:10235000F307D9F7640F6093053E08950895CF936E
:10236000DF9340914C3E50914D3E2091053EFC0143
:1023700003C0292F923280F491E0920FDF01819106
:10238000EA01C20FD11D88838C918111F2CF909305
:10239000053EDF91CF9108959093053EDF91CF9157
:1023A00008959091053E292F30E0213231055CF4EB
:1023B00040914C3E50914D3E9F5F9093053EFA01F7
:1023C000E20FF31F808308953091053E22E0230F32
:1023D000223250F4E0914C3EF0914D3EE30FF11D5E
:1023E000908381832093053E08953091053E24E03B
:1023F000230F223260F4E0914C3EF0914D3EE30F0A
:10240000F11D90838183728363832093053E089539
:10241000E0914C3EF0914D3E81E08093053E10826C
:102420001092043E08958091043E882381F08091AB
:10243000053E8093043EE0914C3EF0914D3E91E08C
:10244000980F9093053EE80FF11D1082089580913A
:10245000053E813071F708959091043EE0914C3E25
:10246000F0914D3EE90FF11D8091053E891B80835F
:1024700008959091053E992349F0E0914C3EF091EA
:102480004D3E2081211101C09083892B0895209118
:10249000053E213051F191E0920F2093043E30E04F
:1024A000E0914C3EF0914D3EDF01A90FB11D8C93A0
:1024B00082E0890F8093053E51E0590FDF01A50F9F
:1024C000B11D4C93611105C0E20FF31F83E08083BF
:1024D00008959D5F9093053EDF01A80FB11D6C9399
:1024E000E20FF31F84E0808308951092043E91E090
:1024F00020E030E0D5CF2091053E2130B1F191E0D0
:10250000920F2093043EE22FF0E020914C3E309158
:102510004D3ED901A90FB11D8C9382E0890F8093A4
:10252000053E51E0590FD901A50FB11D4C936F3FE6
:10253000710599F090F09D5FD901A80FB11D7C93B2
:1025400085E041E0490F4093053ED901A90FB11D37
:102550006C93E20FF31F808308956115710559F4A0
:1025600083E0E20FF31F808308951092043E91E010
:10257000E0E0F0E0CACF982F84E0E3CFEF92FF9243
:102580003091053E313009F459C091E0930F3093FA
:10259000043EA32FB0E0E0904C3EF0904D3EF7019A
:1025A000E90FF11D808382E0890F8093053E31E0C1
:1025B000390FF701E30FF11D208341155105610526
:1025C00021E0720710F19D5FF701E80FF11D7083A4
:1025D00027E031E0390FF701E90FF11D608381E059
:1025E000830FF701E30FF11D5083922F21E0280F95
:1025F0002093053EF701E80FF11D4083F701EA0F34
:10260000FB1F9083FF90EF9008954115510591E0D5
:1026100069077105D8F44F3F51056105710509F04F
:10262000C0F4411551056105710571F493E0F7019E
:10263000EA0FFB1F9083FF90EF9008951092043EE5
:1026400091E0A0E0B0E0A7CF94E0D0CF982F26E0B3
:10265000C0CF382F25E0C3CF2091053E2130A9F10E
:1026600091E0920F2093043E20914C3E30914D3EDC
:10267000F901E90FF11D808382E0890F8093053E07
:1026800041E0490FF901E40FF11D67FD0CC048ED71
:10269000408361110BC083E09091043EF901E90F82
:1026A000F11D8083089549ED408361959D5F90936E
:1026B000053EF901E80FF11D608384E09091043E2E
:1026C000F901E90FF11D808308951092043E91E015
:1026D000CBCF2091053E2130E1F191E0920F209384
:1026E000043E422F50E020914C3E30914D3EF90186
:1026F000E90FF11D808382E0890F8093053EE1E0C0
:10270000E90FD901AE0FB11DFD0177FD28C0A8ED7D
:10271000A0836F3F7105A1F098F09D5FF901E80F6C
:10272000F11D708385E071E0790F7093053EF9012A
:10273000E90FF11D6083F901E40FF51F808308950F
:102740006115710591F483E0F901E40FF51F8083B1
:1027500008951092043E91E040E050E0C4CFA9ED0E
:10276000A083719561957109D4CF982F84E0DBCF58
:10277000CF93DF93E091053EE13009F45AC091E038
:102780009E0FE093043EF0E020914C3E30914D3E90
:10279000D901A90FB11D8C9382E0890F8093053E6A
:1027A000A1E0A90FE901CA0FD11DDE0177FD47C0E5
:1027B000C8EDCC93411551056105D1E07D0708F1C5
:1027C0009D5FD901A80FB11D7C93A7E0B1E0B90FBF
:1027D000E901C90FD11D688381E08B0FE901CB0F9F
:1027E000D11D58839A2FA1E0A80FA093053ED901CF
:1027F000A80FB11D4C93E20FF31F9083DF91CF918F
:1028000008954115510591E06907710548F54F3F5D
:1028100051056105710509F030F541155105610556
:102820007105B9F493E0E20FF31F9083DF91CF912C
:1028300008951092043E91E0E0E0F0E0A5CFC9EDEC
:10284000CC93DA0157FD07C0AD01BB0F660B770BC8
:10285000B1CF94E0C8CFAA27BB27A41BB50BF4CFF8
:10286000982FA6E0B3CFB82FA5E0B6CFE0E0F8E010
:1028700020EC26834087518780935F3E9093603E93
:1028800060935D3E70935E3E2AE02093543E8093B9
:102890005B3E90935C3E08958093543E0895109261
:1028A000573E1092553E1092563E80915F3E909159
:1028B000603E80935B3E90935C3E08958093583ECB
:1028C00080915D3E90915E3E8093593E90935A3E3A
:1028D00008959091563E983C98F59F5F9093563E90
:1028E000983C41F1A0915B3EB0915C3E8091573E97
:1028F0003091553E03C090E08317A0F42091040866
:1029000027FF26C090910008FD01E80FF11D90837C
:102910008F5F813081F73111EECF3C913F7790E0AE
:10292000831760F38093573E1092563E3093553E86
:1029300082E008958091573E882391F083E00895C6
:102940001092573E1092553E1092563E80E00895E8
:102950008093573E9093563E3093553E81E09111BF
:1029600080E008958091583E8823A9F09091040852
:1029700095FF11C0E091593EF0915A3E919190938C
:102980000208815051F41092583EE093593EF09362
:102990005A3E82E0089580E008959091040895FDE4
:1029A000EDCF8093583EE093593EF0935A3E81E03C
:1029B0000895EF92FF920F931F93CF93DF937B01C4
:1029C00089014093583E8093593E90935A3EC42FBC
:1029D000242F8091593E90915A3E09C020910408BD
:1029E00025FD0CC02C2F0115110509F04BC0CC237F
:1029F000D1F33091040835FFF6CFFC01819180932B
:102A00000208C150CF0151F71092583EE093593E51
:102A1000F0935A3E1092573E1092553E1092563EF9
:102A2000E0925B3EF0925C3E8091543E882379F0C8
:102A3000F12C90E040E0983C90F49F5F9093563EDC
:102A4000983C61F58091573E882379F0C82F8C2FF0
:102A5000DF91CF911F910F91FF90EF900895109209
:102A6000573E1092553E1092563E01151105E1F168
:102A7000D1E0D40FF80109954D2F4F3FC1F190914E
:102A8000563ED9CF2093583E8093593E90935A3E5C
:102A9000F8010995C091583E2C2F9BCFA0915B3E29
:102AA000B0915C3E8091573E3091553E03C08317F4
:102AB000A0F490E02091040827FF20C09091000826
:102AC000FD01E80FF11D90838F5F813081F7311197
:102AD000EECF3C913F77831760F33093553E809360
:102AE000573E1092563EB2CF4F5F4F3F41F6F394A0
:102AF0008091543EF81608F49CCFA9CF3093553EF0
:102B00008093573E9093563E9111AFCF011511051A
:102B100011F0D1E0AFCF41E090CF8F92AF92BF9252
:102B2000CF92DF92EF920F93CF93DF93CDB7DEB7C3
:102B30006093743E7093753E8093763E9093773E9B
:102B40002093703E3093713E4093723E5093733E9B
:102B500000936F3EE0926E3EC0926C3ED0926D3E0E
:102B6000A0926A3EB0926B3E8092693E8C859D85B4
:102B70008093673E9093683E8E859F858093653EE7
:102B80009093663E888999898093633E9093643ED2
:102B90008A899B898093613E9093623EDF91CF91B9
:102BA0000F91EF90DF90CF90BF90AF908F900895EE
:102BB0001F93CF93DF93C62F8F3429E4920709F434
:102BC000E4C090F0893420E5920709F4FDC0833514
:102BD00020E5920791F18734904509F495C080E093
:102BE000DF91CF911F910895893428E4920709F469
:102BF000C0C0893429E4920709F44AC08934964454
:102C000071F70E9408126091743E7091753E809138
:102C1000763E9091773E0E94F5116091703E7091E2
:102C2000713E8091723E9091733E0E94F51180EC4E
:102C3000DF91CF911F910C9439120E9408120E94CB
:102C40002A118823A1F30E946311C82F4091693E85
:102C50004423A9F0A091673EB091683E8C91C817BB
:102C6000B1F1CD01089620E007C0DC010896FC0117
:102C700038973081C31759F12F5F2413F6CF80E0C6
:102C80000E94D11180ECDF91CF911F910C943912E9
:102C90000E94081260916F3ECC2391F06C1710F4E3
:102CA000662371F00E946311E0916C3EF0916D3EDD
:102CB0008083E091653EF091663E099560916F3E9C
:102CC00080916C3E90916D3E0E948E11B0CF139614
:102CD0006C91139714968D919C9115970E943311C6
:102CE000811102C08FEFCCCFE091613EF091623E46
:102CF0008C2F09958823B1F38C2F0E94D111C150DC
:102D0000CE3F08F49CCF93CF0E9408120E942A1154
:102D1000882309F48CCF0E9463115091693E55239A
:102D2000A9F3A091673EB091683E4C91841709F4D5
:102D30007BC09D01285F3F4F90E09F5F951731F367
:102D4000E901CA1BDB0B285F3F4FF901389740812F
:102D50008413F3CF842F0E94D1118091673E90910C
:102D6000683EC80FD91F6B818C819D810E948E1196
:102D7000CDCF0E940812C0E0D3E189910E94D11109
:102D8000C03183E1D807C9F752CF0E940812609181
:102D90006E3ECC2391F06C1710F4662371F00E9404
:102DA0006311E0916A3EF0916B3E8083E091633E57
:102DB000F091643E099560916E3E80916A3E9091DB
:102DC0006B3E0E948E1133CF0E940812C1112FC09A
:102DD0008091693E882309F42ACF10E0C12FD0E00A
:102DE000CC0FDD1FCC0FDD1FCC0FDD1FE091673E48
:102DF000F091683EEC0FFD1F80810E94D1118091FF
:102E0000673E9091683EC80FD91F898120E1829F5B
:102E1000C00111249A81892B0E94D1111F5F8091DA
:102E2000693E1817D8F203CFC0E0D0E093CFC1308D
:102E300009F0FDCE0E9463115091693E5523B9F00F
:102E4000E091673EF091683E90818917A1F09F0163
:102E5000285F3F4F90E008C0F901285F3F4FD9013C
:102E600018974C91841739F09F5F9513F5CF80E048
:102E70000E94D111B4CE868197810E94AF11D7CE26
:020000040100F9
:103E000000000000000000000000000000000000B2
:103E100000000000000000000000000000000000A2
:103E20000000000000000000000000000000000092
:103E30000000000000000000000000000000000082
:103E40000000000000000000000000000000000072
:103E50000000000000000000000000000000000062
:103E60000000000000000000000000000000000052
:083E700000000000000000004A
:0400000300000400F5
:00000001FF
