:100400000C943E020C945B020C945B020C945B0215
:100410000C945B020C945B020C945B020C945B02E8
:100420000C945B020C945B020C945B020C945B02D8
:100430000C945B020C945B020C945B020C945B02C8
:100440000C945B020C945B020C945B020C945B02B8
:100450000C945B020C945B020C945B020C945B02A8
:100460000C945B020C945B020C945B020C945B0298
:100470000C945B020C945B020C945B0211241FBE73
:10048000CFEFCDBFDFE3DEBF18E3A0E0B8E3E8EBDA
:10049000FDE002C005900D92AC30B107D9F729E319
:1004A000ACE0B8E301C01D92A331B207E1F70E94AE
:1004B00065060C94D2060C940002059806980D98D7
:1004C0000E980895069A21E22A95F1F7000038E087
:1004D00020E40DC0069A51E25A95F1F70000059804
:1004E00051E25A95F1F700002695315049F0059AEE
:1004F00051E25A95F1F7000020FFECCF0698EBCFC0
:10050000059A069821E22A95F1F70000059831E254
:100510003A95F1F70000069A51E25A95F1F700007A
:10052000059A21E22A95F1F70000069A31E23A9500
:10053000F1F70000059851E25A95F1F7000006988E
:1005400021E22A95F1F70000069A31E23A95F1F797
:1005500000004370405428E00DC0069A31E23A95FD
:10056000F1F70000059851E25A95F1F70000469521
:10057000215049F0059A51E25A95F1F7000040FFE9
:10058000ECCF0698EBCF059A069821E22A95F1F771
:100590000000059831E23A95F1F70000069A41E231
:1005A0004A95F1F70000059A51E25A95F1F70000DB
:1005B0006623C9F1FC016150262F30E02F5F3F4FC9
:1005C000280F391F919188E00DC0069A41E24A95A3
:1005D000F1F70000059851E25A95F1F70000969561
:1005E000815049F0059A51E25A95F1F7000090FFC9
:1005F000ECCF0698EBCF059A069881E28A95F1F741
:100600000000059841E24A95F1F70000069A51E290
:100610005A95F1F70000059A81E28A95F1F70000FA
:10062000E217F30779F6069A81E28A95F1F700005E
:10063000059821E22A95F1F70000069831E23A95F3
:10064000F1F70000069A41E24A95F1F70000809127
:1006500000388F70805898E00DC0069A31E23A95C4
:10066000F1F70000059841E24A95F1F70000869500
:10067000915049F0059A21E22A95F1F7000080FF98
:10068000ECCF0698EBCF059A069851E25A95F1F710
:100690000000059881E28A95F1F70000069A21E2B0
:1006A0002A95F1F70000059A31E23A95F1F700003A
:1006B000069A41E24A95F1F70000059851E25A95F1
:1006C000F1F70000069881E28A95F1F7000008959D
:1006D000CF93DF9300D000D0CDB7DEB719821A8256
:1006E0001B821C82069A21E22A95F1F7000098E00D
:1006F00080E40DC0069A21E22A95F1F700000598E2
:1007000041E24A95F1F700008695915049F0059A2B
:1007100041E24A95F1F7000080FFECCF0698EBCF5D
:10072000059A069881E28A95F1F70000059821E282
:100730002A95F1F70000069A41E24A95F1F7000088
:10074000059A81E28A95F1F70000069A21E22A953E
:10075000F1F70000059841E24A95F1F7000006988C
:1007600081E28A95F1F70000069A21E22A95F1F7D5
:10077000000098E080EC0DC0069A21E22A95F1F77E
:100780000000059841E24A95F1F7000086959150E6
:1007900049F0059A41E24A95F1F7000080FFECCF5D
:1007A0000698EBCF059A069881E28A95F1F700004A
:1007B000059821E22A95F1F70000069A41E24A9550
:1007C000F1F70000059A81E28A95F1F70000FE0139
:1007D00031969E012B5F3F4F919188E00DC0069AA4
:1007E00041E24A95F1F70000059841E24A95F1F798
:1007F00000009695815049F0059A41E24A95F1F73B
:10080000000090FFECCF0698EBCF059A069881E2A6
:100810008A95F1F70000059841E24A95F1F700004A
:10082000069A81E28A95F1F70000059A41E24A951D
:10083000F1F700002E173F0779F6069A81E28A95B4
:10084000F1F70000059821E22A95F1F700000698DB
:1008500041E24A95F1F70000069A81E28A95F1F7A4
:100860000000809100388F70805898E00DC0069A83
:1008700041E24A95F1F70000059821E22A95F1F747
:1008800000008695915049F0059A21E22A95F1F7EA
:10089000000080FFECCF0698EBCF059A069841E266
:1008A0004A95F1F70000059881E28A95F1F700007A
:1008B000069A21E22A95F1F70000059A41E24A954D
:1008C000F1F70000069A81E28A95F1F70000059899
:1008D00021E22A95F1F70000069841E24A95F1F7E6
:1008E00000002496CDBFDEBFDF91CF9108959F9287
:1008F000AF92BF92CF92DF92EF92FF920F931F932E
:10090000CF93DF9300D000D0CDB7DEB7592FB42EF0
:10091000422FE82FF92FF7FDE1C0CF01309709F002
:1009200053C0662309F4A4C0BB2009F4DBC0551FE3
:100930005527551FE0E0F0E09E012F5F3F4F790102
:100940008E010B0D111D6E01AFE3AA2EB0E49B2E9C
:1009500017C0D801AC92309709F4B9C09F01ADEC33
:10096000BCEC0E94C306FC01F695E795F695E79569
:10097000F695E795015011090C151D0509F492C073
:100980009F01ADECBCEC0E94C306969587959695A9
:100990008795969587959C01220F331F880F991F85
:1009A000880F991F880F991F820F931FDF01A81BC3
:1009B000B90BCD01AA2369F29927DC01A855B247EA
:1009C0008C91D8018C93CACFBB2009F48BC0551FE2
:1009D0005527551F6111B0CF9E012F5F3F4F790101
:1009E0008E010B0D111D6E01A0E49A2EBFE3AB2EFC
:1009F00019C09927DC01A855B2478C91D8018C9376
:100A00009F01ADECBCEC0E94C306FC01F695E79596
:100A1000F695E795F695E795015011090C151D051A
:100A200009F440C09F01ADECBCEC0E94C306969552
:100A3000879596958795969587959C01220F331FEC
:100A4000880F991F880F991F880F991F820F931F76
:100A5000DF01A81BB90BCD01A111CBCFD801309775
:100A6000A1F51C92552361F2D8019C9250E0C8CFA9
:100A70006B2D70E06150710916161706BCF520E069
:100A8000DE0111967D01F701E80FF91F10822F5F3B
:100A9000822F90E086179707B4F3F701E60FF71F50
:100AA0008FE380836B2DC7010E9462022496CDBF25
:100AB000DEBFDF91CF911F910F91FF90EF90DF90FC
:100AC000CF90BF90AF909F900895AC9299CF55234F
:100AD00009F444CFD8019C9250E040CFF195E195C4
:100AE000F1091BCFFE0131967F01DCCF9E012F5F04
:100AF0003F4F7901D2CF81E00895089508958F92F4
:100B0000AF92BF92CF92DF92EF920F938BE795E077
:100B10009F938F938DE795E09F938F938EE795E05A
:100B20009F938F9383E098E39F938F93882483947C
:100B300081E1A82E88E3B82E92E1C92E98E3D92E40
:100B4000EE24E39401E020E031E040E050E068E48E
:100B500073E48DE49AE50E948D1581E0809312384C
:100B6000809311388DB79EB708968DBF9EBF0F91A9
:100B7000EF90DF90CF90BF90AF908F900C945D027C
:100B8000833030F0FB01218190911238291711F048
:100B900080E008959281292F207F203DC9F7292FD9
:100BA0002E7F283DA9F720910C382F5F20930C3819
:100BB000213071F7993D09F020E020930E38843000
:100BC00061F08530C9F0833089F08FEF9FEF80931B
:100BD00001389093023880EC0895FB01838190E006
:100BE000809301389093023880EC08951092013878
:100BF0001092023880EC0895FB01838190E0982FD9
:100C000088272481820F911D8093013890930238A8
:100C100080EC089581152FEF920711F00C94D815F0
:100C200010920C3880E00895CF93DF9300D000D06D
:100C3000CDB7DEB7809101389091023820910F38FE
:100C4000309110388217930741F18F3F2FEF9207B1
:100C500071F120910E38211117C020E044E060E0CE
:100C60000E947704809101389091023880930F3868
:100C70009093103880910E3880930D382496CDBF14
:100C8000DEBFDF91CF91089520E044E060E09195D0
:100C9000819591090E947704E5CF30910E3820911B
:100CA0000D38321759F38F3F2FEF920791F680E4FA
:100CB00089838A838B838C8340E064E0CE01019634
:100CC0000E946202CFCF0C94680340E068ED81E699
:100CD00090E00E94BF06239880913304877F809321
:100CE0003304229A2A9A0798809117048860809387
:100CF000170480911704887F83608093170440E570
:100D000050E063E178E383E998E30E94361420EC35
:100D100035E04AE056E063E178E383E998E30E9436
:100D200000100E947F0504C08091090487FD11C056
:100D30000E946914C82F0E94B214C230C9F0C111B8
:100D4000F3CF8111F1CF0E9414068091090487FF2F
:100D5000EFCF0E94630641E068ED81E490E00E94DD
:100D6000BF060E946914C82F0E94B214C23039F71E
:100D70000E9411100E945E140E944F14D5CFFC01F6
:100D800064BF40830895A29FB001B39FC001A39F99
:100D9000700D811D1124911DB29F700D811D1124B4
:080DA000911D0895F894FFCFA6
:100DA8003F065B4F666D7D077F6F777C395E797193
:0C0DB80009FFFF010101010B3800000AD7
:102000008093523E9093533E6093503E7093513E66
:102010004093023E5093033E2093003E3093013E96
:1020200008959F92AF92BF92CF92DF92EF92FF926C
:102030000F931F93CF93DF93E091023EF091033E05
:1020400060E080E09FEF0995E091523EF091533EB1
:10205000908097FCCBC081E0891508F0F6C0DF01C5
:10206000119681818093073E882309F4EEC0E92C04
:10207000F12C282F30E02E153F050CF0E6C0C1E012
:10208000D0E0BB24B394AA24A3940AE21EE398E010
:10209000C92E9EE3D92E00934E3E10934F3EC09220
:1020A0004C3ED0924D3E1092063E1092053E0AE202
:1020B0001EE3F801265D314C9D919193E217F307E1
:1020C000D9F7E091003EF091013E48E05EE36AE21C
:1020D0007EE30995582F507C87FF53C04091073EFF
:1020E0008F7309F06FC05038C9F4842F90E02091AD
:1020F000523E3091533EC20FD31FE091503EF091BB
:10210000513EEB0DF11D009741F09F01280F391F43
:10211000999191932E173F07D9F7B40EA40EA914E5
:10212000B0F4CA2DD0E0A091523EB091533EAC0F16
:10213000BD1F8C918093073E882349F0282F30E003
:10214000A9014C0F5D1FE416F5060CF0A4CFE09139
:10215000503EF091513EB082E091023EF091033E3C
:1021600060E08FEF9FEF09958B2DDF91CF911F914D
:102170000F91FF90EF90DF90CF90BF90AF909F9026
:1021800008954091073E242F30E0A091523EB09137
:10219000533EAC0FBD1FE091503EF091513EEB0D10
:1021A000F11D2115310539F02E0F3F1F9D9191939F
:1021B0002E173F07D9F7B40E552309F4AFCF8F730D
:1021C00009F491CFE091503EF091513EA0914C3EE8
:1021D000B0914D3EEB0DF11D9F01280F311D9D91DA
:1021E0009193E217F307D9F7B80E7DCF892D8F773A
:1021F000833010F480E0B9CF9F012D5F3F4F2093D3
:102200004E3E30934F3E2091503E3091513E2093B0
:102210004C3E30934D3E6DEF680F6093073E8181D9
:1022200092811092063EE091023EF091033E982783
:10223000892798270995982F907C51F4E091503E7A
:10224000F091513E81E0808390CFBB24B3947FCF47
:102250008F738BCF81E02091063E9091073E291726
:1022600008F080E008957091063EA72FB0E0262F79
:1022700030E0FD01E20FF31F4091073E50E04E17A2
:102280005F07B4F040914E3E50914F3EA40FB51FF2
:102290002115310541F0FC01280F391F8D918193E3
:1022A000E217F307D9F7670F6093063E81E00895C0
:1022B00080E00895E0914E3EF0914F3E81E08093A2
:1022C000063E80810895E0914E3EF0914F3E809110
:1022D000063E91E0980F9093063EE80FF11D808135
:1022E0000895E0914E3EF0914F3E2091063EE20F60
:1022F000F11D6081862F90E0A0E0B0E0B82FAA2702
:10230000992788273381832B3181A32B3281BC010C
:10231000CD01732B2C5F2093063E08954091053E1E
:10232000E42FF0E0262F30E0DF01A20FB31F9397D8
:10233000ACF4A0914C3EB0914D3EEA0FFB1F21152D
:10234000310541F0DC012E0F3F1F8D918193E21783
:10235000F307D9F7640F6093053E08950895CF936E
:10236000DF9340914C3E50914D3E2091053EFC0143
:1023700003C0292F923280F491E0920FDF01819106
:10238000EA01C20FD11D88838C918111F2CF909305
:10239000053EDF91CF9108959093053EDF91CF9157
:1023A00008959091053E292F30E0213231055CF4EB
:1023B00040914C3E50914D3E9F5F9093053EFA01F7
:1023C000E20FF31F808308953091053E22E0230F32
:1023D000223250F4E0914C3EF0914D3EE30FF11D5E
:1023E000908381832093053E08953091053E24E03B
:1023F000230F223260F4E0914C3EF0914D3EE30F0A
:10240000F11D90838183728363832093053E089539
:10241000E0914C3EF0914D3E81E08093053E10826C
:102420001092043E08958091043E882381F08091AB
:10243000053E8093043EE0914C3EF0914D3E91E08C
:10244000980F9093053EE80FF11D1082089580913A
:10245000053E813071F708959091043EE0914C3E25
:10246000F0914D3EE90FF11D8091053E891B80835F
:1024700008959091053E992349F0E0914C3EF091EA
:102480004D3E2081211101C09083892B0895209118
:10249000053E213051F191E0920F2093043E30E04F
:1024A000E0914C3EF0914D3EDF01A90FB11D8C93A0
:1024B00082E0890F8093053E51E0590FDF01A50F9F
:1024C000B11D4C93611105C0E20FF31F83E08083BF
:1024D00008959D5F9093053EDF01A80FB11D6C9399
:1024E000E20FF31F84E0808308951092043E91E090
:1024F00020E030E0D5CF2091053E2130B1F191E0D0
:10250000920F2093043EE22FF0E020914C3E309158
:102510004D3ED901A90FB11D8C9382E0890F8093A4
:10252000053E51E0590FD901A50FB11D4C936F3FE6
:10253000710599F090F09D5FD901A80FB11D7C93B2
:1025400085E041E0490F4093053ED901A90FB11D37
:102550006C93E20FF31F808308956115710559F4A0
:1025600083E0E20FF31F808308951092043E91E010
:10257000E0E0F0E0CACF982F84E0E3CFEF92FF9243
:102580003091053E313009F459C091E0930F3093FA
:10259000043EA32FB0E0E0904C3EF0904D3EF7019A
:1025A000E90FF11D808382E0890F8093053E31E0C1
:1025B000390FF701E30FF11D208341155105610526
:1025C00021E0720710F19D5FF701E80FF11D7083A4
:1025D00027E031E0390FF701E90FF11D608381E059
:1025E000830FF701E30FF11D5083922F21E0280F95
:1025F0002093053EF701E80FF11D4083F701EA0F34
:10260000FB1F9083FF90EF9008954115510591E0D5
:1026100069077105D8F44F3F51056105710509F04F
:10262000C0F4411551056105710571F493E0F7019E
:10263000EA0FFB1F9083FF90EF9008951092043EE5
:1026400091E0A0E0B0E0A7CF94E0D0CF982F26E0B3
:10265000C0CF382F25E0C3CF2091053E2130A9F10E
:1026600091E0920F2093043E20914C3E30914D3EDC
:10267000F901E90FF11D808382E0890F8093053E07
:1026800041E0490FF901E40FF11D67FD0CC048ED71
:10269000408361110BC083E09091043EF901E90F82
:1026A000F11D8083089549ED408361959D5F90936E
:1026B000053EF901E80FF11D608384E09091043E2E
:1026C000F901E90FF11D808308951092043E91E015
:1026D000CBCF2091053E2130E1F191E0920F209384
:1026E000043E422F50E020914C3E30914D3EF90186
:1026F000E90FF11D808382E0890F8093053EE1E0C0
:10270000E90FD901AE0FB11DFD0177FD28C0A8ED7D
:10271000A0836F3F7105A1F098F09D5FF901E80F6C
:10272000F11D708385E071E0790F7093053EF9012A
:10273000E90FF11D6083F901E40FF51F808308950F
:102740006115710591F483E0F901E40FF51F8083B1
:1027500008951092043E91E040E050E0C4CFA9ED0E
:10276000A083719561957109D4CF982F84E0DBCF58
:10277000CF93DF93E091053EE13009F45AC091E038
:102780009E0FE093043EF0E020914C3E30914D3E90
:10279000D901A90FB11D8C9382E0890F8093053E6A
:1027A000A1E0A90FE901CA0FD11DDE0177FD47C0E5
:1027B000C8EDCC93411551056105D1E07D0708F1C5
:1027C0009D5FD901A80FB11D7C93A7E0B1E0B90FBF
:1027D000E901C90FD11D688381E08B0FE901CB0F9F
:1027E000D11D58839A2FA1E0A80FA093053ED901CF
:1027F000A80FB11D4C93E20FF31F9083DF91CF918F
:1028000008954115510591E06907710548F54F3F5D
:1028100051056105710509F030F541155105610556
:102820007105B9F493E0E20FF31F9083DF91CF912C
:1028300008951092043E91E0E0E0F0E0A5CFC9EDEC
:10284000CC93DA0157FD07C0AD01BB0F660B770BC8
:10285000B1CF94E0C8CFAA27BB27A41BB50BF4CFF8
:10286000982FA6E0B3CFB82FA5E0B6CFE0E0F8E010
:1028700020EC26834087518780935F3E9093603E93
:1028800060935D3E70935E3E2AE02093543E8093B9
:102890005B3E90935C3E08958093543E0895109261
:1028A000573E1092553E1092563E80915F3E909159
:1028B000603E80935B3E90935C3E08958093583ECB
:1028C00080915D3E90915E3E8093593E90935A3E3A
:1028D00008959091563E983C98F59F5F9093563E90
:1028E000983C41F1A0915B3EB0915C3E8091573E97
:1028F0003091553E03C090E08317A0F42091040866
:1029000027FF26C090910008FD01E80FF11D90837C
:102910008F5F813081F73111EECF3C913F7790E0AE
:10292000831760F38093573E1092563E3093553E86
:1029300082E008958091573E882391F083E00895C6
:102940001092573E1092553E1092563E80E00895E8
:102950008093573E9093563E3093553E81E09111BF
:1029600080E008958091583E8823A9F09091040852
:1029700095FF11C0E091593EF0915A3E919190938C
:102980000208815051F41092583EE093593EF09362
:102990005A3E82E0089580E008959091040895FDE4
:1029A000EDCF8093583EE093593EF0935A3E81E03C
:1029B0000895EF92FF920F931F93CF93DF937B01C4
:1029C00089014093583E8093593E90935A3EC42FBC
:1029D000242F8091593E90915A3E09C020910408BD
:1029E00025FD0CC02C2F0115110509F04BC0CC237F
:1029F000D1F33091040835FFF6CFFC01819180932B
:102A00000208C150CF0151F71092583EE093593E51
:102A1000F0935A3E1092573E1092553E1092563EF9
:102A2000E0925B3EF0925C3E8091543E882379F0C8
:102A3000F12C90E040E0983C90F49F5F9093563EDC
:102A4000983C61F58091573E882379F0C82F8C2FF0
:102A5000DF91CF911F910F91FF90EF900895109209
:102A6000573E1092553E1092563E01151105E1F168
:102A7000D1E0D40FF80109954D2F4F3FC1F190914E
:102A8000563ED9CF2093583E8093593E90935A3E5C
:102A9000F8010995C091583E2C2F9BCFA0915B3E29
:102AA000B0915C3E8091573E3091553E03C08317F4
:102AB000A0F490E02091040827FF20C09091000826
:102AC000FD01E80FF11D90838F5F813081F7311197
:102AD000EECF3C913F77831760F33093553E809360
:102AE000573E1092563EB2CF4F5F4F3F41F6F394A0
:102AF0008091543EF81608F49CCFA9CF3093553EF0
:102B00008093573E9093563E9111AFCF011511051A
:102B100011F0D1E0AFCF41E090CF8F92AF92BF9252
:102B2000CF92DF92EF920F93CF93DF93CDB7DEB7C3
:102B30006093743E7093753E8093763E9093773E9B
:102B40002093703E3093713E4093723E5093733E9B
:102B500000936F3EE0926E3EC0926C3ED0926D3E0E
:102B6000A0926A3EB0926B3E8092693E8C859D85B4
:102B70008093673E9093683E8E859F858093653EE7
:102B80009093663E888999898093633E9093643ED2
:102B90008A899B898093613E9093623EDF91CF91B9
:102BA0000F91EF90DF90CF90BF90AF908F900895EE
:102BB0001F93CF93DF93C62F8F3429E4920709F434
:102BC000E4C090F0893420E5920709F4FDC0833514
:102BD00020E5920791F18734904509F495C080E093
:102BE000DF91CF911F910895893428E4920709F469
:102BF000C0C0893429E4920709F44AC08934964454
:102C000071F70E9408126091743E7091753E809138
:102C1000763E9091773E0E94F5116091703E7091E2
:102C2000713E8091723E9091733E0E94F51180EC4E
:102C3000DF91CF911F910C9439120E9408120E94CB
:102C40002A118823A1F30E946311C82F4091693E85
:102C50004423A9F0A091673EB091683E8C91C817BB
:102C6000B1F1CD01089620E007C0DC010896FC0117
:102C700038973081C31759F12F5F2413F6CF80E0C6
:102C80000E94D11180ECDF91CF911F910C943912E9
:102C90000E94081260916F3ECC2391F06C1710F4E3
:102CA000662371F00E946311E0916C3EF0916D3EDD
:102CB0008083E091653EF091663E099560916F3E9C
:102CC00080916C3E90916D3E0E948E11B0CF139614
:102CD0006C91139714968D919C9115970E943311C6
:102CE000811102C08FEFCCCFE091613EF091623E46
:102CF0008C2F09958823B1F38C2F0E94D111C150DC
:102D0000CE3F08F49CCF93CF0E9408120E942A1154
:102D1000882309F48CCF0E9463115091693E55239A
:102D2000A9F3A091673EB091683E4C91841709F4D5
:102D30007BC09D01285F3F4F90E09F5F951731F367
:102D4000E901CA1BDB0B285F3F4FF901389740812F
:102D50008413F3CF842F0E94D1118091673E90910C
:102D6000683EC80FD91F6B818C819D810E948E1196
:102D7000CDCF0E940812C0E0D3E189910E94D11109
:102D8000C03183E1D807C9F752CF0E940812609181
:102D90006E3ECC2391F06C1710F4662371F00E9404
:102DA0006311E0916A3EF0916B3E8083E091633E57
:102DB000F091643E099560916E3E80916A3E9091DB
:102DC0006B3E0E948E1133CF0E940812C1112FC09A
:102DD0008091693E882309F42ACF10E0C12FD0E00A
:102DE000CC0FDD1FCC0FDD1FCC0FDD1FE091673E48
:102DF000F091683EEC0FFD1F80810E94D1118091FF
:102E0000673E9091683EC80FD91F898120E1829F5B
:102E1000C00111249A81892B0E94D1111F5F8091DA
:102E2000693E1817D8F203CFC0E0D0E093CFC1308D
:102E300009F0FDCE0E9463115091693E5523B9F00F
:102E4000E091673EF091683E90818917A1F09F0163
:102E5000285F3F4F90E008C0F901285F3F4FD9013C
:102E600018974C91841739F09F5F9513F5CF80E048
:102E70000E94D111B4CE868197810E94AF11D7CE26
:020000040100F9
:103E000000000000000000000000000000000000B2
:103E100000000000000000000000000000000000A2
:103E20000000000000000000000000000000000092
:103E30000000000000000000000000000000000082
:103E40000000000000000000000000000000000072
:103E50000000000000000000000000000000000062
:103E60000000000000000000000000000000000052
:083E700000000000000000004A
:0400000300000400F5
:00000001FF
