:100400000C943E020C945B020C945B020C945B0215
:100410000C945B020C945B020C945B020C945B02E8
:100420000C945B020C945B020C945B020C945B02D8
:100430000C945B020C945B020C945B020C945B02C8
:100440000C945B020C945B020C945B020C945B02B8
:100450000C945B020C945B020C945B020C945B02A8
:100460000C945B020C945B020C945B020C945B0298
:100470000C945B020C945B020C945B0211241FBE73
:10048000CFEFCDBFDFE3DEBF18E3A0E0B8E3E4E5E4
:10049000F8E002C005900D92A831B107D9F729E321
:1004A000A8E1B8E301C01D92A039B207E1F70E94AC
:1004B000BF030C9428040C9400028F929F92AF9279
:1004C000CF92DF92EF92FF920F9380E0882E88E325
:1004D000982E93E0A92E2EE8C22E28E3D22E3FE8D4
:1004E000E32E38E3F32E01E022E030E040E050E07C
:1004F00068E473E48DE49AE50E94622381E08093CE
:100500008F3880938E3810928C3810928D3889E015
:1005100090E080938A3890938B38109288381092AC
:100520008938209188383091893880918A38909123
:100530008B388217930740F480918A3890918B38DA
:100540008093883890938938209188383091893801
:1005500080918C3890918D382817390740F480911C
:100560008C3890918D388093883890938938809119
:100570008838909189388093843890938538809119
:100580008A3890918B3820918C3830918D38019633
:10059000821B930B80938638909387380F91FF903E
:1005A000EF90DF90CF90AF909F908F900895833021
:1005B00030F0FB01218190918F38291711F080E0F4
:1005C00008959281292F207B203BC9F7292F237082
:1005D000903B51F1392F387B383BF1F0973B09F4D0
:1005E00063C080E00E94652180918E380E94AE2118
:1005F00080EC0E94AE2180918438909185388F3FA5
:10060000910509F0D8F580918438909185380E9441
:10061000AE2180E40C94F2219AEF980F923008F406
:100620005DC0883009F461C02130D9F681E090E0E6
:1006300020918A3830918B38409184385091853898
:10064000241B350B2817390720F5821B930B0197C4
:10065000209186383091873828173907A0F52091E6
:1006600086383091873860918638709187380E943B
:100670000B048093843890938538B3CF809184386D
:100680009091853880918438909185380E94C1215D
:10069000C0CF2091843830918538820F931F80938A
:1006A0008438909385389DCF863009F09ACFFB012E
:1006B000838190E0982F88272481820F911D0097D5
:1006C00009F0B6CF8ECF20918C3830918D38820FC3
:1006D000931F809384389093853883CFFB01838167
:1006E00090E0213061F70196EACFFB01838190E031
:1006F000982F88273481830F911DF3CF209188385C
:100700003091893880918A3890918B38821793077D
:1007100040F480918A3890918B38809388389093F8
:100720008938209188383091893880918C3890911F
:100730008D382817390740F480918C3890918D3886
:10074000809388389093893880918838909189383F
:10075000809384389093853880918A3890918B3833
:1007600020918C3830918D380196821B930B8093A9
:1007700086389093873881E008950895089540E081
:1007800068ED81E690E00E9407042398809133048D
:10079000877F80933304229A2A9A079880911704BE
:1007A00088608093170480911704887F836080930A
:1007B000170440E550E060E978E380E199E30E94A6
:1007C0000B2260E978E380E199E30E9400200E9417
:1007D0005D0206C00E9487228091090487FD10C037
:1007E0000E943E228230B1F70E9409200E943322EB
:1007F0000E9424220E9487228091090487FFF0CF63
:1008000041E068ED81E490E00E940704E9CFFC013B
:1008100064BF40830895AA1BBB1B51E107C0AA1FF8
:10082000BB1FA617B70710F0A61BB70B881F991F91
:100830005A95A9F780959095BC01CD010895FB01CB
:10084000DC0102C001900D9241505040D8F708954C
:04085000F894FFCF4A
:10085400010201028C380000020201028A38000001
:080864000302010288380000C4
:104000008093653890936638609363387093643812
:1040100008956F927F928F929F92AF92BF92CF92AC
:10402000DF92EF92FF920F931F93CF93DF93E09174
:104030006538F0916638808087FCB5C081E08815CE
:1040400008F0DBC0BF016F5F7F4FC181C0931A389A
:10405000CC2309F4D2C0082D10E04C2F50E04017BB
:1040600051070CF0CAC0AA24A394B12C99249394AC
:10407000D1E09DE3C92E98E3D92E2BE1E22E28E36F
:10408000F22E22C0CF7309F06AC080E8681609F4E6
:1040900078C0D70DD81508F04DC0AD2EB12C609169
:1040A0006538709166386A0D7B1DFB01C081C09335
:1040B0001A38CC2309F43EC04C2F50E0CA018A0DB7
:1040C0009B1D08171907B4F1C0926138D09262386D
:1040D000E0925F38F09260381092193810921838D8
:1040E0008DE398E30E941F044BE158E36DE378E30E
:1040F0008C2F0E94D702C82FF82FF07C6F2E709063
:104100001A3887FDBFCF8091633890916438472D6E
:1041100050E060916538709166386A0D7B1D890D9D
:10412000911D0E941F04970C6110ACCFD70DD815BC
:1041300008F4B3CFE0916338F09164389082892D10
:10414000DF91CF911F910F91FF90EF90DF90CF9073
:10415000BF90AF909F908F907F906F9008958091C7
:104160006338909164384C2F50E060915F387091C3
:104170006038890D911D0E941F049C0E80E8681212
:1041800088CF8091633890916438472D50E06091DA
:104190006538709166386A0D7B1D890D911D0E94EE
:1041A0001F04970C76CF682D6F77633010F480E092
:1041B000C7CFCF0103968093613890936238809186
:1041C00063389091643880935F389093603863507F
:1041D00060931A3881819281109219389827892723
:1041E00098270E949923982F907C51F4E09163388E
:1041F000F091643881E08083A3CF992493949ACF7F
:104200008F739ECF81E02091193890911A38291729
:1042100008F080E00895CF93DF93D0911938ED2F07
:10422000F0E0462F50E0DF01A40FB51F20911A38AF
:1042300030E02A173B0724F480E0DF91CF91089506
:10424000C62F60916138709162386E0F7F1F0E9497
:104250001F046D2F6C0F6093193881E0DF91CF91AF
:104260000895E0916138F091623881E080931938C7
:1042700080810895E0916138F09162388091193819
:1042800091E0980F90931938E80FF11D80810895FF
:10429000E0916138F091623820911938E20FF11DF8
:1042A0006081862F90E0A0E0B0E0B82FAA27992780
:1042B00088273381832B3181A32B3281BC01CD012F
:1042C000732B2C5F209319380895E0915F38F0919B
:1042D0006038808381E0809318380895CF93DF930E
:1042E000D09118382D2F30E0462F50E0F901E40F1F
:1042F000F51FB39774F4C62FBC0180915F3890917D
:104300006038820F931F0E941F046D2F6C0F609303
:104310001838DF91CF910895CF93DF9340915F38A4
:104320005091603820911838FC0103C0292F923237
:1043300080F491E0920FDF018191EA01C20FD11D5B
:1043400088838C918111F2CF90931838DF91CF91AF
:10435000089590931838DF91CF910895909118386F
:10436000292F30E0213231055CF440915F385091C3
:1043700060389F5F90931838FA01E20FF31F808333
:1043800008953091183822E0230F223250F4E09142
:104390005F38F0916038E30FF11D908381832093A3
:1043A0001838089540915F3850916038209118383E
:1043B000FA01E20FF11D908391E0920FFA01E90FEB
:1043C000F11D808382E0820FFA01E80FF11D7083F6
:1043D00084E0820F809318382D5FFA01E20FF11DFF
:1043E0006083089520911838222351F0E0915F38BE
:1043F000F09160389081911102C02083922F892B17
:1044000008958091613890916238089580915F3865
:10441000909160380895E0E0F8E020EC2683408732
:10442000518780937238909373386093703870938B
:1044300071382AE02093673880936E3890936F38F4
:10444000089580936738089510926A3810926838FA
:1044500010926938809172389091733880936E38D9
:1044600090936F38089580936B3880917038909155
:10447000713880936C3890936D38089590916938B5
:10448000983C98F59F5F90936938983C41F1A091D2
:104490006E38B0916F3880916A383091683803C0B7
:1044A00090E08317A0F42091040827FF26C0909184
:1044B0000008FD01E80FF11D90838F5F813081F7C7
:1044C0003111EECF3C913F7790E0831760F38093FA
:1044D0006A38109269383093683882E00895809184
:1044E0006A38882391F083E0089510926A38109218
:1044F00068381092693880E0089580936A38909304
:1045000069383093683881E0911180E00895809196
:104510006B388823A9F09091040895FF11C0E091B1
:104520006C38F0916D38919190930208815051F45C
:1045300010926B38E0936C38F0936D3882E00895F8
:1045400080E008959091040895FDEDCF80936B383D
:10455000E0936C38F0936D3881E00895EF92FF920C
:104560000F931F93CF93DF937B01890140936B38A7
:1045700080936C3890936D38C42F242F80916C38C1
:1045800090916D3809C02091040825FD0CC02C2F96
:104590000115110509F04BC0CC23D1F3309104086B
:1045A00035FFF6CFFC01819180930208C150CF0105
:1045B00051F710926B38E0936C38F0936D3810928D
:1045C0006A381092683810926938E0926E38F0922A
:1045D0006F3880916738882379F0F12C90E040E0C3
:1045E000983C90F49F5F90936938983C61F5809176
:1045F0006A38882379F0C82F8C2FDF91CF911F91D3
:104600000F91FF90EF90089510926A3810926838D9
:104610001092693801151105E1F1D1E0D40FF801CC
:1046200009954D2F4F3FC1F190916938D9CF209313
:104630006B3880936C3890936D38F8010995C09170
:104640006B382C2F9BCFA0916E38B0916F38809132
:104650006A383091683803C08317A0F490E0209145
:10466000040827FF20C090910008FD01E80FF11D0C
:1046700090838F5F813081F73111EECF3C913F778E
:10468000831760F33093683880936A3810926938E2
:10469000B2CF4F5F4F3F41F6F39480916738F816E1
:1046A00008F49CCFA9CF3093683880936A389093F0
:1046B00069389111AFCF0115110511F0D1E0AFCFDD
:1046C00041E090CF8F929F92AF92CF92DF92EF9284
:1046D000FF920F93CF93DF93CDB7DEB7609380380F
:1046E00070938138809382389093833820937C38FC
:1046F00030937D3840937E3850937F3800937B38D9
:10470000E0927938F0927A38C0927738D09278383F
:10471000A09276388092743890927538DF91CF915C
:104720000F91FF90EF90DF90CF90AF909F908F9080
:1047300008951F93CF93DF93C62F8F3429E49207F8
:1047400009F4E3C090F0893420E5920709F4FAC037
:10475000833520E5920799F18734904509F492C09A
:1047600080E0DF91CF911F910895893428E492076A
:1047700009F4BEC0893429E4920709F44CC0893495
:10478000964471F780E00E946521609180387091B5
:10479000813880918238909183380E94D221609133
:1047A0007C3870917D3880917E3890917F380E945E
:1047B000D22180ECDF91CF911F910C94F22180E007
:1047C0000E9465210E940221882399F30E943A21C8
:1047D000C82F409176384423A9F0A0917438B09145
:1047E00075388C91C817A1F1CD01089620E007C05B
:1047F000DC010896FC0138973081C31749F12F5F1F
:104800002413F6CF80E00E94AE2180ECDF91CF919F
:104810001F910C94F22180E00E94652160917B3809
:10482000CC2379F06C1710F4662359F00E943A21DA
:10483000E0917938F0917A3880830E94BD036091CD
:104840007B388091793890917A380E946E21B1CF6F
:1048500013966C91139714968D919C9115970E94C5
:104860000B21811102C08FEFCECF8C2F0E947E03CF
:104870008823C9F38C2F0E94AE21C150CE3F08F48B
:10488000A1CF97CF80E00E9465210E94022188235A
:1048900009F48FCF0E943A21509176385523A9F31D
:1048A000A0917438B09175384C91841709F47BC08D
:1048B0009D01285F3F4F90E09F5F951731F3E9011D
:1048C000CA1BDB0B285F3F4FF901389740818413E7
:1048D000F3CF842F0E94AE21809174389091753867
:1048E000C80FD91F6B818C819D810E946E21CDCF15
:1048F00080E00E946521C0E0D3E189910E94AE2151
:10490000C03183E1D807C9F754CF80E00E94652108
:1049100060917B38CC2379F06C1710F4662359F042
:104920000E943A21E0917738F091783880830E9494
:10493000BE0360917B3880917738909178380E94DF
:104940006E2137CF80E00E946521C1112FC0809178
:104950007638882309F42DCF10E0C12FD0E0CC0F9A
:10496000DD1FCC0FDD1FCC0FDD1FE0917438F091FF
:104970007538EC0FFD1F80810E94AE218091743844
:1049800090917538C80FD91F898120E1829FC0019D
:1049900011249A81892B0E94AE211F5F8091763865
:1049A0001817D8F206CFC0E0D0E093CFC13009F09D
:1049B00000CF0E943A21509176385523B9F0E0910A
:1049C0007438F091753890818917A1F09F01285FA4
:1049D0003F4F90E008C0F901285F3F4FD901189779
:1049E0004C91841739F09F5F9513F5CF80E00E94BA
:0E49F000AE21B6CE868197810E948C21DACE50
:0400000300000400F5
:00000001FF
